:020000040202F6
:10800000000000001D800202DFF80CD000F01AF81A
:10801000004800472D800202E45E002002B5EFF325
:10802000088181F30988054800470000044880471B
:10803000EFF3098181F3088802BD00004580020248
:1080400069950202064C074D06E0E06840F0010326
:1080500094E8070098471034AC42F6D3FFF7D8FFF6
:1080600034CF020264CF020240EA01039B0703D02F
:1080700009E008C9121F08C0042AFAD203E011F867
:10808000013B00F8013B521EF9D2704710B504467F
:1080900004E00B7800F8013B03B1491C521EF8D2F2
:1080A000204610BD421C10F8011B0029FBD1801A8C
:1080B000704730B504460020034600E05B1C934245
:1080C00003D2E05CCD5C401BF8D030BD2DE9FE4F03
:1080D000804681EA0300C00F0C46009021F0004169
:1080E00023F00045B8EB0200A94105D240462146E5
:1080F00090461C460B46024623F00040104347D0F2
:10810000270DC7F30A00C3F30A510290401A0190E9
:1081100040286BDAC3F3130040F4801B00989246AA
:1081200020B10023D2EB030A63EB0B0B01985946F5
:10813000C0F14002504600F026F906460D46504672
:108140005946019A00F02EF910EB08006141002415
:1081500087EA115284EAE7731A4340D0009A62B367
:10816000019A012A4FEA075215DC001B61EB02015C
:108170004FF0004202EA0752CDE90042001C41F5EF
:10818000801132462B4600F02EF903B0BDE8F08F87
:1081900040462146F9E7001B61EB0201001C41F556
:1081A000801300185B412018A2F5001747EB03016C
:1081B00040EAD570B6196D4111E06D084FEA3606F8
:1081C00045EAC0754FEA0752001B61EB0201001C33
:1081D00041F5801149084FEA3000001951413246FB
:1081E0002B4603B0BDE8F04F00F0EEB80098012236
:1081F00040000023D0EB020263EBE07300982146BD
:108200004FEAE074B8EB000061EB0401E9E783F0AA
:1082100000435BE781F0004158E72DE9F04D81EA2A
:10822000030404F0004B21F0004514464FF0000A0F
:1082300023F0004150EA050220D054EA01021DD08B
:10824000C5F30A570246C5F31303C1F31300C1F384
:108250000A5640F4801543F48013A7EB0608101B60
:10826000D64608F2FD3873EB050002D308F1010889
:1082700001E092185B41B8F1000F03DA00200146DB
:10828000BDE8F08D00204FF48011064684460EE0D4
:10829000171B73EB050705D3121B63EB050306439E
:1082A0004CEA010C49084FEA300092185B4150EA51
:1082B0000107EDD152EA030012D082EA040083EAFA
:1082C0000501084305D0101BAB4106D20122002353
:1082D00006E000224FF0004302E06FF0010253106D
:1082E0001AEB06004CEB085110EB0A0041EB0B01B6
:1082F000BDE8F04D00F068B830B50B4601460020EF
:108300002022012409E021FA02F59D4205D303FA57
:1083100002F5491B04FA02F52844151EA2F10102D8
:10832000F1DC30BD2DE9F05F0546002092469B460A
:1083300088460646814640241BE02846414647467B
:10834000224600F041F953465A46C01A914110D3D3
:1083500011461846224600F016F82D1A67EB010860
:108360004F4622460120002100F00DF817EB0009CE
:108370004E41201EA4F10104DFDC484631462A4666
:108380004346BDE8F09F202A04DB203A00FA02F1C0
:10839000002070479140C2F1200320FA03F31943F3
:1083A00090407047202A06DBCB17203A41FA02F0B2
:1083B00043EAE07306E041FA02F3D040C2F1200242
:1083C000914008431946704710B5141E73F100041C
:1083D00008DA401C41F1000192185B411A4301D1B7
:1083E00020F0010010BD2DE9F04D92469B4611B1E1
:1083F000B1FA81F202E0B0FA80F220329046FFF743
:10840000C2FF04460F4640EA0A0041EA0B01534608
:108410005A46084313D0114653EA010019D0C8F157
:108420004002504600F0D0F805460E4650465946E8
:108430004246FFF7A8FF084305D0012004E020468C
:108440003946BDE8F08D0020054346EAE0762C432E
:1084500037430A986305E40AA0EB08000022FD0AEE
:1084600044EA47540A3002D500200146E9E70105F5
:1084700010196941DDE9084500196941BDE8F04D71
:10848000A2E72DE9FE4F81EA030404F0004421F045
:10849000004100944FF0000B23F0004350EA010428
:1084A0005ED052EA03045BD0C3F30A54C1F30A5509
:1084B0002C44A4F2F3340194A0FB0254C1F3130141
:1084C00041F48011C3F3130343F4801301FB02440E
:1084D00000FB034E840A970A44EA815447EA835713
:1084E000A4FB076802958D0A05FB07854FEA932CCC
:1084F00004FB0C542705029D4FEA065847EA16373D
:10850000B5EB08056EEB070C870E920E47EA811754
:1085100042EA8312A7FB0201B6EB0B0164EB0004F5
:108520002B0D43EA0C335E1844EB1C50DA465146DF
:10853000E7FB0201C5F313044FEA0B3343EA14537C
:108540004FEA0432019C43EA0603A4F10C040294AE
:10855000009CCDE900B4FFF746FF03B0BDE8F08F03
:1085600000200146F9E7C1F30A52C1F3130140F2BA
:10857000FF3341F480119A4202DA0020014670472D
:1085800040F233439A42A2F2334202DC524200F0FC
:108590001BB8FFF7F8BE000030B5041E71F10004EF
:1085A00004DB4FF00044404264EB0101141E73F100
:1085B000000405DB1C464FF00043524263EB04030A
:1085C000994208BF904230BD202A04DB203A21FAAC
:1085D00002F00021704721FA02F3D040C2F12002DC
:1085E000914008431946704730B58C1810F8012B9C
:1085F00012F00F0301D110F8013B120906D110F857
:10860000012B03E010F8015B01F8015B5B1EF9D15F
:1086100001E001F8013B521EFBD1A142E6D300204C
:1086200030BD000080B588B08DF81F008DF81E1099
:108630008DF81D209DF81F1045F20000C4F20100C6
:108640001429C4BF46F20000C4F2010006909DF850
:108650001F00152805DBFFE79DF81F001538019066
:1086600003E09DF81F000190FFE7019805909DF839
:108670001E009DF81D1002F041FB8DF813009DF8BF
:10868000130040B9FFE7069850309DF814100022FF
:1086900000F092F929E00598C11700EB5170C01065
:1086A0000390059800F007008000029002990720CF
:1086B00000FA01F20698039900EB8101486D90439E
:1086C00048659DF81300029900FA01F20698039993
:1086D00000EB8101486D10434865069850309DF8C5
:1086E0001410012200F068F9FFE708B080BD000017
:1086F00080B582B08DF803008DF802108DF801204E
:108700008DF800309DF80300122814DBFFE79DF878
:108710000300152805DBFFE79DF803001A280ADB94
:10872000FFE79DF803001D2846DBFFE79DF80300E7
:10873000252841DCFFE79DF803001F280BDCFFE73D
:108740009DF803109DF8022040F22810C4F210009A
:1087500000F032F90CE09DF8030020389DF802206B
:10876000C1B240F22C10C4F2100000F025F9FFE76E
:108770009DF803001F280EDCFFE79DF803109DF80D
:108780000100B0FA80F0420940F22010C4F210005B
:1087900000F012F90FE09DF8030020389DF8011059
:1087A000B1FA81F14A09C1B240F22410C4F21000BA
:1087B00000F002F9FFE703E04FF0FF3001907DE0A9
:1087C0009DF80300012805DBFFE79DF8030005285D
:1087D00014DBFFE79DF80300072805DBFFE79DF8A2
:1087E000030012280ADBFFE79DF803001D2862DB67
:1087F000FFE79DF8030023285DDCFFE79DF80300F9
:108800001F280ADCFFE79DF803109DF80220602076
:10881000C4F2100000F0D0F80BE09DF803002038FF
:108820009DF80220C1B26420C4F2100000F0C4F828
:10883000FFE79DF8020018B9FFE7002001903DE036
:108840009DF80000B0B3FFE79DF803001F2816DC79
:10885000FFE79DF803106820C4F21000012200F029
:10886000ABF89DF803109DF800000138B0FA80F0D5
:1088700042097020C4F2100000F09EF819E09DF843
:1088800003002038C1B26C20C4F21000012200F0B5
:1088900093F89DF8030020389DF800100139B1FAD3
:1088A00081F14A09C1B27420C4F2100000F084F8CA
:1088B000FFE7FFE7FFE700200190FFE7019802B024
:1088C00080BD000080B582B08DF807009DF80720BC
:1088D00042F21000C4F21000072100F06DF8FFE72B
:1088E00040F20010C4F210000068C0F3C0409DF8D0
:1088F0000710884201D0FFE7F2E702B080BD000018
:1089000080B586B08DF817009DF8170048B3FFE7D3
:1089100040F2A810C4F210000E21012200F04CF821
:10892000FFE70A200490FFE70498411E049110B16C
:10893000FFE700BFF8E7FFE740F2A810C4F210001D
:108940000F21012200F038F8FFE70A200390FFE72B
:108950000398411E039110B1FFE700BFF8E7FFE75E
:1089600028E040F2A810C4F210000F21002200F00D
:1089700023F8FFE70A200290FFE70298411E0291C8
:1089800010B1FFE700BFF8E7FFE740F2A810C4F21C
:1089900010000E21002200F00FF8FFE70A200190DE
:1089A000FFE70198411E019110B1FFE700BFF8E712
:1089B000FFE7FFE706B080BD83B002908DF8071097
:1089C0008DF806209DF8071001208840009002983D
:1089D0000068009988439DF806109DF80720914093
:1089E00008430299086003B07047000080B586B064
:1089F0008DF817008DF816109DF8171045F200003D
:108A0000C4F201001429C4BF46F20000C4F2010000
:108A100004909DF81700152805DBFFE79DF8170067
:108A20001538029003E09DF817000290FFE70298C6
:108A300003909DF81600032817D0FFE7049828300C
:108A40009DF80C109DF81620002A18BF0122FFF790
:108A5000B3FF049834309DF80C109DF81620B2FA3C
:108A600082F25209FFF7A8FF0FE0049828309DF822
:108A70000C1000220192FFF79FFF019A04983430F6
:108A80009DF80C10FFF798FFFFE706B080BD0000CF
:108A900084B08DF80F008DF80E109DF80F1045F280
:108AA0000000C4F201001429C4BF46F20000C4F261
:108AB000010002909DF80F00152805DBFFE79DF8E7
:108AC0000F001538009003E09DF80F000090FFE7BD
:108AD000009801909DF80E0048B1FFE70199012030
:108AE00000FA01F20299086B1043086308E001994B
:108AF000012000FA01F20299C86A1043C862FFE738
:108B000004B0704786B08DF817008DF816109DF8E8
:108B100017000490049900201F29C8BF012003906A
:108B2000049800F01F01012088400290039946F24A
:108B30008000C4F2000000EB81000190039946F22E
:108B40008800C4F2000000EB810000909DF8160040
:108B500030B9FFE7029A019908689043086016E06F
:108B60009DF81600012806D1FFE7029A00990868CF
:108B70001043086005E0029A009908689043086075
:108B8000FFE7029A0199086810430860FFE7002098
:108B900006B0704780B586B0DDF820C08DF81300B0
:108BA0000391029201939DF813007F2812D1FFE7F1
:108BB000029946F24000C4F2000000EB81009DF8EB
:108BC00004209DF820304FF0FF3102F03DFB0020E3
:108BD000059024E003989DF8131002F0D7F8009058
:108BE0000098B0F1FF3F03DCFFE70098059016E026
:108BF000029946F24000C4F2000000EB81000099A7
:108C00009DF804209DF8203002F01EFB9DF8130013
:108C10009DF80C1000F030F800200590FFE7059853
:108C200006B080BD80B584B08DF80F008DF80E10B1
:108C30009DF80F000146029120B1FFE7029801283C
:108C40000BD015E09DF80E006A460F2111606621D9
:108C500003220523FFF79EFF0BE09DF80E006A46F6
:108C600000211160682104220523FFF793FF00E033
:108C7000FFE704B080BD000080B584B08DF80B0024
:108C80008DF80A109DF80B009DF80A1002F0BAFB4F
:108C900001900198B0F1FF3F03DCFFE701980390DA
:108CA000BAE09DF80B00112812DCFFE79DF80B20BD
:108CB00046F20000C4F20000104320F003000199C6
:108CC00002F00302C2EBC203072202F0BDFAA0E0E9
:108CD0009DF80B00142810DCFFE701999DF80B208C
:108CE0006FF0150000EB4200C3B246F21000C4F270
:108CF0000000022202F0A8FA8AE09DF80B00152875
:108D00000AD1FFE7019946F21000C4F200000722E1
:108D1000142302F099FA7AE09DF80B0016280AD184
:108D2000FFE7019946F21400C4F200000722002375
:108D300002F08AFA6AE09DF80B001E2810DCFFE7BB
:108D400001999DF80B206FF0260000EB4200C3B2A2
:108D500046F21400C4F20000022202F075FA54E058
:108D60009DF80B001F280AD1FFE7019946F2140075
:108D7000C4F200000722172302F066FA44E09DF8CF
:108D80000B0020280AD1FFE7019946F21400C4F233
:108D9000000002221E2302F057FA34E09DF80B0077
:108DA00021280AD1FFE7019946F21800C4F2000019
:108DB0000222002302F048FA24E09DF80B00232849
:108DC0000FDCFFE701999DF80B00C0EBC000EC3809
:108DD000C3B246F21800C4F20000072202F034FACF
:108DE0000FE001999DF80B206FF0370000EB420077
:108DF000C3B246F21800C4F20000022202F024FAC4
:108E0000FFE7FFE7FFE7FFE7FFE7FFE7FFE7FFE732
:108E1000FFE700200390FFE7039804B080BD000047
:108E200080B582B08DF807009DF80700012100F0A1
:108E300025F802B080BD000080B582B0019000200E
:108E40008DF80300FFE79DF80300182813DCFFE707
:108E500001989DF80310C840C00728B1FFE79DF8AE
:108E60000300FFF7DDFFFFE7FFE79DF80300013098
:108E70008DF80300E7E702B080BD000080B586B042
:108E80008DF817008DF816109DF817000146049113
:108E9000182800F2B3810499DFE811F019002A00C4
:108EA0003B004C005D006E007F009000A100B2000E
:108EB000CA00E300F4000D011E012F014001510121
:108EC00062016B0174017D0186019701A7019DF884
:108ED00016100C20C4F20000152202F09BF99DF838
:108EE00016101420C4F20000122202F093F986E159
:108EF0009DF816100C20C4F20000162202F08AF928
:108F00009DF816101420C4F20000122202F082F91B
:108F100075E19DF816100C20C4F20000022202F048
:108F200079F99DF816101420C4F20000002202F016
:108F300071F964E19DF816100C20C4F200000322C0
:108F400002F068F99DF816101420C4F20000012206
:108F500002F060F953E19DF816100C20C4F20000F5
:108F6000042202F057F99DF816101420C4F20000F4
:108F7000022202F04FF942E19DF816100C20C4F2D3
:108F80000000012202F046F99DF816101420C4F2E8
:108F90000000112202F03EF931E19DF816100C207C
:108FA000C4F20000052202F035F99DF816101420D5
:108FB000C4F200000A2202F02DF920E19DF81610FB
:108FC0000C20C4F20000082202F024F99DF81610CB
:108FD0001420C4F20000092202F01CF90FE19DF8F0
:108FE00016100C20C4F20000092202F013F99DF8BB
:108FF00016105420C4F200000C2202F00BF9FEE01F
:109000009DF816100C20C4F200000A2202F002F9AA
:109010009DF816101420C4F200000390132202F0F1
:10902000F9F803989DF81610142202F0F3F8E6E020
:109030009DF816100C20C4F200000B22019202F0E1
:10904000E9F8019A9DF816101420C4F2000002906D
:1090500002F0E0F802989DF81610102202F0DAF8FB
:10906000CDE09DF816100C20C4F200000C2202F096
:10907000D1F89DF816100820C4F20000002202F07A
:10908000C9F8BCE09DF816100820C4F200000C22BC
:1090900002F0C0F89DF816100C20C4F200000D225A
:1090A00002F0B8F89DF816101420C4F20000062251
:1090B00002F0B0F8A3E09DF816100C20C4F20000F6
:1090C0000E2202F0A7F89DF816101420C4F200003A
:1090D000072202F09FF892E09DF816100C20C4F2CF
:1090E00000000F2202F096F89DF816101420C4F22A
:1090F00000000C2202F08EF881E09DF816100C2082
:10910000C4F20000102202F085F89DF81610142019
:10911000C4F20000082202F07DF870E09DF81610FD
:109120000C20C4F20000112202F074F89DF8161011
:109130001420C4F20000042202F06CF85FE09DF8F5
:1091400016100C20C4F20000122202F063F89DF801
:1091500016101420C4F20000052202F05BF84EE065
:109160009DF816100C20C4F20000132202F052F8F1
:1091700045E09DF816100C20C4F20000142202F005
:1091800049F83CE09DF816100C20C4F200000022C3
:1091900002F040F833E09DF816100C20C4F20000F5
:1091A000062202F037F82AE09DF816100C20C4F2CF
:1091B0000000172202F02EF89DF816101420C4F2B9
:1091C00000000E2202F026F819E09DF8161080200B
:1091D000C4F200000090052202F01CF800989DF8EF
:1091E0001610072202F016F809E09DF816100C2060
:1091F000C4F20000192202F00DF800E0FFE706B00B
:1092000080BD000080B582B0844604988DF807C008
:109210008DF80610ADF80420ADF802308DF801008D
:109220009DF8070040009DF8061040EA411242F008
:109230000500BDF8041042F205031A430029C8BF17
:10924000104640EA8130BDF8021040F48022002927
:10925000C8BF104640EAC1409DF8011040EA0170C5
:109260000021CEF68021084342F21401C4F210011D
:10927000086002B080BD000080B584B08DF80F009A
:109280008DF80E109DF80F0098B1FFE742F20C0028
:10929000C4F210000022114601F0BCFF9DF80E1030
:1092A00040F27C10C4F2100005220C2301F0EEFF06
:1092B00010E042F20C00C4F2100000900021029174
:1092C0000122019201F0A6FF00980199029A01F093
:1092D000A1FFFFE704B080BD80B584B001F06AFA59
:1092E0000190019818B9FFE70120039056E001981A
:1092F000017842F20800C4F210000722042301F0B2
:10930000C5FF00200290FFE702980F2819D8FFE759
:109310000198029900EB4100808840F2A641884202
:109320000ADBFFE7029942F20000C4F210000422B7
:109330001C2301F0ABFF04E0FFE70298013002902C
:10934000E2E70298102803D3FFE70220039025E00C
:1093500001200290FFE702980F2815D8FFE7019837
:10936000029900EB4100808C40F29D41884206DB6F
:10937000FFE702980138C0B200F014F804E0FFE7FC
:10938000029801300290E6E70298102803D3FFE725
:109390000320039002E000200390FFE7039804B04D
:1093A00080BD000080B582B08DF807009DF80700F1
:1093B00000F00F0142F20000C4F210000422012369
:1093C00001F064FF02B080BD41F21801C4F2000157
:1093D00045F6A520086041F21401C4F200014CF6E4
:1093E000FE2008607047000082B001908DF80310E5
:1093F0009DF803000199086002B0704783B00290A5
:109400000191ADF802200298A12801D1FFE700E008
:10941000FFE703B07047000086B005900491039207
:109420000498C0000399B0FBF1F002900298C009C3
:10943000019001990298A0EBC110029002980130AE
:1094400040080090019805994862BDF8060018B9D7
:10945000FFE7019810B9FFE7FFE7FEE701984FF635
:10946000FF71884204D1FFE705990020886207E078
:1094700001990298401A0290009805998862FFE7C6
:109480000598C06A0599C86206B0704781B000901F
:1094900000988069C0F3001001B0704781B000905F
:1094A00000988069C0F3C01001B0704781B000908F
:1094B00000988069C0F3401001B0704781B00090FF
:1094C0000098C06B01B0704780B584B003900291E2
:1094D0000192039900200863039948640399886303
:1094E0000399486003994862039988620399C862A6
:1094F0000398029AD1681269FFF78EFF029890F8DC
:1095000000C041788378C278802000EA411040EAA8
:109510004C1040EA031040EAC20001F0030140EAA7
:1095200041000399C8620298B0F80900000400BA2B
:10953000039948630198039988630299087991F81F
:1095400005C08B79CA79400240EA0C20184440EAF1
:10955000C230097A40EA81300399086304B080BDC3
:1095600080B502F02DFB80BD80B582B001F0BEFD5C
:109570000190042000210091F5F76AFC06204FF4C9
:10958000FA71F5F765FC02F0B4FCFFF7A5FE45F2B1
:109590007040C2F20000F5F7B7FD02F037FB01F0B2
:1095A000BBFA01994CF6A130C0F20220F5F764FD38
:1095B000009802B080BD000080B582B045F2414005
:1095C000ADF806002020FFF737FC01F065FD002014
:1095D0000090FFF795F90098FFF774F90DF1060078
:1095E000022100F03DFE02B080BD000080B586B0D3
:1095F0002320019000210491FFF73EFB01980121F7
:109600000391FFF77FFA04990198FFF7EFF90198AA
:109610000399049AFFF706F80198039B049A1946E8
:10962000FFF766F8049908200290FFF725FB0399DD
:109630000298FFF767FA04990298FFF7D7F90298A2
:109640000399049AFEF7EEFF0298039B049A1946C9
:10965000FFF74EF8039909200590FFF7C7F9039922
:109660000598FFF715FA05980499FFF74BFA049946
:109670000598FFF701FB06B080BD000080B54AF2F7
:109680009D11C0F202210D200022F5F743FD80BD9F
:1096900080B5FFF791FF00F03FFD01210846F5F787
:1096A000D7FB01F047FE01F0E7FB80BD80B588B035
:1096B0000790ADF81A100592ADF81230BDF81200FF
:1096C00016300390BDF80C0000F02EF908B9FFE742
:1096D0004FE0BDF81A0040F40070ADF81A0003988E
:1096E00045F2E851C2F2000101910B6845F2F052D7
:1096F000C2F200020292B2F800C023F80C001088F7
:1097000002301080BDF81A000B68B2F800C023F8D0
:109710000C0010880230108045F2EE53C2F20003B4
:109720001888D1F800C0B2F800E02CF80E001088BC
:109730000230108018880130188007980968128854
:109740001144F6F7F9FC019802990A8810320A8050
:109750000068098808440599BDF81220FEF784FCCA
:109760000299BDF8122008881044088000F022F900
:10977000FFE708B080BD000080B588B0ADF81C00E0
:10978000ADF81A100592ADF81230BDF8120008308D
:109790000390BDF80C0000F0C7F828B9FFE74FF6BA
:1097A000FF70ADF81E004DE0039A45F2E850C2F29A
:1097B0000000036845F2F051C2F200010191B1F8D6
:1097C00000C023F80C200A8802320A80BDF81A2053
:1097D0000368B1F800C023F80C200A8802320A801E
:1097E00045F2EE53C2F2000302931A88D0F800C08B
:1097F000B1F800E02CF80E200A8802320A801A889C
:1098000001321A80BDF81C200368B1F800C023F8AB
:109810000C200A8802320A800068098808440599E9
:10982000BDF81220FEF720FC0199BDF8122008882F
:109830001044088000F0BEF8029800880138ADF8A6
:109840001E00FFE7BDF81E0008B080BD80B58CB0DB
:109850000B90ADF82A100992ADF822300020ADF837
:109860000C00ADF80A009DF82A008DF80F0045F2B3
:10987000EE50C2F20000019000880130ADF81000F7
:109880000B980DF10F0100910331F6F755FC009A8A
:1098900042F6030002211323FFF76EFF01980088B0
:1098A000ADF80C000B98BDF82A10099ABDF82230CB
:1098B000FFF7FCFEBDF82A0010F0300F1ED0FFE7C6
:1098C0004FF48570ADF80A00BDF82A004005002865
:1098D00007D5FFE7BDF80A0040F48060ADF80A0044
:1098E000FFE70020ADF80F00BDF80A1042F60210A5
:1098F0000DF10F020223FFF73FFFFFE7BDF80C0059
:109900000CB080BD80B586B00590059801A9009186
:10991000F6F712FC009A4FF4205002211023FFF7B3
:109920002BFF06B080BD000081B0ADF80200BDF88D
:1099300002000230ADF8020045F2F050C2F2000021
:109940000088BDF80210084445F2EC51C2F2000153
:109950000988884203DCFFE7012001B07047FFE778
:10996000FEE7000045F2E850C2F2000000687047D0
:1099700080B582B00190ADF80210019845F2E8512F
:10998000C2F200010860BDF8020045F2EC51C2F2DB
:109990000001088045F2F051C2F200010020088069
:1099A00045F2EE51C2F200010120088000F002F8F9
:1099B00002B080BD45F2E852C2F20002136845F2DF
:1099C000F051C2F20001B1F800C0002003F80C0011
:1099D00012680988114448707047000080B586B04D
:1099E00084460898ADF814C0ADF81210ADF81020F8
:1099F0000393ADF80A00BDF81400BDF81210BDF8CD
:109A00001020039BBDF80AC0EE46CEF800C001F05E
:109A100051FDADF80800BDF90800013028B1FFE79D
:109A2000BDF80800ADF8160003E00020ADF8160000
:109A3000FFE7BDF8160006B080BD000010B586B087
:109A400084460998DDF820E0ADF812C0ADF810109A
:109A5000ADF80E20ADF80C30ADF80A00BDF81200DC
:109A6000BDF81010BDF80E20BDF80C30DDF820C098
:109A7000BDF80A40EE46CEF80440CEF800C001F032
:109A800067FDADF80800BDF90800013020B1FFE71F
:109A9000BDF90800059002E000200590FFE7059859
:109AA00006B010BD80B582B045F6BC60C2F20000C1
:109AB000007870B1FFE700230093184619461A4654
:109AC000DCF79AFF009845F6BC61C2F2000108700D
:109AD000FFE7DCF785FB45F2C840C2F200009B308F
:109AE000019045F27050C2F2000000884FF6FF71FD
:109AF00088420CD0FFE745F27050C2F200000088A7
:109B0000DCF792FB01980121DCF742FB04E00198AD
:109B10000121DCF73DFBFFE7002000F087FF02B0EA
:109B200080BD000080B588B00690ADF81610049294
:109B3000039300200290FFE70298022814DCFFE75D
:109B40000698029A805C4CF61401C0F20221895CEE
:109B5000884201D1FFE703E06FF0040007903CE08A
:109B6000029801300290E7E76FF0050000900020B6
:109B70000190FFE7019845F26841C2F200010968CF
:109B8000884227DAFFE70698029908444CF6140148
:109B9000C0F202214968019A01EB02118A7AFEF7AC
:109BA00088FA90B9FFE74CF61400C0F20220406832
:109BB000019900EB0110D0F80CC00698BDF8161002
:109BC000049A039BE047009004E0FFE7019801300E
:109BD0000190CFE700980790FFE7079808B080BD95
:109BE000B0B590B00E90ADF836100C920B930E9865
:109BF00008300A90BDF83600132829D8FFE745F24F
:109C0000C840C2F200000690243001F00FF9DDF8E0
:109C100018C00C989CF824209CF825309CF826103D
:109C20009CF827E09CF828409CF82950EC46CCF89A
:109C30000C50CCF80840CCF804E0CCF800104CF6FE
:109C4000D461C0F2022102F059F900200F908CE09B
:109C500000200990FFE709980B2863DCFFE70A98CA
:109C60000999405C30280DDBFFE70A980999405CB0
:109C7000392807DCFFE70A980999405C30388DF8ED
:109C800023002BE00A980999405C61280DDBFFE76F
:109C90000A980999405C662807DCFFE70A98099949
:109CA000405C57388DF8230017E00A980999405C0A
:109CB00041280DDBFFE70A980999405C462807DC3C
:109CC000FFE70A980999405C37388DF8230003E0D4
:109CD0006FF006000F9048E0FFE7FFE7099800EB00
:109CE000D07121F00101401A58B9FFE79DF8230017
:109CF0000001099901EBD1714A100DF11D01885441
:109D00000BE09DF82330099800EBD07042100DF164
:109D10001D01885C18438854FFE7FFE7099801306C
:109D2000099098E745F2C841C2F20001BDF8210050
:109D30000885DDF81D004862012081F8990001F0D6
:109D400057FA0DF11D0001F071F8A12000220592D3
:109D50001146DBF7C1FB0C984CF6D061C0F2022132
:109D600002F0CCF805980F90FFE70F9810B0B0BD47
:109D700080B58AB00890ADF81E1006920593089839
:109D800007300490BDF81E00122804D8FFE76FF0DA
:109D9000060009908EE000200390FFE703980B284F
:109DA00063DCFFE704980399405C30280DDBFFE794
:109DB00004980399405C392807DCFFE7049803996D
:109DC000405C30388DF80B002BE004980399405C20
:109DD00061280DDBFFE704980399405C662807DCE7
:109DE000FFE704980399405C57388DF80B0017E0A3
:109DF00004980399405C41280DDBFFE70498039920
:109E0000405C462807DCFFE704980399405C37383C
:109E10008DF80B0003E06FF0060009904AE0FFE7C1
:109E2000FFE7039800EBD07121F00101401A58B907
:109E3000FFE79DF80B000001039901EBD1714A1077
:109E40000DF1050188540BE09DF80B30039800EBF1
:109E5000D07042100DF10501885C18438854FFE76B
:109E6000FFE703980130039098E745F2C841C2F23A
:109E70000001BDF80900A1F89F00DDF80500C1F858
:109E80009B000020009081F8990001F0B1F90DF1DC
:109E9000050000F0CBFF009A92201146DBF71CFB77
:109EA00006984CF6D061C0F2022102F027F8009823
:109EB0000990FFE709980AB080BD000084B00390C4
:109EC000ADF80A10019200934FF0FF3004B07047D4
:109ED00080B584B00390029145F2E870C2F20000B0
:109EE00000696FF08051884211D3FFE745F2E870B6
:109EF000C2F2000081680069884208D1FFE745F29C
:109F0000E871C2F20001002008618860FFE745F2B5
:109F1000E870C2F20000C06802990844B0F5487FBA
:109F20000CDCFFE745F2E870C2F20000C1680844AB
:109F300014300399029AFEF797F818E045F2E8709A
:109F4000C2F20000C168C1F548710191C1681430C6
:109F5000009008440399019AFEF786F80098039947
:109F6000019B1944029AD21AFEF77EF8FFE7029A83
:109F700045F2E870C2F20000C1681144C160029A63
:109F8000016911440161C068B0F5487F09DBFFE752
:109F900045F2E871C2F20001C868A0F54870C860D7
:109FA000FFE700F0CDFC04B080BD000081B0ADF84B
:109FB0000200BDF8022045F66830C2F20000416898
:109FC00011444160BDF802208168114481604068FD
:109FD000B0F5487F09DBFFE745F66831C2F20001C2
:109FE0004868A0F548704860FFE701B0704700007E
:109FF00083B0019045F66830C2F2000081680069C4
:10A00000401A0090009818B9FFE7002002901EE067
:10A0100000980199884203DDFFE701980090FFE76F
:10A0200045F66830C2F20000406800990844B0F577
:10A03000487F09DDFFE745F66830C2F2000040685E
:10A04000C0F548700090FFE700980290FFE7029883
:10A0500003B0704745F66830C2F20000416808441A
:10A060001430704780B545F2E870C2F20000816894
:10A070000069884201D0FFE726E042F20000C4F206
:10A080000100FFF703FA012809D1FFE745F6683020
:10A09000C2F2000081680069884201D0FFE713E046
:10A0A000FFE742F20000C4F20100FFF7F7F90128D0
:10A0B00001D0FFE7F5E745F6AA61C2F20001088882
:10A0C00000F002000880FFE780BD000080B582B08C
:10A0D00045F66830C2F2000041688368C2680069D2
:10A0E000EC46CCF800004CF69F50C0F20220F4F78A
:10A0F000C3FF45F2E870C2F2000041688368C2689D
:10A100000069EC46CCF800004CF68050C0F202200A
:10A11000F4F7B2FF02B080BD80B586B04AF6ED40DC
:10A12000C0F20220694608604CF6C050C0F202201E
:10A1300033210122039200230593FBF77BF9059954
:10A140000246039845F6CC63C2F200031A6003226C
:10A150000492FAF7D7F9059B0146049845F6D462B4
:10A16000C2F20002116069464B6008604AF2216049
:10A17000C0F202204CF6BE51C0F202219622FAF73C
:10A18000EDFE059845F66831C2F20001086045F21F
:10A19000E871C2F20001086006B080BD80B582B0EF
:10A1A0000190FFE742F20000C4F20100FFF786F9D8
:10A1B0000090009808B9FFE710E0009842F24401CF
:10A1C000C4F2010108609DF80000C006002804D513
:10A1D000FFE7002000F070F8FFE7E3E7002002B09F
:10A1E00080BD000080B582B0FFE745F2E871C2F2A1
:10A1F00000018868096988422FD2FFE7FFE742F231
:10A200000000C4F20100FFF751F9012801D1FFE776
:10A21000F5E745F2E870C2F2000001904168084499
:10A22000017D42F20000C4F20100FFF7DDF8019861
:10A230004168013141608168013181604068B0F559
:10A24000487F09DBFFE745F2E871C2F20001486888
:10A25000A0F548704860FFE7C7E702B080BD000086
:10A2600080B584B003900291039808B9FFE721E01C
:10A2700000200190FFE701980299884219DAFFE770
:10A28000FFE742F20000C4F20100FFF70FF90128D6
:10A2900001D1FFE7F5E703980199415C42F2000024
:10A2A000C4F20100FFF7A0F8FFE701980130019028
:10A2B000E1E7FFE704B080BD80B582B08DF807000C
:10A2C00000208DF80600FFE742F20000C4F2010012
:10A2D000FFF7DCF801280FD0FFE742F20000C4F2DC
:10A2E000010000688DF805009DF8050000F0B8F841
:10A2F00001208DF80600E7E79DF80700012812D13C
:10A30000FFE745F62430C2F200000068B0F5FA6FAE
:10A3100008D8FFE745F62431C2F200010868013091
:10A320000860FFE706E045F62431C2F20001002094
:10A330000860FFE79DF80600D0B1FFE79DF8070031
:10A3400018B9FFE700F0E6FA11E045F26C40C2F2FE
:10A350000000007818B9FFE700F0DCFA06E045F6E7
:10A360002031C2F2000101200870FFE7FFE71CE086
:10A3700045F62030C2F200000078A8B1FFE745F6AC
:10A380002430C2F200000068142803D3FFE700F075
:10A39000ABFA02E000F0BEFAFFE745F62031C2F268
:10A3A000000100200870FFE7FFE79DF8070045F275
:10A3B0006C41C2F20001087002B080BD80B586B069
:10A3C00045F66831C2F200018A680869801A059072
:10A3D0004020ADF81200CB6801F114000022C254F5
:10A3E00049680844BDF8141045F62832C2F200024C
:10A3F0000DF11203FFF796FB0190019818BBFFE7E0
:10A4000045F62830C2F20000FDF74CFE0390BDF87F
:10A4100012000399884204DDFFE70398ADF81200AB
:10A42000FFE7BDF8121045F62830C2F20000FFF732
:10A4300017FF45F66831C2F200010020C8600861CC
:10A44000486088600AE04CF66D50C0F20220F4F7D4
:10A4500013FEFFF73BFE00F05DFAFFE706B080BD9C
:10A4600081B08DF8030045F66830C2F20000006943
:10A470006FF08051884211D3FFE745F66830C2F291
:10A48000000081680069884208D1FFE745F668311D
:10A49000C2F20001002008618860FFE79DF8031008
:10A4A00045F66830C2F20000C26802441175C16806
:10A4B0000131C160016901310161C068B0F5487FB7
:10A4C00009DBFFE745F66831C2F20001C868A0F574
:10A4D0004870C860FFE701B07047000080B584B0E5
:10A4E0008DF80F00ADF80C100292ADF8063002980E
:10A4F0000078A02815D1FFE7029800F0D5F9807800
:10A5000008B1FFE70DE04CF64E60C0F20220F4F710
:10A51000B3FD4CF65C60C0F202200921FFF7A0FEFB
:10A52000FFE704B080BD000081B000900098807803
:10A5300001B0704780B545F27450C2F20000007857
:10A54000FF2821D0FFE7DBF75DFE45F6AC60C2F2E5
:10A550000000006801280FD1FFE745F6AC61C2F2A8
:10A5600000010020086045F27451C2F20001FF2092
:10A570000870FFF797FA06E045F6AC61C2F20001F9
:10A5800001200860FFE7FFE780BD000080B582B0D2
:10A59000019000910198016842684CF63B40C0F27E
:10A5A0000220F4F769FDFFE7FEE7000070B588B010
:10A5B00007900691DDF81CC0CDF814C0DCF8181027
:10A5C000DCF81420DCF81C30DCF80000DCF804E0D7
:10A5D000DCF80840DCF80C50DCF81060EC46CCF8F5
:10A5E0001060CCF80C50CCF80840CCF804E0CCF863
:10A5F00000004CF6C330C0F20220F4F73DFDFFE747
:10A60000FEE7000080B582B00190009101994CF600
:10A610002F40C0F20220F4F72FFDFFE7FEE7000015
:10A6200080B582B00190FFE745F6D460C2F2000029
:10A6300000684FF0FF31FAF781FB00900098012885
:10A6400001D0FFE7F0E745F66830C2F2000000688D
:10A6500050B9FFE745F2E870C2F20000006818B98F
:10A66000FFE7FFF7FFFCDFE745F66830C2F20000C6
:10A670000078800700280BD5FFE7FFF79FFE45F61F
:10A680006831C2F20001086820F002000860FFE7AC
:10A6900045F66830C2F200000078400700280ED569
:10A6A000FFE7C22000221146DAF716FF45F66831AF
:10A6B000C2F20001086820F004000860FFE745F2DC
:10A6C000E870C2F200000078000700280BD5FFE711
:10A6D000FFF788FD45F2E871C2F20001086820F03A
:10A6E00008000860FFE79FE780B582B001909320E3
:10A6F00000221146DAF7F0FE02B080BD80B596B0B8
:10A70000159014911392FFE71398012831DBFFE7AE
:10A7100000200290FFE7139900200129019007DB38
:10A72000FFE702990020102938BF01200190FFE7C0
:10A730000198C00788B1FFE7149800F067FC029AFF
:10A7400003A941F8220002980130029013980138C1
:10A750001390149804301490DDE7159802998A003C
:10A7600003A901F087FB0299159800EB8100159071
:10A77000CAE716B080BD000083B00290ADF80610A5
:10A7800003B0704780B582B00190FEF71DFE00F067
:10A79000FDF902B080BD000080B582B001904FF09D
:10A7A000FF30009001986946042200F021FC02B0BD
:10A7B00080BD000080B582B000F00EF830B9FFE730
:10A7C00041F27800C0F20020019002E000200190E8
:10A7D000FFE7019802B080BD80B584B000F07AF93F
:10A7E00018B1FFE70020039041E04FF4805000F0E3
:10A7F0000DFC0290029844F24371C4F64E11884257
:10A8000003D0FFE70120039031E041F2040000F0A3
:10A81000FDFB0290029845F25301C4F649018842BB
:10A8200003D0FFE70220039021E041F20000C0F2D4
:10A8300000200190FFF7B0FF01984FF480511E22D5
:10A84000FFF75CFF41F27800C0F200204FF488511E
:10A850002422FFF753FF41F20810C0F200204FF40A
:10A8600000515022FFF74AFF00200390FFE70398B2
:10A8700004B080BD81B000900098023001B07047F4
:10A8800081B000900098023001B0704783B0029010
:10A89000ADF806100092BDF8060003380099088054
:10A8A0000298013003B0704781B0009000980230E8
:10A8B00001B0704781B000900098023001B070473D
:10A8C00080B582B001900198F8F7FEFF30B1FFE744
:10A8D00001980021DAF728FC009002E000200090A7
:10A8E000FFE7009802B080BD80B582B045F66831C0
:10A8F000C2F20001086840F00200086000200190E8
:10A9000045F6D460C2F20000006801A9F9F7B0FF73
:10A9100002B080BD80B582B045F66831C2F2000158
:10A92000086840F0040008600020019045F6D460FB
:10A93000C2F20000006801A9F9F79AFF02B080BDD9
:10A9400080B582B045F2E871C2F20001086840F0BB
:10A95000080008600020019045F6D460C2F20000B3
:10A96000006801A9F9F784FF02B080BD81B00090B2
:10A970000098807801B0704781B00090009800780E
:10A9800001B0704781B000900098043001B070476A
:10A9900080B582B001900198B0F8010045F2705185
:10A9A000C2F20001088045F6A060C2F20000006813
:10A9B0006A464FF0FF311160032100231A46FAF76F
:10A9C000A5FD019800F022FF02B080BD80B582B0E5
:10A9D000019045F27051C2F200014FF6FF700880FD
:10A9E000FFF760F802B080BD81B000900098B0F829
:10A9F000010045F27251C2F20001088001B07047B7
:10AA000080B582B0019045F27251C2F200014FF65A
:10AA1000FF70088000F058FC4CF60C02C0F20222D5
:10AA200001210846DBF742FF02B080BD80B584B04B
:10AA30008DF80F009DF80F0045F27451C2F200012D
:10AA400008709DF80F00FF2801D1FFE740E09DF856
:10AA50000F104CF65040C0F20220F4F70DFB9DF8A9
:10AA60000F00FE280ED1FFE74CF64631C0F202215E
:10AA70006846416001220260002310461146DBF760
:10AA800009FC12E04CF64631C0F2022168464160F2
:10AA90000122026045F2C840C2F2000000F19B03AF
:10AAA00000201146DBF7F6FBFFE745F6A060C2F297
:10AAB000000000680290FAF7CBFA024602986B4653
:10AAC0004FF0FF31196002210023FAF71FFDFFE765
:10AAD00004B080BD82B041F20000C0F200200090BE
:10AAE0000098006844F24371C4F64E1188420CD1BC
:10AAF000FFE70098406845F25301C4F649018842D7
:10AB000003D1FFE70120019002E000200190FFE760
:10AB1000019802B07047000080B584B04AF2857099
:10AB2000C0F20220694608604CF60260C0F20220C2
:10AB30004FF4A0410122029200230393FAF77AFC1A
:10AB400003990246029845F6A463C2F200031A6014
:10AB50000322F9F7D7FC039B45F6C061C2F200015E
:10AB6000086045F6C460C2F20000694648600520EE
:10AB700008604AF6A940C0F202204CF61261C0F209
:10AB800002218022FAF7EAF904B080BD80B582B0D4
:10AB900045F6AA60C2F20000019001884CF6ED5023
:10ABA000C0F20220F4F768FA0198008818B1FFE7B4
:10ABB00000F052F800E0FFE702B080BD80B582B03F
:10ABC0008DF807000020009045F27550C2F2000099
:10ABD00000789DF80710884213D0FFE745F6AA6178
:10ABE000C2F2000108889DF8073001229A40104304
:10ABF00008809DF8070045F27551C2F20001087007
:10AC0000FFE745F6A860C2F20000007808B1FFE750
:10AC10001FE045F6A861C2F2000101200870FEF7AE
:10AC2000CBFC45F6C060C2F2000000686946F9F747
:10AC30001FFE009860B1FFE74EF60451CEF200010E
:10AC40004FF080500860BFF34F8FBFF36F8FFFE767
:10AC5000FFE702B080BD000080B582B045F6C86055
:10AC6000C2F20000007808B1FFE71AE045F6A460E0
:10AC7000C2F2000000680190FAF7F0F9024601986C
:10AC80006B460021196045F6DC63C2F20003062121
:10AC9000FAF73CFC45F6C861C2F2000101200870D9
:10ACA000FFE702B080BD000080B582B00190FFE7F1
:10ACB00045F6C060C2F2000000684FF0FF31FAF7BD
:10ACC0003DF800900098012801D0FFE7F0E74CF62E
:10ACD000E050C0F20220F4F7CFF901200021F4F790
:10ACE000B7F8FFF7B9FFFEF73BFCE1E780B582B0AC
:10ACF00001900120FFF7E0FA02B080BD84B08DF82A
:10AD00000E008DF80D109DF80D000146029120B146
:10AD1000FFE7029801281CD02FE09DF80E000146A5
:10AD20000191012808D0FFE70198022808D0FFE729
:10AD30000198032808D00BE005208DF80F0020E0D3
:10AD400006208DF80F001CE007208DF80F0018E09A
:10AD500013E09DF80E0001460091012804D0FFE7A2
:10AD60000098022804D007E003208DF80F0008E0C7
:10AD700002208DF80F0004E0FFE700208DF80F009F
:10AD8000FFE79DF80F0004B07047000088B0069000
:10AD90008DF817100698C11700EB5170C010049081
:10ADA000069800F007018020C84003900020029020
:10ADB0009DF81700013801909DF817004CF6280205
:10ADC000C0F20222132110FB012000900098049988
:10ADD000405C0399084204D1FFE74FF0FF30079031
:10ADE00020E0FFE70198002819D4FFE701984CF60E
:10ADF0002802C0F20222132100FB012000900098DB
:10AE00000499405C0399084204D0FFE7029801309E
:10AE10000290FFE7FFE7019801380190E2E702980E
:10AE20000790FFE7079808B07047000080B582B030
:10AE300001904CF6E640C0F20220F4F71DF9002024
:10AE40000090FFE7009805280EDCFFE701980099C5
:10AE5000415C4CF6F240C0F20220F4F70DF9FFE736
:10AE6000009801300090EDE74CF6C030C0F20220AF
:10AE7000F4F702F902B080BD10B584B045F2C840C5
:10AE8000C2F2000090F89900F0B9FFE745F2C84C13
:10AE9000C2F2000C9CF89B109CF89C209CF89D3002
:10AEA0009CF89E009CF89FE09CF8A040EC46CCF8F3
:10AEB0000840CCF804E0CCF800004CF6F840C0F2B2
:10AEC0000220F4F7D9F834E045F2C840C2F200009D
:10AED00090F8990001281ED1FFE745F2C84CC2F254
:10AEE000000C9CF824109CF825209CF826309CF837
:10AEF00027009CF828E09CF82940EC46CCF8084054
:10AF0000CCF804E0CCF800004CF63450C0F202203B
:10AF1000F4F7B2F80CE045F2C840C2F2000090F835
:10AF200099104CF6CE40C0F20220F4F7A5F8FFE7E6
:10AF3000FFE704B010BD000080B586B00590049115
:10AF4000ADF80E2005980290912804D0FFE70298F2
:10AF5000932834D048E0F3F745FF07207821F3F732
:10AF600077FF45F2C840C2F2000090F8990048B956
:10AF7000FFE7FEF797FD4CF68040C0F20220F4F7A1
:10AF80007BF818E045F2C840C2F2000090F8990042
:10AF900001280FD1FFE74CF60C02C0F2022201217A
:10AFA0000846DBF783FC4CF69640C0F20220F4F72B
:10AFB00063F8FFE7FFE70320FFF700FE15E045F227
:10AFC0007450C2F20000019001784CF6B740C0F214
:10AFD0000220F4F751F801980078FF2803D0FFE72A
:10AFE000FFF7A8FAFFE700E0FFE706B080BD00002A
:10AFF00080B584B003900291019203980299019A5E
:10B0000043F69B33984704B080BD000080B596B0EE
:10B0100015904CF65831C0F2022102A80190482246
:10B02000FDF722F840F2C97080470199159800F0A9
:10B03000EDF8149040F60D008047149816B080BDCE
:10B0400080B58AB0099008910792069303208DF885
:10B05000040000218DF8051001208DF806008DF800
:10B0600007108DF808008DF809008DF80A008DF89A
:10B070000B108DF80C101C218DF80D108DF80E00A2
:10B0800008980490079805900998069A01A9FEF778
:10B090001BFA0AB080BD000080B582B04FF40810E2
:10B0A000FDF7CAFE09201621FDF7E6FD08200090F5
:10B0B0000021FDF7E1FD009901200190FDF7B2FDAF
:10B0C00000980199FDF71EFD42F20000C4F2010054
:10B0D00043F20061C0F26E114FF4E1321023FFF72A
:10B0E000AFFFFEF7CBFA02B080BD000080B58CB098
:10B0F0000020029045F27850C2F20000006800681B
:10B1000045F2C841C2F20001096888421ED1FFE73A
:10B1100045F27850C2F200000068D0F8A40045F271
:10B12000C841C2F20001D1F8A41088420ED1FFE755
:10B1300045F27850C2F200000068406845F2C8410C
:10B14000C2F200014968884240D0FFE7F3F7A8FF48
:10B150000B900B9845F2C841C2F20001019181F8B1
:10B1600098000B9881F829000B98000A0B900B9817
:10B1700081F828000B98000A0B900B9881F82700A3
:10B180000B98000A0B900B9881F82600712081F82B
:10B190002500FB2081F824000B9A4CF6D351C0F215
:10B1A000022103A8009000F0A9FE0099019839300F
:10B1B0000E22FCF76BFF009901980E300F22FCF76E
:10B1C00065FF00F015F8012002900EE045F278507E
:10B1D000C2F20000016845F2C840C2F20000A82295
:10B1E000FCF742FF02200290FFE702980CB080BDFE
:10B1F00080B545F27850C2F20000006845F2C841BF
:10B20000C2F20001A822FFF7F3FE80BD01F10101A7
:10B210000847000083B002908DF807108DF80620D3
:10B220009DF806100120884000900298006800995F
:10B2300088439DF807109DF8062091400843029925
:10B24000086003B07047000085B0049003918DF84A
:10B250000B208DF80A309DF80B1001208840013832
:10B26000019001989DF80A108840C043009004980E
:10B270000068009908400399019A11409DF80A203E
:10B28000914008430499086005B0704784B003906A
:10B2900002918DF807208DF806309DF807100120E7
:10B2A000884001389DF80610884000900398006897
:10B2B0000099884302999DF806209140084303991C
:10B2C000086004B07047000080B58EB045F2C840F9
:10B2D000C2F2000000F1240100200D90DBF7BEF95E
:10B2E0000D986A469062506201210C911162D06102
:10B2F0009161642353611061D060906051600721B7
:10B30000116013214FF448731A46DBF70DFB0D98BB
:10B310004CF60002C0F202220B21DBF7BBFA0C99BB
:10B320000D984CF6A032C0F20222DBF7C5FB0EB03E
:10B3300080BD000080B582B0092041F29411F3F77E
:10B3400087FD0E204FF42F71F3F782FD002001904E
:10B350000A21E0F7F1FC01986946086001204621C6
:10B3600005220223FDF74EFF01980321FDF784FF1C
:10B3700002B080BD80B586B0059004914CF6A8401F
:10B38000C0F20220F3F778FE4AF2E960C0F2022030
:10B39000694608604CF6CC40C0F202204FF4A05140
:10B3A000012200230393FAF745F845F6A061C2F2A3
:10B3B0000001086049F6DD10C0F2022049F63D2187
:10B3C000C0F20221D9F7D0FC45F6B060C2F200000D
:10B3D0004BF69141C0F2022102914160DDF7AAFFD4
:10B3E0000298D9F76BFD45F2F250C2F200004FF41B
:10B3F000FA71FEF7BDFA00F067FBFEF749F9039812
:10B4000006B080BD85B08DF80F008DF80E109DF848
:10B410000F002A2804DBFFE74FF0FF3004903EE0E6
:10B420009DF80F004CF62802C0F20222132110FBF7
:10B4300001200290002001909DF80E00013800903C
:10B4400002989DF80E10CA08805C01F00702802166
:10B45000D140084204D1FFE74FF0FF3004901EE0D6
:10B46000FFE70098002817D4FFE702980099CA1751
:10B4700001EB5272D210805C01F007028021D140B2
:10B48000084204D0FFE7019801300190FFE7FFE791
:10B49000009801380090E4E701980490FFE70498D1
:10B4A00005B0704780B5912000221146DAF714F8F4
:10B4B00080BD000080B584B084460698ADF80CC00D
:10B4C000ADF80A10ADF808200193ADF80200BDF800
:10B4D0000A0045F2E251C2F20001098888420FD108
:10B4E000FFE7019840B1FFE70199FF200870BDF820
:10B4F0000200ADF80E0026E00120ADF80E0022E0BB
:10B50000BDF80A0045F2E251C2F20001098801319A
:10B51000884213D1FFE7019860B1FFE745F6D86094
:10B52000C2F20000007801990870BDF80200ADF881
:10B530000E0008E00120ADF80E0004E04FF6FF70A9
:10B54000ADF80E00FFE7BDF90E0004B080BD0000AD
:10B5500080B584B084460798DDF818E0ADF80CC0DB
:10B56000ADF80A10ADF80820ADF80630ADF80400CB
:10B57000BDF80A0045F2E251C2F200010988884292
:10B580000CD1FFE70120FFF719FB0698BDF8041066
:10B59000FEF79EFC0020ADF80E0026E0BDF80A0084
:10B5A00045F2E251C2F2000109880131884217D107
:10B5B000FFE706980088012807D1FFE745F6D86124
:10B5C000C2F200010120087006E045F6D861C2F21F
:10B5D000000100200870FFE70020ADF80E0004E035
:10B5E0004FF6FF70ADF80E00FFE7BDF90E0004B096
:10B5F00080BD000080B588B08DF81F00ADF81C102C
:10B600000692ADF816300698007801460391A028FE
:10B610004AD0FFE70398A22873D1FFE70698FFF707
:10B620002FF9049004980A304CF61471C0F20221EC
:10B630001022FCF73EFDA0B9FFE70498811C45F2FB
:10B640007C50C2F20000029016301822FCF70CFD6C
:10B650000298018B4CF61660C0F20220F3F70CFD45
:10B6600021E004980A304CF60471C0F20221102245
:10B67000FCF71FFDA8B9FFE70498811C45F27C5038
:10B68000C2F20000019040301822FCF7EDFC019856
:10B69000B0F842104CF6AC60C0F20220F3F7ECFCBC
:10B6A00000E0FFE7FFE72DE00698FFF7FDF8807860
:10B6B00008B1FFE726E045F27C50C2F20000008BA3
:10B6C0004FF6FF7188420ED1FFE74CF66560C0F27D
:10B6D0000220F3F7D1FC45F27C50C2F20000008852
:10B6E000DAF7A2FD0CE045F27C52C2F2000232F819
:10B6F000161B4BF23970C0F20220DBF782FDFFE728
:10B7000000E0FFE708B080BD80B582B0FF20ADF853
:10B710000600FFE7BDF80600FEF76AFCADF804007E
:10B72000BDF8040010B9FFE702B080BDBDF8040009
:10B73000FEF73CFCEEE7000080B588B08DF81F00F6
:10B74000ADF81C100692ADF8163006980078014648
:10B750000391A02826D0FFE70398A42853D1FFE740
:10B760000698FFF787F8049004980430FFF7A8F8CC
:10B7700042F60211884214D1FFE70498811C45F279
:10B780007C50C2F2000002902E301222FCF76CFCBA
:10B790000298C18D4CF69C60C0F20220F3F76CFC5D
:10B7A000FFE731E00698FFF77FF8807808B1FFE700
:10B7B0002AE045F27C50C2F20000C08D4FF6FF71C6
:10B7C00088421FD0FFE745F27C50C2F20000019092
:10B7D0000288038B58304BF6CD11C0F20221DBF703
:10B7E0008CFE01980188C28D45F26E40C2F20000C5
:10B7F0006B4618604AF2DD40C0F202200223DCF7FB
:10B80000F1F9FFE700E0FFE708B080BD80B582B046
:10B8100001900198B0F8010045F27C51C2F200019C
:10B8200008800198B0F801104BF61120C0F20220F8
:10B830004CF62472C0F20222DBF787FD02B080BD15
:10B8400081B000900098B0F8010045F2E651C2F2D4
:10B850000001088001B0704781B0009045F2E651C8
:10B86000C2F200014FF6FF70088045F27C51C2F22F
:10B870000001088045F6D861C2F20001002008707E
:10B8800001B0704780B584B00020ADF80E00029082
:10B8900045F2E650C2F2000000880DF10E01DBF720
:10B8A000BFFDBDF80E000338ADF80E00FFE7BDF890
:10B8B0000E00FEF79DFBADF80C00BDF80C0008B9BA
:10B8C000FFE731E0FEF7C6FB029045F2E650C2F218
:10B8D0000000008845F27C51C2F20001098BBDF8DE
:10B8E0000C20029BDCF72BFA0190019898B9FFE736
:10B8F000BDF80C2045F6B861C2F20001086810449A
:10B9000008600298BDF80C10FEF736FFBDF80C0079
:10B91000FEF74CFB07E045F2E650C2F2000000885B
:10B92000D8F795FD00E0C2E704B080BD80B584B0D3
:10B930000020ADF80E00029045F2E650C2F2000081
:10B940000088D9F793F9ADF80E00BDF80E00033862
:10B95000ADF80E00FFE7BDF80E00FEF749FBADF8AD
:10B960000C00BDF80C0008B9FFE72DE045F2E650E9
:10B97000C2F200000088D9F76BF940B9FFE745F241
:10B98000E650C2F200000088D9F79EFA1CE0FEF7EC
:10B9900061FB029045F2E650C2F20000008845F2D9
:10B9A000E251C2F200010988029ABDF80C30D9F7C1
:10B9B000F9F90190019828B9FFE7BDF80C00FEF7EE
:10B9C000F5FA00E0C7E7C6E704B080BD80B586B0F1
:10B9D0008DF81700ADF814100492ADF80E300498ED
:10B9E0000078A72812D1FFE70498BDF80E100DF1DA
:10B9F0000602FEF74BFF02900120FFF7DFF80298E6
:10BA00000230BDF80610FEF763FAFFE706B080BD0E
:10BA100080B586B08DF81700ADF814100492ADF81B
:10BA20000E300498007801460291A0281BD0FFE751
:10BA30000298A12845D1FFE70498FEF73BFF811C3F
:10BA400045F27C50C2F20000019002301422FCF753
:10BA50000BFB0198418882884CF6BA60C0F2022044
:10BA6000F3F70AFB2EE00498FEF71EFF807808B17A
:10BA7000FFE727E045F27C50C2F2000040884FF615
:10BA8000FF7188420ED0FFE745F27C50C2F2000001
:10BA90000188428883884BF2F550C0F20220DBF720
:10BAA00020FC0DE04CF68460C0F20220F3F7E4FACB
:10BAB00045F27C50C2F200000088DAF7B5FBFFE7E0
:10BAC00000E0FFE706B080BD80B584B04CF624707E
:10BAD000C0F20220FDF716FF4CF61470C0F20220EF
:10BAE0004FF48B710091002301931A46FDF7AEFECF
:10BAF0000099019B45F2E252C2F2000202921080CC
:10BB00004CF60470C0F202201A46FDF79FFE45F283
:10BB1000E051C2F20001039108804CF6F460C0F2DB
:10BB2000022045F2E452C2F2000202210123FDF795
:10BB30008DFE02990398098802884CF62960C0F2AC
:10BB40000220F3F799FA04B080BD000080B584B0FC
:10BB500003900291ADF8062003980090C12804D00C
:10BB6000FFE70098C22801D026E026E045F6D8601D
:10BB7000C2F20000007818B1FFE7FFF7D7FE1AE025
:10BB800045F27C50C2F2000000884FF6FF718842F7
:10BB90000DD0FFE745F27C50C2F20000008B4FF65B
:10BBA000FF71884203D0FFE7FFF76CFE02E0FFF76A
:10BBB000ABFDFFE7FFE700E0FFE704B080BD00005A
:10BBC00080B584B045F6D060C2F20000006801285C
:10BBD0001AD0FFE745F6CC60C2F200000068029080
:10BBE000F9F736FA024602986B464FF0FF311960BA
:10BBF000012103910023F9F789FC039845F6D061F0
:10BC0000C2F200010860FFE704B080BD40F260119D
:10BC1000C4F21001C820C4F642200860704700003A
:10BC200080B584B003900291ADF806200398902867
:10BC30000BD3FFE70398942807D8FFE703980299EE
:10BC4000BDF80620FFF778F920E00398A0280BD371
:10BC5000FFE70398A22807D8FFE703980299BDF8E9
:10BC60000620FDF7CBFB10E00398C0280BD3FFE7BD
:10BC70000398C42807D8FFE703980299BDF8062067
:10BC8000FFF764FF00E0FFE7FFE7FFE704B080BDD8
:10BC900080B588B08DF81F00ADF81C100692ADF885
:10BCA00016300698FEF768FE8DF815009DF81F0007
:10BCB000042801D0FFE7DBE09DF815000146019163
:10BCC000052800F08A80FFE701983E283BD0FFE777
:10BCD000019860280FD0FFE70198782800F0B9801C
:10BCE000FFE70198B72800F0B180FFE70198FF282F
:10BCF00000F0B280BBE00698FEF716FC022801D0E7
:10BD0000FFE7B5E00C2040F2EE21C0F2E241F3F78C
:10BD10009FF8FFF7D9FA45F2C840C2F2000024307C
:10BD2000DAF740FF4CF61C03C0F202230120002189
:10BD30000222DAF76DFE4BF2A540C0F20220C821C4
:10BD4000F3F70EFA94E00698FEF710FE0A2842D1A7
:10BD5000FFE70698033003900398007818B1FFE7D7
:10BD6000FDF7A0FE38E04CF66540C0F20220F3F784
:10BD700083F903980530FFF759F80398B0F80100EC
:10BD8000DBF7B0FB0398B0F80100DAF7DBFBF3F761
:10BD90005DF80398C078012815D1FFE70398B0F843
:10BDA00001000090FDF7DEFD01460098D9F79AF8F2
:10BDB0000398B0F801000A210F22DFF7D3FF0398A0
:10BDC000FEF712FE03E00398FEF7E2FDFFE703989B
:10BDD000FFF736FD00E0FFE74AE0069802300290E8
:10BDE0004CF67140C0F20220F3F746F90298B0F821
:10BDF000010045F27051C2F200010988884204D165
:10BE0000FFE70298FEF7E2FD1CE00298B0F801009F
:10BE100045F27251C2F200010988884204D1FFE75D
:10BE20000298FEF7EDFD0CE045F27051C2F2000100
:10BE30004FF6FF70088045F27251C2F2000108808F
:10BE4000FFE7FFE70298FFF707FD11E0FFF76EFD40
:10BE50000EE0FFF717FD0BE00698FEF793FD049048
:10BE6000049A106851681289FFF7DAFE00E0FFE7D4
:10BE700008B080BD80B588B0069005910492069800
:10BE800020F0FF0000F580700390FFE7049850B3A6
:10BE9000FFE703980699401A029002980499884295
:10BEA00003D3FFE704980290FFE706980599029AEA
:10BEB00043F6FF4398470190019818B1FFE70198B6
:10BEC000079013E002990698084406900299059895
:10BED0000844059002990498401A0490039800F5CC
:10BEE00080700390D2E700200790FFE7079808B022
:10BEF00080BD47F2092CC2F2000C60470FB4084B1A
:10BF000010B504A902AA039800F0DEF8044602A9BD
:10BF1000002000F070FC204610BC5DF814FB00000F
:10BF2000F7C7020202E008C8121F08C1002AFAD1AE
:10BF300070477047002001E001C1121F002AFBD1A9
:10BF4000704700002DE9FF5F82B00021DDE9043079
:10BF5000020DDDF840B0034318D044F61050A2F2B1
:10BF6000FF3242431514119801281FD0A5EB0B0096
:10BF7000401C5FEA000A4FF000064E4FDFF8389190
:10BF8000B046504615D5CAF1000413E011980124BB
:10BF90004AA3012801D16FEA0B010298119AC0E966
:10BFA0000031C0E9024206B0BDE8F09FCBF10000CD
:10BFB000DFE704460021404A491842EB0450CDE92E
:10BFC000001012E0E00707D032463B4640464946A3
:10BFD000FCF757FA8046894632463B4610461946DA
:10BFE000FCF74FFA06460F466410002CEAD1DDE953
:10BFF0000401DDE90023BAF1000F06DAFCF741FA8B
:10C0000042464B46FCF73DFA05E0FCF706F942468E
:10C010004B46FCF702F904460E460022284BFCF77B
:10C02000BBFA03D84FF0FF30014607E00022254B52
:10C0300020463146FCF74AF8FCF795FA102409E04F
:10C04000002C0ADB0A220023FCF76CF9039B303238
:10C050001A55641E50EA0102F2D1641C039AC4F11D
:10C0600011031444119A012A03D0012208430DD16F
:10C070000AE0084304D000204FF0110B119072E742
:10C08000A3EB0B056D1E0DE05B4504DD4FF00002D8
:10C0900005F1010504E003DA4FF00002A5F1010506
:10C0A000002AECD002981199C0E90231C0E900459C
:10C0B00079E70000000014400000F03F300000006D
:10C0C0000000F0430000E03F2DE9FF4F95B09B4694
:10C0D0008946064600250FE2252877D10024274609
:10C0E000F84A0121059400E0044316F8013F203B83
:10C0F00001FA03F01042F7D130782A2811D06FF0FE
:10C100002F033078A0F13002092A16D8059A44F09E
:10C11000020402EB820203EB42021044761C0590FB
:10C12000EFE759F8042B0592002A03DA504244F451
:10C130000054059044F00204761C30782E2816D165
:10C1400016F8010F44F004042A280DD06FF02F02D6
:10C150003078A0F13003092B09D807EB870302EBF5
:10C160004303C718761CF3E759F8047B761C307834
:10C170006C280FD006DC4C2817D068280DD06A2810
:10C1800014D104E0742810D07A280FD10DE044F4C3
:10C1900000140AE044F4801401E044F4401472787E
:10C1A000824202D104F58014761C761C3078662811
:10C1B0000BD013DC582877D009DC002875D045282F
:10C1C000F6D04628F4D047281AD19DE118E063281C
:10C1D00035D0642879D0652812D195E1702873D0C4
:10C1E00008DC6728F1D069286FD06E280DD06F2841
:10C1F00006D1B5E073282CD0752875D0782874D076
:10C200005A46179990476D1C75E1C4F302500228F5
:10C2100009D003280DD0D9F8001004280DD00D60E6
:10C2200009F1040967E1D9F80010EA17C1E90052E1
:10C23000F6E7D9F800100D80F2E70D70F0E719F875
:10C24000041B8DF8001000208DF80100EA46012043
:10C2500003E059F804AB4FF0FF3061074FF00001E5
:10C2600002D40DE008F101018846B9420FDA804599
:10C27000F8DB1AF808100029F4D108E008F10101F0
:10C2800088468142FADB1AF808100029F6D1059891
:10C290005B46A0EB080721463846179A00F094FA4F
:10C2A000284400EB080507E04DE029E10DE01AF80D
:10C2B000010B5A4617999047B8F10108F7D25B462F
:10C2C00021463846179A13E142E00A220092C4F34D
:10C2D00002524FF0000A022A08D059F804CB032A70
:10C2E0004FEAEC710AD00DE029E02AE009F10701DC
:10C2F00021F00702F2E802C1914609E00FFA8CFC36
:10C300004FEAEC71042A03D14FFA8CFC4FEAEC712E
:10C31000002907DA0A460021DCF1000C61EB02017A
:10C320002D2202E0220504D52B228DF804200122C3
:10C3300003E0E20701D02022F7E7904659E00A2106
:10C3400002E010220DE010214FF0000A00910BE0F6
:10C3500010224FF0000A44F004040827009203E082
:10C3600008224FF0000A0092C4F30252022A05D0BC
:10C3700059F804CB0021032A08D009E009F107018C
:10C3800021F00702F2E802C1914605E01FFA8CFC99
:10C39000042A01D10CF0FF0C4FF00008220728D529
:10C3A000702806D0009B83F0100353EA0A0305D0DF
:10C3B0000EE040228DF80420012208E05CEA010230
:10C3C00006D030228DF804208DF805000222904618
:10C3D000009B83F0080353EA0A030AD15CEA0102D6
:10C3E00001D1620705D530228DF804204FF00108F5
:10C3F0007F1E582804D034A003900EA802900DE0B0
:10C4000036A0F9E753466046009AFBF78BFF844657
:10C410000398825C0298401E029002705CEA010060
:10C42000F0D1029806A9081A00F1200A600702D587
:10C4300024F4803400E00127574502DDA7EB0A0011
:10C4400000E0002000EB0A01009005984144401AEA
:10C450000590E00306D45B462146179A059800F044
:10C46000B3F90544002706E001A85A46C05D1799B4
:10C4700090476D1C7F1C4745F6DBE0030CD55B46FF
:10C480002146179A059800F09FF9054404E03020F2
:10C490005A46179990476D1C0099481E0090002934
:10C4A000F5DC08E0029802995A460078491C02918E
:10C4B000179990476D1CBAF10001AAF1010AF1DC4D
:10C4C00065E1000009280100303132333435363758
:10C4D00038396162636465660000000030313233D0
:10C4E0003435363738394142434445460000000070
:10C4F00000F058F90544761C307800287FF4ECAD44
:10C5000019B02846BDE8F08F620700D4062709F16C
:10C51000070222F0070CFCE80223E14603F0004882
:10C520005FEA080C02D00FF2702C0DE05FEA045CA9
:10C5300002D50FF2682C07E05FEAC47C02D00FF24C
:10C54000602C01E0AFF2700C4FF0FF3823F0004395
:10C55000CDF850C065280CD006DC452809D0462807
:10C560001DD047283DD13DE0662818D067287ED1F0
:10C5700038E00021112F01DB112000E0781CCDE90B
:10C58000000106A90EA8FFF7DDFCDDE90F010E9AF8
:10C5900003910021009207F1010A04914DE04FF050
:10C5A00000400097CDE9011006A90EA8FFF7CAFCCC
:10C5B000DDE90F0203920E9B11990022DDF80CA019
:10C5C0000093049211B9791C00EB010AB7EB0A0041
:10C5D00004D4C0F1FF3007F1010A0490AAEB070070
:10C5E000019044E0012F00DA01270021112F01DD25
:10C5F000112000E03846CDE9000106A90EA8FFF79A
:10C60000A1FCDDE90F010E9A039100210491009233
:10C61000BA4621070CD40399514500DA8A46BAF18B
:10C62000010F05DD009AAAF10101515C302908D003
:10C63000B84202DA10F1040F06DA0121CDE9011047
:10C6400015E0AAF10101E9E7002805DC049901449D
:10C650000491AAEB000102E0411C514500DD8A462D
:10C660000499401A401C01904FF0004002902007AE
:10C6700004D40198504501DBCDF8048000208DF8EA
:10C680004F0002980DF14F07B0F1004F25D02B203D
:10C690000E9002984FF0020800280CDA40420290F7
:10C6A0002D200E9007E00A210298FBF725FE30317D
:10C6B000029007F8011DB8F10001A8F10108F2DCB1
:10C6C00002980028EFD1791E0E980870307800F09B
:10C6D000200040F0450007F8020D12A8C01B00F131
:10C6E00007081498007800B1012000EB0A010198B6
:10C6F00001EBE07105984144401A401E0590E003AB
:10C7000006D45B462146179A059800F05DF805446B
:10C710001498007818B15A46179990476D1CE00399
:10C7200024D55B462146179A059800F04DF805443C
:10C730001CE00498002807DBDDE90301884203DDE3
:10C740000098405C179901E0179930205A469047AD
:10C75000049805F10105401C04900198401E0190C9
:10C7600004D12E205A46179990476D1CBAF100014A
:10C77000AAF1010ADDDC05E017F8010B5A4617990A
:10C7800090476D1CB8F10001A8F10108F4DC5B468C
:10C790002146179A0598ABE62D0000002B000000FB
:10C7A000200000002DE9F041044600251E461746F2
:10C7B000880404D405E039462020B0476D1C641E6F
:10C7C000F9D52846BDE8F0812DE9F0410446002561
:10C7D0001E469046C80301D5302700E02027880474
:10C7E00004D505E041463846B0476D1C641EF9D5B6
:10C7F0002846BDE8F0810A68531C0B601070704732
:10C80000020106070941545F494E4700000000003D
:10C810000000000041542B00385400200100C800E3
:10C820009600000000000000FFFFFFFAAAAA48C01F
:10C8300000020FFFFFFF00000387E0FFFFFFF55539
:10C840005524A000010FFFFFFE800003A7E0FFFFBB
:10C85000FFFAAAA8909000008FFFFFFE4000039708
:10C86000E0FFFFFFF55556488800004FFFFFFE2010
:10C870000003C7E0FFFFFFFAAAA9268400002FFFEC
:10C88000FFFE10000387E0FFFFFFF5555492820082
:10C89000001FFFFFFE0800038FE0FFFFFFFAAAAAB8
:10C8A0004A8100020FFFFFFE04000387E0FFFFFF45
:10C8B000F55555268080010FFFFFFE020003A7E01B
:10C8C000FFFFFFFAAAA8928040008FFFFFFE010041
:10C8D0000397E0FFFFFFF555564A8020004FFFFF0A
:10C8E000FE008003C7E0FFFFFFFAAAA92680100020
:10C8F0002FFFFFFE00400387E0FFFFFFF555549137
:10C900008008001FFFFFFE0020038FE0FFFFFFFAFB
:10C91000AAAA498004000FFFFFFE00100387E0FF72
:10C92000FFFFF55555258002000FFFFFFE000803AD
:10C9300087E0FFFFFFFAAAA8918001000FFFFFFE2A
:10C9400000040387E0FFFFFFF55556498000800F84
:10C95000FFFFFE00021387E0FFFFFFFAAAA9258070
:10C9600000400FFFFFFE00010B87E0FFFFFFF555C2
:10C9700054918000240FFFFFFE00008787E0C8006D
:10C9800000000000000000000100000000000000A6
:10C9900000D00000000000000000000200000000C5
:10C9A00000000000C4000000000000000000008043
:10C9B00000000000000000FFFFFFFAAAAA48800064
:10C9C000100FFFFFFE00004387E0FFFFFFF5555506
:10C9D000248000080FFFFFFE00002387E0C0000056
:10C9E0000000000040000000000001000000000006
:10C9F000C0000000000000200000000000008000D7
:10CA0000000000C000000000000010000000000056
:10CA1000004000000000C200000000000000000014
:10CA2000004000000000000000C100000000000005
:10CA3000000000002000000000000000C080000096
:10CA4000000000000000001000000000000000C016
:10CA500000000000000008000000000000200000AE
:10CA60000000C00000000000000400000000000002
:10CA70001000000000FFFFFFFAAAA8908200000F3C
:10CA8000FFFFFE08000387E0C00000000000000177
:10CA90000000000000000400000000C000000000D2
:10CAA0000000008000000000000200000000FFFF06
:10CAB000FFF555564B8040000FFFFFFE0100038736
:10CAC000E0FFFFFFFAAAA9278020000FFFFFFE006A
:10CAD000800387E0C000000000000000100000009C
:10CAE00000000040000000C000000000000000083E
:10CAF00000000000000020000000C0000000000056
:10CB000000000400000000000010000000C0000051
:10CB1000000000000002000000000000080000000B
:10CB2000C000000000000000010000000000000440
:10CB3000000000C0000000000000000080000000B5
:10CB400000000200000001006000600018001800F2
:10CB5000000090016000600080B582B00190142157
:10CB6000C4F215010868022262F3524008600421F1
:10CB7000C4F215010868042262F3102008600198CD
:10CB8000000248300021C4F21501086040F66D3003
:10CB900080471020C4F21500006802B080BD00007C
:10CBA000006D61696E2025640D0A005B776B5D3A4C
:10CBB000206770696F3A30782530387825303878BA
:10CBC0000D0A00484152444641554C543A0A5043DC
:10CBD000203A203078253038580A4C52203A2030FC
:10CBE00078253038580A5053523A2030782530385A
:10CBF000580A5230203A203078253038580A5231BD
:10CC0000203A203078253038580A5232203A2030E5
:10CC100078253038580A5033203A2030782530387B
:10CC2000580A5231323A203078253038580A005BA1
:10CC30004F4F4D5D20402025640A005B4153534512
:10CC40005254494F4E5D20402025733A25640A0016
:10CC50005B62745D3A20696E6974696174696E67BC
:10CC600025640D0A005B62745D3A20636F6E0D0AE5
:10CC7000005B62745D3A20646973636F6E0D0A0035
:10CC80005B62745D3A20737461727420636F6E6EC0
:10CC90006563740D0A005B62745D3A20737461729F
:10CCA00074206164760D0A0073657475702070726B
:10CCB0006F66696C650A00696E69746961746520E4
:10CCC00074696D656F75742025780A0061005B6971
:10CCD0006E666F5D3A2064617461206572726F7276
:10CCE0003A25640D0A005B6170705D3A20616464EE
:10CCF00072002025303278005B696E666F5D3A20E5
:10CD000069276D206D61737465722C207065657282
:10CD100020616464723A253032785F253032785F62
:10CD2000253032785F253032785F253032785F25C4
:10CD3000303278005B696E666F5D3A2069276D203E
:10CD4000736C6176652C206D7920616464723A257C
:10CD50003032785F253032785F253032785F253089
:10CD600032785F253032785F25303278005B636F30
:10CD70006D5D3A206461746120706173730D0A0007
:10CD80005B626C655F6275665D3A205B25645D2061
:10CD90005B25645D205B25645D205B25645D005B35
:10CDA000636F6D5F6275665D3A205B25645D205B35
:10CDB00025645D205B25645D205B25645D00620069
:10CDC0006D61696E5F636D645F646174615F7461FE
:10CDD000736B004C56532D4C7573682530337500BA
:10CDE0005B6C705D3A20657869740D0A005B6C704D
:10CDF0005D3A20776F726B696E6720307825780D09
:10CE00000A00656E746572206C6F7720706F7765AD
:10CE100072006B65790077726974652068616E6471
:10CE20006C653A2025640D0A005B73657276696350
:10CE3000655D3A207468726F7567687075742077E5
:10CE4000723A25642C20696F3A25640D0A005B74E0
:10CE500070745D3A20636D706C0D0A002B434F4E69
:10CE60004E4543540063686172616374657269730F
:10CE7000746963206E6F7420666F756E642C206415
:10CE80006973630073657276696365206E6F7420E1
:10CE9000666F756E642C2064697363006F757470BF
:10CEA000757420646573633A20256400696F206897
:10CEB000616E646C653A20256400736572766963FF
:10CEC000652068616E646C653A20256420256400E5
:10CED0002B4F4B002B4C414444523D25303278259A
:10CEE0003032782530327825303278253032782546
:10CEF000303278000000FFE3000010008000008066
:10CF00005F9B34FB0000FFE2000010008000008007
:10CF10005F9B34FB0000FFE10000100080000080F8
:10CF20005F9B34FB0000FFE00000100080000080E9
:10CF30005F9B34FB68CF020238540020B001000030
:10CF4000E885020238D0020200700020E4050000EB
:10CF500024BF020238D00202E8550020FC0800007D
:10CF600034BF02020000000075434F4E417B0400B5
:10CF7000719D0202524F4C456C0400BD9E02024C52
:10CF800041444452480500E19B020203590100015B
:10CF900000017000205575B3020255ED7300205555
:10CFA0006974002055ADA50202D58DA50202051DAC
:10CFB00005A602024603025AA5A80813EFCD9A78E7
:10CFC0001803493AC20100F1F2280707074202EBB1
:10CFD0000201060303F1FF0F09496507FFAC0633A1
:10CFE000F40100291AF4010201060809574D3235EF
:10CFF000304C4311077941DC240EE5A9E093F3A3FB
:10D00000B50100406E001F05FFAC0634122F06CD9F
:10D01000A3010100CDA33AE6A7A500015B03025AD4
:10D02000A5FFFFFFFFFF0F05630402FFFF19FFFFCE
:10D03000FFFF9600FFFF000080B582B001900091D5
:10D04000FFE741F20000C4F2010000F0CEFA01282F
:10D0500001D1FFE7F5E70198017841F20000C4F241
:10D06000010000F0C7FA002002B080BD80B582B098
:10D070000190009101A80021FFF7DEFF019802B0A6
:10D0800080BD00BF81B08DF80300FFE741F21800BA
:10D09000C4F2010000684009C00708B1FFE7F5E7E6
:10D0A0009DF8030041F20001C4F20101086001B0E3
:10D0B000704700BF84B00290029800228260642012
:10D0C000C4F20000006802994A6008606020C4F25F
:10D0D00000000068000C0190029908684968084344
:10D0E000002854D1FFE70198002850D1FFE740F213
:10D0F0004010C4F2100000680190019800F0030095
:10D100000146009103283DD80099DFE801F00206AE
:10D11000120C00208DF80F0069E00299886840F039
:10D12000010088602FE00299886840F00100886063
:10D13000FFE7019880080190019800F00100029932
:10D1400000224A600860019800F00603029908680E
:10D150004A6840EA03104A600860019800F038030A
:10D16000029908684A6840EA83404A60086001986A
:10D1700000F0600302990A68486840EA53000A60B8
:10D18000486000E0FFE701208DF80F002FE00198D4
:10D1900000F03F0302990A68486818430A60486033
:10D1A0009DF804004006002806D5FFE7029988682C
:10D1B00040F004008860FFE79DF8040000060028A6
:10D1C00006D5FFE70299886840F001008860FFE714
:10D1D0009DF80500C00730B1FFE70299886840F06C
:10D1E00002008860FFE701208DF80F00FFE79DF83F
:10D1F0000F0004B0704700BF80B540F2A810C4F221
:10D2000010000121102200F001F880BD83B00290CF
:10D210008DF807108DF806209DF806100120884033
:10D22000009002980068009988439DF807109DF8C7
:10D230000620914008430299086003B0704700BF80
:10D2400080B586B00C20C4F2000002900121049148
:10D2500011220192FFF7DAFF04991420C4F20000B2
:10D2600003900422FFF7D2FF0298049A1146FFF7B9
:10D27000CDFF019A03980499FFF7C8FF029804991B
:10D280000622FFF7C3FF029804991522FFF7BEFF9D
:10D290000398049912220592FFF7B8FF02980499A7
:10D2A0001622FFF7B3FF03980499059AFFF7AEFF24
:10D2B00043F20060C0F26E104FF4612100F002F8FA
:10D2C00006B080BD80B588B00790069103208DF828
:10D2D000040000228DF8052001208DF806008DF84D
:10D2E00007208DF808008DF809008DF80A008DF8E8
:10D2F0000B208DF80C208DF80D008DF80E0007988E
:10D3000004900698059041F20000C4F2010001A9C2
:10D3100000F002F808B080BD80B584B0039002919F
:10D320000192039900200863039948640399886374
:10D330000399486003994862039988620399C86217
:10D340000398029AD168126900F032F8029890F8B6
:10D3500000C041788378C278802000EA411040EA1A
:10D360004C1040EA031040EAC20001F0030140EA19
:10D3700041000399C8620298B0F80900000400BA9D
:10D38000039948630198039988630299087991F891
:10D3900005C08B79CA79400240EA0C20184440EA63
:10D3A000C230097A40EA81300399086304B080BD35
:10D3B00086B00590049103920498C0000399B0FBD5
:10D3C000F1F002900298C009019001990298A0EB37
:10D3D000C110029002980130400800900198059910
:10D3E0004862BDF8060018B9FFE7019810B9FFE7D9
:10D3F000FFE7FEE701984FF6FF71884204D1FFE78F
:10D4000005990020886207E001990298401A02906D
:10D41000009805998862FFE70598C06A0599C86277
:10D4200006B0704780B58AB0099008910020079037
:10D4300006900590049004A8FFF73CFE8DF80F00BD
:10D44000FFF7FEFE0998007808B9FFE7FFE79DF8AF
:10D450000F0001281FD1FFE704980599084380B108
:10D46000FFE705980290049801900299019A4CF602
:10D47000AB30C0F2022000F0C2F8002000F0C4F887
:10D4800008E09DF818008007002801D5FFE700E0BC
:10D49000FFE7FFE700E0FFE701200AB080BD00BF23
:10D4A00080B584B00390029100F0B3F801200190A0
:10D4B00000F008F8019800F061F8FFF79DFE019870
:10D4C00004B080BD80B586B08DF817009DF81700B8
:10D4D00048B3FFE740F2A810C4F210000E21012269
:10D4E00000F06AF8FFE70A200490FFE70498411E65
:10D4F000049110B1FFE700BFF8E7FFE740F2A81082
:10D50000C4F210000F21012200F056F8FFE70A20B4
:10D510000390FFE70398411E039110B1FFE700BF9E
:10D52000F8E7FFE728E040F2A810C4F210000F214E
:10D53000002200F041F8FFE70A200290FFE702987E
:10D54000411E029110B1FFE700BFF8E7FFE740F28C
:10D55000A810C4F210000E21002200F02DF8FFE701
:10D560000A200190FFE70198411E019110B1FFE7E9
:10D5700000BFF8E7FFE7FFE706B080BD80B582B0E7
:10D580008DF807009DF8072042F21000C4F2100049
:10D59000072100F011F8FFE740F20010C4F210007C
:10D5A0000068C0F3C0409DF80710884201D0FFE733
:10D5B000F2E702B080BD00BF83B002908DF8071083
:10D5C0008DF806209DF807100120884000900298F1
:10D5D0000068009988439DF806109DF80720914047
:10D5E00008430299086003B0704749F2AD4CC0F29D
:10D5F000022C604749F2E93CC0F2022C60474FF22E
:10D60000790CC0F2012C60474AF6BD3CC0F2022CF6
:0CD61000604749F2ED5CC0F2022C60475C
:04000005020280096A
:00000001FF
