:020000040202F6
:10800000000000001D800202DFF80CD000F01AF81A
:10801000004800472D800202DC78002002B5EFF313
:10802000088181F30988054800470000044880471B
:10803000EFF3098181F3088802BD00004580020248
:1080400069950202064C074D06E0E06840F0010326
:1080500094E8070098471034AC42F6D3FFF7D8FFF6
:1080600044D3020294D3020240EA01039B0703D0E7
:1080700009E008C9121F08C0042AFAD203E011F867
:10808000013B00F8013B521EF9D2704710B504467F
:1080900004E00B7800F8013B03B1491C521EF8D2F2
:1080A000204610BD421C10F8011B0029FBD1801A8C
:1080B000704730B504460020034600E05B1C934245
:1080C00003D2E05CCD5C401BF8D030BD2DE9FE4F03
:1080D000804681EA0300C00F0C46009021F0004169
:1080E00023F00045B8EB0200A94105D240462146E5
:1080F00090461C460B46024623F00040104347D0F2
:10810000270DC7F30A00C3F30A510290401A0190E9
:1081100040286BDAC3F3130040F4801B00989246AA
:1081200020B10023D2EB030A63EB0B0B01985946F5
:10813000C0F14002504600F026F906460D46504672
:108140005946019A00F02EF910EB08006141002415
:1081500087EA115284EAE7731A4340D0009A62B367
:10816000019A012A4FEA075215DC001B61EB02015C
:108170004FF0004202EA0752CDE90042001C41F5EF
:10818000801132462B4600F02EF903B0BDE8F08F87
:1081900040462146F9E7001B61EB0201001C41F556
:1081A000801300185B412018A2F5001747EB03016C
:1081B00040EAD570B6196D4111E06D084FEA3606F8
:1081C00045EAC0754FEA0752001B61EB0201001C33
:1081D00041F5801149084FEA3000001951413246FB
:1081E0002B4603B0BDE8F04F00F0EEB80098012236
:1081F00040000023D0EB020263EBE07300982146BD
:108200004FEAE074B8EB000061EB0401E9E783F0AA
:1082100000435BE781F0004158E72DE9F04D81EA2A
:10822000030404F0004B21F0004514464FF0000A0F
:1082300023F0004150EA050220D054EA01021DD08B
:10824000C5F30A570246C5F31303C1F31300C1F384
:108250000A5640F4801543F48013A7EB0608101B60
:10826000D64608F2FD3873EB050002D308F1010889
:1082700001E092185B41B8F1000F03DA00200146DB
:10828000BDE8F08D00204FF48011064684460EE0D4
:10829000171B73EB050705D3121B63EB050306439E
:1082A0004CEA010C49084FEA300092185B4150EA51
:1082B0000107EDD152EA030012D082EA040083EAFA
:1082C0000501084305D0101BAB4106D20122002353
:1082D00006E000224FF0004302E06FF0010253106D
:1082E0001AEB06004CEB085110EB0A0041EB0B01B6
:1082F000BDE8F04D00F068B830B50B4601460020EF
:108300002022012409E021FA02F59D4205D303FA57
:1083100002F5491B04FA02F52844151EA2F10102D8
:10832000F1DC30BD2DE9F05F0546002092469B460A
:1083300088460646814640241BE02846414647467B
:10834000224600F041F953465A46C01A914110D3D3
:1083500011461846224600F016F82D1A67EB010860
:108360004F4622460120002100F00DF817EB0009CE
:108370004E41201EA4F10104DFDC484631462A4666
:108380004346BDE8F09F202A04DB203A00FA02F1C0
:10839000002070479140C2F1200320FA03F31943F3
:1083A00090407047202A06DBCB17203A41FA02F0B2
:1083B00043EAE07306E041FA02F3D040C2F1200242
:1083C000914008431946704710B5141E73F100041C
:1083D00008DA401C41F1000192185B411A4301D1B7
:1083E00020F0010010BD2DE9F04D92469B4611B1E1
:1083F000B1FA81F202E0B0FA80F220329046FFF743
:10840000C2FF04460F4640EA0A0041EA0B01534608
:108410005A46084313D0114653EA010019D0C8F157
:108420004002504600F0D0F805460E4650465946E8
:108430004246FFF7A8FF084305D0012004E020468C
:108440003946BDE8F08D0020054346EAE0762C432E
:1084500037430A986305E40AA0EB08000022FD0AEE
:1084600044EA47540A3002D500200146E9E70105F5
:1084700010196941DDE9084500196941BDE8F04D71
:10848000A2E72DE9FE4F81EA030404F0004421F045
:10849000004100944FF0000B23F0004350EA010428
:1084A0005ED052EA03045BD0C3F30A54C1F30A5509
:1084B0002C44A4F2F3340194A0FB0254C1F3130141
:1084C00041F48011C3F3130343F4801301FB02440E
:1084D00000FB034E840A970A44EA815447EA835713
:1084E000A4FB076802958D0A05FB07854FEA932CCC
:1084F00004FB0C542705029D4FEA065847EA16373D
:10850000B5EB08056EEB070C870E920E47EA811754
:1085100042EA8312A7FB0201B6EB0B0164EB0004F5
:108520002B0D43EA0C335E1844EB1C50DA465146DF
:10853000E7FB0201C5F313044FEA0B3343EA14537C
:108540004FEA0432019C43EA0603A4F10C040294AE
:10855000009CCDE900B4FFF746FF03B0BDE8F08F03
:1085600000200146F9E7C1F30A52C1F3130140F2BA
:10857000FF3341F480119A4202DA0020014670472D
:1085800040F233439A42A2F2334202DC524200F0FC
:108590001BB8FFF7F8BE000030B5041E71F10004EF
:1085A00004DB4FF00044404264EB0101141E73F100
:1085B000000405DB1C464FF00043524263EB04030A
:1085C000994208BF904230BD202A04DB203A21FAAC
:1085D00002F00021704721FA02F3D040C2F12002DC
:1085E000914008431946704730B58C1810F8012B9C
:1085F00012F00F0301D110F8013B120906D110F857
:10860000012B03E010F8015B01F8015B5B1EF9D15F
:1086100001E001F8013B521EFBD1A142E6D300204C
:1086200030BD000080B588B08DF81F008DF81E1099
:108630008DF81D209DF81F1045F20000C4F20100C6
:108640001429C4BF46F20000C4F2010006909DF850
:108650001F00152805DBFFE79DF81F001538019066
:1086600003E09DF81F000190FFE7019805909DF839
:108670001E009DF81D1002F055FC8DF813009DF8AA
:10868000130040B9FFE7069850309DF814100022FF
:1086900000F092F929E00598C11700EB5170C01065
:1086A0000390059800F007008000029002990720CF
:1086B00000FA01F20698039900EB8101486D90439E
:1086C00048659DF81300029900FA01F20698039993
:1086D00000EB8101486D10434865069850309DF8C5
:1086E0001410012200F068F9FFE708B080BD000017
:1086F00080B582B08DF803008DF802108DF801204E
:108700008DF800309DF80300122814DBFFE79DF878
:108710000300152805DBFFE79DF803001A280ADB94
:10872000FFE79DF803001D2846DBFFE79DF80300E7
:10873000252841DCFFE79DF803001F280BDCFFE73D
:108740009DF803109DF8022040F22810C4F210009A
:1087500000F032F90CE09DF8030020389DF802206B
:10876000C1B240F22C10C4F2100000F025F9FFE76E
:108770009DF803001F280EDCFFE79DF803109DF80D
:108780000100B0FA80F0420940F22010C4F210005B
:1087900000F012F90FE09DF8030020389DF8011059
:1087A000B1FA81F14A09C1B240F22410C4F21000BA
:1087B00000F002F9FFE703E04FF0FF3001907DE0A9
:1087C0009DF80300012805DBFFE79DF8030005285D
:1087D00014DBFFE79DF80300072805DBFFE79DF8A2
:1087E000030012280ADBFFE79DF803001D2862DB67
:1087F000FFE79DF8030023285DDCFFE79DF80300F9
:108800001F280ADCFFE79DF803109DF80220602076
:10881000C4F2100000F0D0F80BE09DF803002038FF
:108820009DF80220C1B26420C4F2100000F0C4F828
:10883000FFE79DF8020018B9FFE7002001903DE036
:108840009DF80000B0B3FFE79DF803001F2816DC79
:10885000FFE79DF803106820C4F21000012200F029
:10886000ABF89DF803109DF800000138B0FA80F0D5
:1088700042097020C4F2100000F09EF819E09DF843
:1088800003002038C1B26C20C4F21000012200F0B5
:1088900093F89DF8030020389DF800100139B1FAD3
:1088A00081F14A09C1B27420C4F2100000F084F8CA
:1088B000FFE7FFE7FFE700200190FFE7019802B024
:1088C00080BD000080B582B08DF807009DF80720BC
:1088D00042F21000C4F21000072100F06DF8FFE72B
:1088E00040F20010C4F210000068C0F3C0409DF8D0
:1088F0000710884201D0FFE7F2E702B080BD000018
:1089000080B586B08DF817009DF8170048B3FFE7D3
:1089100040F2A810C4F210000E21012200F04CF821
:10892000FFE70A200490FFE70498411E049110B16C
:10893000FFE700BFF8E7FFE740F2A810C4F210001D
:108940000F21012200F038F8FFE70A200390FFE72B
:108950000398411E039110B1FFE700BFF8E7FFE75E
:1089600028E040F2A810C4F210000F21002200F00D
:1089700023F8FFE70A200290FFE70298411E0291C8
:1089800010B1FFE700BFF8E7FFE740F2A810C4F21C
:1089900010000E21002200F00FF8FFE70A200190DE
:1089A000FFE70198411E019110B1FFE700BFF8E712
:1089B000FFE7FFE706B080BD83B002908DF8071097
:1089C0008DF806209DF8071001208840009002983D
:1089D0000068009988439DF806109DF80720914093
:1089E00008430299086003B07047000080B586B064
:1089F0008DF817008DF816109DF8171045F200003D
:108A0000C4F201001429C4BF46F20000C4F2010000
:108A100004909DF81700152805DBFFE79DF8170067
:108A20001538029003E09DF817000290FFE70298C6
:108A300003909DF81600032817D0FFE7049828300C
:108A40009DF80C109DF81620002A18BF0122FFF790
:108A5000B3FF049834309DF80C109DF81620B2FA3C
:108A600082F25209FFF7A8FF0FE0049828309DF822
:108A70000C1000220192FFF79FFF019A04983430F6
:108A80009DF80C10FFF798FFFFE706B080BD0000CF
:108A900084B08DF80F008DF80E109DF80F1045F280
:108AA0000000C4F201001429C4BF46F20000C4F261
:108AB000010002909DF80F00152805DBFFE79DF8E7
:108AC0000F001538009003E09DF80F000090FFE7BD
:108AD000009801909DF80E0048B1FFE70199012030
:108AE00000FA01F20299086B1043086308E001994B
:108AF000012000FA01F20299C86A1043C862FFE738
:108B000004B0704786B08DF817008DF816109DF8E8
:108B100017000490049900201F29C8BF012003906A
:108B2000049800F01F01012088400290039946F24A
:108B30008000C4F2000000EB81000190039946F22E
:108B40008800C4F2000000EB810000909DF8160040
:108B500030B9FFE7029A019908689043086016E06F
:108B60009DF81600012806D1FFE7029A00990868CF
:108B70001043086005E0029A009908689043086075
:108B8000FFE7029A0199086810430860FFE7002098
:108B900006B0704780B586B0DDF820C08DF81300B0
:108BA0000391029201939DF813007F2812D1FFE7F1
:108BB000029946F24000C4F2000000EB81009DF8EB
:108BC00004209DF820304FF0FF3102F065FC0020BA
:108BD000059024E003989DF8131002F0EBF9009043
:108BE0000098B0F1FF3F03DCFFE70098059016E026
:108BF000029946F24000C4F2000000EB81000099A7
:108C00009DF804209DF8203002F046FC9DF81300EA
:108C10009DF80C1000F030F800200590FFE7059853
:108C200006B080BD80B584B08DF80F008DF80E10B1
:108C30009DF80F000146029120B1FFE7029801283C
:108C40000BD015E09DF80E006A460F2111606621D9
:108C500003220523FFF79EFF0BE09DF80E006A46F6
:108C600000211160682104220523FFF793FF00E033
:108C7000FFE704B080BD000080B584B08DF80B0024
:108C80008DF80A109DF80B009DF80A1002F0E2FC26
:108C900001900198B0F1FF3F03DCFFE701980390DA
:108CA000BAE09DF80B00112812DCFFE79DF80B20BD
:108CB00046F20000C4F20000104320F003000199C6
:108CC00002F00302C2EBC203072202F0E5FBA0E0C0
:108CD0009DF80B00142810DCFFE701999DF80B208C
:108CE0006FF0150000EB4200C3B246F21000C4F270
:108CF0000000022202F0D0FB8AE09DF80B0015284C
:108D00000AD1FFE7019946F21000C4F200000722E1
:108D1000142302F0C1FB7AE09DF80B0016280AD15B
:108D2000FFE7019946F21400C4F200000722002375
:108D300002F0B2FB6AE09DF80B001E2810DCFFE792
:108D400001999DF80B206FF0260000EB4200C3B2A2
:108D500046F21400C4F20000022202F09DFB54E02F
:108D60009DF80B001F280AD1FFE7019946F2140075
:108D7000C4F200000722172302F08EFB44E09DF8A6
:108D80000B0020280AD1FFE7019946F21400C4F233
:108D9000000002221E2302F07FFB34E09DF80B004E
:108DA00021280AD1FFE7019946F21800C4F2000019
:108DB0000222002302F070FB24E09DF80B00232820
:108DC0000FDCFFE701999DF80B00C0EBC000EC3809
:108DD000C3B246F21800C4F20000072202F05CFBA6
:108DE0000FE001999DF80B206FF0370000EB420077
:108DF000C3B246F21800C4F20000022202F04CFB9B
:108E0000FFE7FFE7FFE7FFE7FFE7FFE7FFE7FFE732
:108E1000FFE700200390FFE7039804B080BD000047
:108E200080B582B08DF807009DF80700012100F0A1
:108E300025F802B080BD000080B582B0019000200E
:108E40008DF80300FFE79DF80300182813DCFFE707
:108E500001989DF80310C840C00728B1FFE79DF8AE
:108E60000300FFF7DDFFFFE7FFE79DF80300013098
:108E70008DF80300E7E702B080BD000080B586B042
:108E80008DF817008DF816109DF817000146049113
:108E9000182800F2B3810499DFE811F019002A00C4
:108EA0003B004C005D006E007F009000A100B2000E
:108EB000CA00E300F4000D011E012F014001510121
:108EC00062016B0174017D0186019701A7019DF884
:108ED00016100C20C4F20000152202F0C3FA9DF80F
:108EE00016101420C4F20000122202F0BBFA86E130
:108EF0009DF816100C20C4F20000162202F0B2FAFF
:108F00009DF816101420C4F20000122202F0AAFAF2
:108F100075E19DF816100C20C4F20000022202F048
:108F2000A1FA9DF816101420C4F20000002202F0ED
:108F300099FA64E19DF816100C20C4F20000032297
:108F400002F090FA9DF816101420C4F200000122DD
:108F500002F088FA53E19DF816100C20C4F20000CC
:108F6000042202F07FFA9DF816101420C4F20000CB
:108F7000022202F077FA42E19DF816100C20C4F2AA
:108F80000000012202F06EFA9DF816101420C4F2BF
:108F90000000112202F066FA31E19DF816100C2053
:108FA000C4F20000052202F05DFA9DF816101420AC
:108FB000C4F200000A2202F055FA20E19DF81610D2
:108FC0000C20C4F20000082202F04CFA9DF81610A2
:108FD0001420C4F20000092202F044FA0FE19DF8C7
:108FE00016100C20C4F20000092202F03BFA9DF892
:108FF00016105420C4F200000C2202F033FAFEE0F6
:109000009DF816100C20C4F200000A2202F02AFA81
:109010009DF816101420C4F200000390132202F0F1
:1090200021FA03989DF81610142202F01BFAE6E0CC
:109030009DF816100C20C4F200000B22019202F0E1
:1090400011FA019A9DF816101420C4F20000029043
:1090500002F008FA02989DF81610102202F002FAA7
:10906000CDE09DF816100C20C4F200000C2202F096
:10907000F9F99DF816100820C4F20000002202F051
:10908000F1F9BCE09DF816100820C4F200000C2293
:1090900002F0E8F99DF816100C20C4F200000D2231
:1090A00002F0E0F99DF816101420C4F20000062228
:1090B00002F0D8F9A3E09DF816100C20C4F20000CD
:1090C0000E2202F0CFF99DF816101420C4F2000011
:1090D000072202F0C7F992E09DF816100C20C4F2A6
:1090E00000000F2202F0BEF99DF816101420C4F201
:1090F00000000C2202F0B6F981E09DF816100C2059
:10910000C4F20000102202F0ADF99DF816101420F0
:10911000C4F20000082202F0A5F970E09DF81610D4
:109120000C20C4F20000112202F09CF99DF81610E8
:109130001420C4F20000042202F094F95FE09DF8CC
:1091400016100C20C4F20000122202F08BF99DF8D8
:1091500016101420C4F20000052202F083F94EE03C
:109160009DF816100C20C4F20000132202F07AF9C8
:1091700045E09DF816100C20C4F20000142202F005
:1091800071F93CE09DF816100C20C4F2000000229A
:1091900002F068F933E09DF816100C20C4F20000CC
:1091A000062202F05FF92AE09DF816100C20C4F2A6
:1091B0000000172202F056F99DF816101420C4F290
:1091C00000000E2202F04EF919E09DF816108020E2
:1091D000C4F200000090052202F044F900989DF8C6
:1091E0001610072202F03EF909E09DF816100C2037
:1091F000C4F20000192202F035F900E0FFE706B0E2
:1092000080BD000080B582B0844604988DF807C008
:109210008DF80610ADF80420ADF802308DF801008D
:109220009DF8070040009DF8061040EA411242F008
:109230000500BDF8041042F205031A430029C8BF17
:10924000104640EA8130BDF8021040F48022002927
:10925000C8BF104640EAC1409DF8011040EA0170C5
:109260000021CEF68021084342F21401C4F210011D
:10927000086002B080BD000080B584B08DF80F009A
:109280008DF80E109DF80F0098B1FFE742F20C0028
:10929000C4F210000022114602F0E4F89DF80E100E
:1092A00040F27C10C4F2100005220C2302F016F9E3
:1092B00010E042F20C00C4F2100000900021029174
:1092C0000122019202F0CEF800980199029A02F070
:1092D000C9F8FFE704B080BD80B584B001F03CFB65
:1092E0000190019818B9FFE70120039056E001981A
:1092F000017842F20800C4F210000722042302F0B1
:10930000EDF800200290FFE702980F2819D8FFE738
:109310000198029900EB4100808840F2A641884202
:109320000ADBFFE7029942F20000C4F210000422B7
:109330001C2302F0D3F804E0FFE70298013002900A
:10934000E2E70298102803D3FFE70220039025E00C
:1093500001200290FFE702980F2815D8FFE7019837
:10936000029900EB4100808C40F29D41884206DB6F
:10937000FFE702980138C0B200F014F804E0FFE7FC
:10938000029801300290E6E70298102803D3FFE725
:109390000320039002E000200390FFE7039804B04D
:1093A00080BD000080B582B08DF807009DF80700F1
:1093B00000F00F0142F20000C4F210000422012369
:1093C00002F08CF802B080BD41F21801C4F2000135
:1093D00045F6A520086041F21401C4F200014CF6E4
:1093E000FE2008607047000082B001908DF80310E5
:1093F0009DF803000199086002B0704783B00290A5
:109400000191ADF802200298A12801D1FFE700E008
:10941000FFE703B07047000086B005900491039207
:109420000498C0000399B0FBF1F002900298C009C3
:10943000019001990298A0EBC110029002980130AE
:1094400040080090019805994862BDF8060018B9D7
:10945000FFE7019810B9FFE7FFE7FEE701984FF635
:10946000FF71884204D1FFE705990020886207E078
:1094700001990298401A0290009805998862FFE7C6
:109480000598C06A0599C86206B0704781B000901F
:1094900000988069C0F3001001B0704781B000905F
:1094A00000988069C0F3C01001B0704781B000908F
:1094B00000988069C0F3401001B0704781B00090FF
:1094C0000098C06B01B0704780B584B003900291E2
:1094D0000192039900200863039948640399886303
:1094E0000399486003994862039988620399C862A6
:1094F0000398029AD1681269FFF78EFF029890F8DC
:1095000000C041788378C278802000EA411040EAA8
:109510004C1040EA031040EAC20001F0030140EAA7
:1095200041000399C8620298B0F80900000400BA2B
:10953000039948630198039988630299087991F81F
:1095400005C08B79CA79400240EA0C20184440EAF1
:10955000C230097A40EA81300399086304B080BDC3
:1095600080B502F0C3FC80BD80B582B001F0E6FE9C
:109570000190042000210091F5F76AFC06204FF4C9
:10958000FA71F5F765FC02F064FEFFF7A5FE45F2FF
:109590008040C2F20000F5F7B7FD02F0CDFC01F00B
:1095A000CFFB01994CF62970C0F20220F5F764FD5B
:1095B000009802B080BD000080B582B02020FFF787
:1095C0003BFC01F091FE00200190FFF799F9019812
:1095D000FFF778F902B080BD80B586B023200190F6
:1095E00000210491FFF748FB019801210391FFF747
:1095F00089FA04990198FFF7F9F901980399049AF7
:10960000FFF710F80198039B049A1946FFF770F8CA
:10961000049908200290FFF72FFB03990298FFF7A7
:1096200071FA04990298FFF7E1F902980399049AF4
:10963000FEF7F8FF0298039B049A1946FFF758F8C3
:10964000039909200590FFF7D1F903990598FFF7D1
:109650001FFA05980499FFF755FA04990598FFF742
:109660000BFB06B080BD000080B54AF21D31C0F290
:1096700002210D200022F5F74DFD80BD80B5FFF7DA
:109680009BFF00F009FE01210846F5F7E1FB01F020
:1096900079FF01F00FFD00F0C5FC80BD80B588B0FA
:1096A0000790ADF81A100592ADF81230BDF812000F
:1096B00016300390BDF80C0000F02EF908B9FFE752
:1096C0004FE0BDF81A0040F40070ADF81A0003989E
:1096D00047F27061C2F2000101910B6845F28852B5
:1096E000C2F200020292B2F800C023F80C00108807
:1096F00002301080BDF81A000B68B2F800C023F8E1
:109700000C0010880230108047F27663C2F200032A
:109710001888D1F800C0B2F800E02CF80E001088CC
:109720000230108018880130188007980968128864
:109730001144F6F701FD019802990A8810320A8057
:109740000068098808440599BDF81220FEF78CFCD2
:109750000299BDF8122008881044088000F022F910
:10976000FFE708B080BD000080B588B0ADF81C00F0
:10977000ADF81A100592ADF81230BDF8120008309D
:109780000390BDF80C0000F0C7F828B9FFE74FF6CA
:10979000FF70ADF81E004DE0039A47F27060C2F210
:1097A0000000036845F28851C2F200010191B1F84E
:1097B00000C023F80C200A8802320A80BDF81A2063
:1097C0000368B1F800C023F80C200A8802320A802E
:1097D00047F27663C2F2000302931A88D0F800C001
:1097E000B1F800E02CF80E200A8802320A801A88AC
:1097F00001321A80BDF81C200368B1F800C023F8BC
:109800000C200A8802320A800068098808440599F9
:10981000BDF81220FEF728FC0199BDF81220088837
:109820001044088000F0BEF8029800880138ADF8B6
:109830001E00FFE7BDF81E0008B080BD80B58CB0EB
:109840000B90ADF82A100992ADF822300020ADF847
:109850000C00ADF80A009DF82A008DF80F0047F2C1
:109860007660C2F20000019000880130ADF810006F
:109870000B980DF10F0100910331F6F75DFC009A92
:1098800042F6030002211323FFF76EFF01980088C0
:10989000ADF80C000B98BDF82A10099ABDF82230DB
:1098A000FFF7FCFEBDF82A0010F0300F1ED0FFE7D6
:1098B0004FF48570ADF80A00BDF82A004005002875
:1098C00007D5FFE7BDF80A0040F48060ADF80A0054
:1098D000FFE70020ADF80F00BDF80A1042F60210B5
:1098E0000DF10F020223FFF73FFFFFE7BDF80C0069
:1098F0000CB080BD80B586B00590059801A9009197
:10990000F6F71AFC009A4FF4205002211023FFF7BB
:109910002BFF06B080BD000081B0ADF80200BDF89D
:1099200002000230ADF8020045F28850C2F2000099
:109930000088BDF80210084447F27461C2F20001C9
:109940000988884203DCFFE7012001B07047FFE788
:10995000FEE7000047F27060C2F200000068704746
:1099600080B582B00190ADF80210019847F27061A5
:10997000C2F200010860BDF8020047F27461C2F251
:109980000001088045F28851C2F2000100200880E1
:1099900047F27661C2F200010120088000F002F86F
:1099A00002B080BD47F27062C2F20002136845F255
:1099B0008851C2F20001B1F800C0002003F80C0089
:1099C00012680988114448707047000080B586B05D
:1099D00084460898ADF814C0ADF81210ADF8102008
:1099E0000393ADF80A00BDF81400BDF81210BDF8DD
:1099F0001020039BBDF80AC0EE46CEF800C001F06F
:109A000081FEADF80800BDF90800013028B1FFE77C
:109A1000BDF80800ADF8160003E00020ADF8160010
:109A2000FFE7BDF8160006B080BD000010B586B097
:109A300084460998DDF820E0ADF812C0ADF81010AA
:109A4000ADF80E20ADF80C30ADF80A00BDF81200EC
:109A5000BDF81010BDF80E20BDF80C30DDF820C0A8
:109A6000BDF80A40EE46CEF80440CEF800C001F042
:109A700097FEADF80800BDF90800013020B1FFE7FE
:109A8000BDF90800059002E000200590FFE7059869
:109A900006B010BD80B582B047F6CC00C2F200001F
:109AA000007870B1FFE700230093184619461A4664
:109AB000DCF7A2FF009847F6CC01C2F20001087063
:109AC000FFE7DCF78DFB45F2D840C2F200009B3087
:109AD000019047F2F650C2F2000000884FF6FF7185
:109AE00088420CD0FFE747F2F650C2F2000000882F
:109AF000DCF79AFB01980121DCF74AFB04E00198AE
:109B00000121DCF745FBFFE7002001F0A3F802B0DC
:109B100080BD000080B588B00690ADF816100492A4
:109B2000039300200290FFE70298022814DCFFE76D
:109B30000698029A805C4CF69C31C0F20221895C46
:109B4000884201D1FFE703E06FF0040007903CE09A
:109B5000029801300290E7E76FF0050000900020C6
:109B60000190FFE7019845F27841C2F200010968CF
:109B7000884227DAFFE70698029908444CF69C31A0
:109B8000C0F202214968019A01EB02118A7AFEF7BC
:109B900090FA90B9FFE74CF69C30C0F20220406882
:109BA000019900EB0110D0F80CC00698BDF8161012
:109BB000049A039BE047009004E0FFE7019801301E
:109BC0000190CFE700980790FFE7079808B080BDA5
:109BD00080B54CF66030C0F202200B2100F000FC92
:109BE00080BD000080B54CF66B30C0F202200E2123
:109BF00000F0F6FB80BD0000B0B590B00E90ADF85F
:109C000036100C920B930E9808300A90BDF836006F
:109C1000132829D8FFE745F2D840C2F20000069089
:109C2000243001F017FADDF818C00C989CF82420B5
:109C30009CF825309CF826109CF827E09CF82840DA
:109C40009CF82950EC46CCF80C50CCF80840CCF8E5
:109C500004E0CCF800104DF2E421C0F2022102F041
:109C6000FDFA00200F908CE000200990FFE7099892
:109C70000B2863DCFFE70A980999405C30280DDB6C
:109C8000FFE70A980999405C392807DCFFE70A9842
:109C90000999405C30388DF823002BE00A98099927
:109CA000405C61280DDBFFE70A980999405C662853
:109CB00007DCFFE70A980999405C57388DF82300C4
:109CC00017E00A980999405C41280DDBFFE70A98E4
:109CD0000999405C462807DCFFE70A980999405C2F
:109CE00037388DF8230003E06FF006000F9048E04E
:109CF000FFE7FFE7099800EBD07121F00101401A5E
:109D000058B9FFE79DF823000001099901EBD171D3
:109D10004A100DF11D0188540BE09DF8233009987D
:109D200000EBD07042100DF11D01885C184388547F
:109D3000FFE7FFE709980130099098E745F2D8411D
:109D4000C2F20001BDF821000885DDF81D0048625F
:109D5000012081F8990001F073FB0DF11D0001F065
:109D600079F9A120002205921146DBF7B5FB0C988A
:109D70004CF67931C0F2022102F070FA05980F908A
:109D8000FFE70F9810B0B0BD80B58AB00890ADF86D
:109D90001E1006920593089807300490BDF81E0027
:109DA000122804D8FFE76FF0060009908EE000202B
:109DB0000390FFE703980B2863DCFFE704980399FF
:109DC000405C30280DDBFFE704980399405C39289C
:109DD00007DCFFE704980399405C30388DF80B00EE
:109DE0002BE004980399405C61280DDBFFE70498A1
:109DF0000399405C662807DCFFE704980399405C00
:109E000057388DF80B0017E004980399405C4128FF
:109E10000DDBFFE704980399405C462807DCFFE769
:109E200004980399405C37388DF80B0003E06FF01D
:109E3000060009904AE0FFE7FFE7039800EBD071C6
:109E400021F00101401A58B9FFE79DF80B0000010D
:109E5000039901EBD1714A100DF1050188540BE013
:109E60009DF80B30039800EBD07042100DF1050106
:109E7000885C18438854FFE7FFE70398013003909C
:109E800098E745F2D841C2F20001BDF80900A1F8F7
:109E90009F00DDF80500C1F89B000020009081F8CC
:109EA000990001F0CDFA0DF1050001F0D3F8009A08
:109EB00092201146DBF710FB06984CF67931C0F280
:109EC000022102F0CBF900980990FFE709980AB047
:109ED00080BD000080B588B00690ADF816100492E1
:109EE000039306980730029001208DF80700BDF813
:109EF00016009DF807100731884204D2FFE76FF083
:109F00000600079037E00298007830280FD1FFE76D
:109F100045F2D841C2F20001012081F8990001F018
:109F20008FFAA12000221146DBF7D6FA19E0029839
:109F30000078312810D1FFE745F2D841C2F2000184
:109F40000020009081F8990001F07AFA009A92209E
:109F50001146DBF7C1FA03E06FF0060007900AE054
:109F6000FFE704984CF67931C0F2022102F076F94D
:109F700000200790FFE7079808B080BD80B588B043
:109F80000690ADF8161004920393069808300290DC
:109F900001208DF80700BDF816009DF80710083164
:109FA000884204D2FFE76FF00600079037E002987E
:109FB0000078312810D1FFE746F68000C2F2000099
:109FC000009001884DF2CB20C0F20220F5F754F842
:109FD00000990020088018E002980078322810D1FB
:109FE000FFE74CF67930C0F20220062100F0F8F9C4
:109FF00000F03EFBFFE7002210461146F5F7B2F8ED
:10A00000F9E76FF00600079009E004984CF6793103
:10A01000C0F2022102F022F900200790FFE7079822
:10A0200008B080BD80B54CF67F30C0F202200B2115
:10A0300000F0D6F980BD000080B584B00390029195
:10A0400045F28C50C2F2000000696FF080518842E6
:10A0500011D3FFE745F28C50C2F20000816800691D
:10A06000884208D1FFE745F28C51C2F2000100207E
:10A0700008618860FFE745F28C50C2F20000C068BA
:10A0800002990844B0F5487F0CDCFFE745F28C509C
:10A09000C2F20000C168084414300399029AFDF727
:10A0A000E3FF18E045F28C50C2F20000C168C1F530
:10A0B00048710191C1681430009008440399019AD5
:10A0C000FDF7D2FF00980399019B1944029AD21A16
:10A0D000FDF7CAFFFFE7029A45F28C50C2F200007A
:10A0E000C1681144C160029A016911440161C068EC
:10A0F000B0F5487F09DBFFE745F28C51C2F2000161
:10A10000C868A0F54870C860FFE700F00FFD04B014
:10A1100080BD000080B582B0ADF80600BDF8062015
:10A1200045F6C800C2F20000416811444160BDF824
:10A1300006208168114481604068B0F57A6F09DBC0
:10A14000FFE745F6C801C2F200014868A0F57A6051
:10A150004860FFE745F6C800C2F200008168026966
:10A160004DF21A10C0F20220F4F786FF02B080BD53
:10A1700083B0019045F6C800C2F200008168006912
:10A18000401A0090009818B9FFE7002002901EE0E6
:10A1900000980199884203DDFFE701980090FFE7EE
:10A1A00045F6C800C2F20000406800990844B0F5C6
:10A1B0007A6F09DDFFE745F6C800C2F2000040688B
:10A1C000C0F57A600090FFE700980290FFE70298E0
:10A1D00003B0704745F6C800C2F200004168084469
:10A1E0001430704780B545F28C50C2F2000081688F
:10A1F0000069884201D0FFE726E042F20000C4F285
:10A200000100FFF743F9012809D1FFE745F6C8002F
:10A21000C2F2000081680069884201D0FFE713E0C4
:10A22000FFE742F20000C4F20100FFF737F901280E
:10A2300001D0FFE7F5E746F68001C2F20001088889
:10A2400000F002000880FFE780BD000080B582B00A
:10A2500045F6C800C2F2000041688368C268006920
:10A26000EC46CCF800004DF25F10C0F20220F4F78B
:10A2700003FF45F28C50C2F2000041688368C26857
:10A280000069EC46CCF800004DF24010C0F202200C
:10A29000F4F7F2FE02B080BD80B586B04AF61570C4
:10A2A000C0F20220694608604DF28010C0F2022020
:10A2B00033210122039200230593FBF7BBF8059994
:10A2C0000246039847F6D003C2F200031A60032245
:10A2D0000492FAF717F9059B0146049846F698028E
:10A2E000C2F20002116069464B6008604AF2C57014
:10A2F000C0F202204DF27E11C0F202219622FAF73E
:10A300002DFE059845F6C801C2F20001086045F22D
:10A310008C51C2F20001086006B080BD80B582B0E9
:10A320000190FFE742F20000C4F20100FFF7C6F817
:10A330000090009808B9FFE710E0009842F244014D
:10A34000C4F2010108609DF80000C006002804D591
:10A35000FFE7002000F070F8FFE7E3E7002002B01D
:10A3600080BD000080B582B0FFE745F28C51C2F29B
:10A3700000018868096988422FD2FFE7FFE742F2AF
:10A380000000C4F20100FFF791F8012801D1FFE7B6
:10A39000F5E745F28C50C2F2000001904168084494
:10A3A000017D42F20000C4F20100FFF71DF80198A0
:10A3B0004168013141608168013181604068B0F5D8
:10A3C000487F09DBFFE745F28C51C2F20001486883
:10A3D000A0F548704860FFE7C7E702B080BD000005
:10A3E00080B584B003900291039808B9FFE721E09B
:10A3F00000200190FFE701980299884219DAFFE7EF
:10A40000FFE742F20000C4F20100FFF74FF8012815
:10A4100001D1FFE7F5E703980199415C42F20000A2
:10A42000C4F20100FEF7E0FFFFE701980130019060
:10A43000E1E7FFE704B080BD80B582B08DF807008A
:10A4400000208DF8060001208DF80500FFE742F29C
:10A450000000C4F20100FFF719F801280FD0FFE750
:10A4600042F20000C4F2010000688DF804009DF87B
:10A47000040000F0BFF801208DF80600E7E79DF822
:10A480000700012812D1FFE747F66C00C2F2000076
:10A490000068B0F5FA6F08D8FFE747F66C01C2F222
:10A4A0000001086801300860FFE706E047F66C012C
:10A4B000C2F2000100200860FFE79DF80600B0B17D
:10A4C000FFE79DF80700012810D1FFE747F2F4509D
:10A4D000C2F200000078012807D1FFE745F6C40169
:10A4E000C2F2000101200870FFE7FFE721E045F616
:10A4F000C400C2F200000078B0B1FFE747F66C007C
:10A50000C2F200000068142803D3FFE700F0BEFA8F
:10A5100003E000208DF80500FFE745F6C401C2F214
:10A5200000010020087003E000208DF80500FFE71F
:10A53000FFE79DF8050000F0BFFA9DF8070047F21D
:10A54000F451C2F20001087002B080BD80B586B03F
:10A5500045F6C801C2F200018A680869801A0590B0
:10A560004020ADF81200CB6801F114000022C25463
:10A5700049680844BDF8141047F67002C2F20002A0
:10A580000DF11203FFF7C6FA0190019818BBFFE71F
:10A5900047F67000C2F20000FDF784FD0390BDF89D
:10A5A00012000399884204DDFFE70398ADF812001A
:10A5B000FFE7BDF8121047F67000C2F20000FFF787
:10A5C0000FFF45F6C801C2F200010020C860086113
:10A5D000486088600BE04DF22D10C0F20220F4F7C5
:10A5E0004BFDFFF733FE002000F066FAFFE706B0F0
:10A5F00080BD000081B08DF8030045F6C800C2F2AE
:10A60000000000696FF08051884211D3FFE745F6E2
:10A61000C800C2F2000081680069884208D1FFE7E3
:10A6200045F6C801C2F20001002008618860FFE71A
:10A630009DF8031045F6C800C2F20000C26802444B
:10A640001175C1680131C160016901310161C068E2
:10A65000B0F57A6F09DBFFE745F6C801C2F20001E9
:10A66000C868A0F57A60C860FFE701B070470000D5
:10A6700080B5FFE742F20000C4F20100FEF70EFFD2
:10A68000012801D0FFE7F5E780BD000080B584B068
:10A690008DF80F00ADF80C100292ADF8063002985C
:10A6A0000078A02810D1FFE7029800F0CFF9807859
:10A6B00008B1FFE708E04DF25220C0F20220F4F7A3
:10A6C000DBFCFFF785FAFFE704B080BD81B00090A6
:10A6D0000098807801B0704780B547F2F850C2F218
:10A6E00000000078FF2821D0FFE7DBF78BFD47F65D
:10A6F000BC00C2F20000006801280FD1FFE747F656
:10A70000BC01C2F200010020086047F2F851C2F219
:10A710000001FF200870FFF7BDF906E047F6BC0115
:10A72000C2F2000101200860FFE7FFE780BD0000E2
:10A7300080B582B0019000910198016842684CF6A2
:10A74000C370C0F20220F4F797FCFFE7FEE70000B9
:10A7500070B588B007900691DDF81CC0CDF814C024
:10A76000DCF81810DCF81420DCF81C30DCF80000F1
:10A77000DCF804E0DCF80840DCF80C50DCF8106091
:10A78000EC46CCF81060CCF80C50CCF80840CCF873
:10A7900004E0CCF800004CF64B70C0F20220F4F755
:10A7A0006BFCFFE7FEE7000080B582B001900091EE
:10A7B00001994CF6B770C0F20220F4F75DFCFFE798
:10A7C000FEE7000080B582B00190FFE746F69800F2
:10A7D000C2F2000000684FF0FF31FAF7AFFA0090C4
:10A7E0000098012801D0FFE7F0E745F6C800C2F263
:10A7F0000000006850B9FFE745F28C50C2F200003B
:10A80000006818B9FFE7FFF7EDFCDFE745F6C80081
:10A81000C2F200000078800700280BD5FFE7FFF7A1
:10A8200095FE45F6C801C2F20001086820F002005A
:10A830000860FFE745F6C800C2F200000078400754
:10A8400000280ED5FFE7C22000221146DAF744FEA9
:10A8500045F6C801C2F20001086820F00400086053
:10A86000FFE745F28C50C2F2000000780007002894
:10A870000BD5FFE7FFF776FD45F28C51C2F20001E0
:10A88000086820F008000860FFE79FE780B582B005
:10A890000190932000221146DAF71EFE02B080BD1F
:10A8A00080B596B0159014911392FFE71398012884
:10A8B00031DBFFE700200290FFE713990020012918
:10A8C000019007DBFFE702990020102938BF012023
:10A8D0000190FFE70198C00788B1FFE7149800F0E6
:10A8E000BDFC029A03A941F82200029801300290AF
:10A8F000139801381390149804301490DDE71598DC
:10A9000002998A0003A901F065FC0299159800EBF1
:10A9100081001590CAE716B080BD000083B0029098
:10A92000ADF8061003B0704780B582B00190FEF715
:10A930004BFD00F03FFA02B080BD000080B582B050
:10A9400001904FF0FF30009001986946042200F01A
:10A9500077FC02B080BD000080B582B000F00EF838
:10A9600030B9FFE741F27800C0F20020019002E028
:10A9700000200190FFE7019802B080BD80B584B04F
:10A9800000F0BCF918B1FFE70020039041E04FF45C
:10A99000805000F063FC0290029844F24371C4F6C8
:10A9A0004E11884203D0FFE70120039031E041F2CD
:10A9B000040000F053FC0290029845F25301C4F6E3
:10A9C0004901884203D0FFE70220039021E041F2D1
:10A9D0000000C0F200200190FFF7B0FF01984FF493
:10A9E00080511E22FFF75CFF41F27800C0F2002088
:10A9F0004FF488512422FFF753FF41F20810C0F2B0
:10AA000000204FF400515022FFF74AFF002003902E
:10AA1000FFE7039804B080BD81B000900098023039
:10AA200001B0704781B000900098023001B07047CB
:10AA300083B00290ADF806100092BDF8060003380E
:10AA4000009908800298013003B0704781B00090EF
:10AA50000098023001B0704781B000900098023039
:10AA600001B0704780B582B001900198F8F72CFFD3
:10AA700030B1FFE701980021DAF756FB009002E0C1
:10AA800000200090FFE7009802B080BD80B582B042
:10AA900045F6C801C2F20001086840F002000860F3
:10AAA0000020019046F69800C2F20000006801A95B
:10AAB000F9F7DEFE02B080BD80B584B08DF80F00DE
:10AAC00045F6C800C2F2000081680069401A019092
:10AAD00047F6B900C2F20000007808B1FFE722E0B3
:10AAE000019808B9FFE71EE09DF80F00012807D183
:10AAF000FFE70198B0F5FA6F01DAFFE713E0FFE72F
:10AB000045F6C801C2F20001086840F00400086080
:10AB10000020029046F69800C2F20000006802A9E8
:10AB2000F9F7A6FEFFE704B080BD000080B582B053
:10AB300045F28C51C2F20001086840F0080008603C
:10AB40000020019046F69800C2F20000006801A9BA
:10AB5000F9F78EFE02B080BD81B000900098807839
:10AB600001B0704781B000900098007801B0704744
:10AB700081B000900098043001B0704780B582B079
:10AB8000ADF80600ADF80410BDF804004000ADF8C3
:10AB90000200BDF80600BDF802201146E1F7E2F818
:10ABA000BDF80410BDF802204CF6D870C0F20220A7
:10ABB000F4F762FA02B080BD80B582B001900198CE
:10ABC000B0F8010047F2F651C2F20001088047F6E2
:10ABD000B000C2F2000000686A464FF0FF31116019
:10ABE000032100231A46FAF791FC019800F038FF80
:10ABF00002B080BD80B582B0019047F2F651C2F23A
:10AC000000014FF6FF700880FEF744FF02B080BDE0
:10AC100081B000900098B0F8010045F28051C2F276
:10AC20000001088001B0704780B582B0019045F204
:10AC30008051C2F200014FF6FF70088000F06CFCFA
:10AC40004CF69632C0F2022201210846DBF72EFEB6
:10AC500002B080BD80B584B08DF80F009DF80F0064
:10AC600047F2F851C2F2000108709DF80F00FF286A
:10AC700001D1FFE740E09DF80F104CF6ED70C0F2F7
:10AC80000220F4F7F9F99DF80F00FE280ED1FFE736
:10AC90004CF6CE61C0F2022168464160012202609A
:10ACA000002310461146DBF7F5FA12E04CF6CE61B0
:10ACB000C0F20221684641600122026045F2D8409C
:10ACC000C2F2000000F19B0300201146DBF7E2FA1C
:10ACD000FFE747F6B000C2F2000000680290FAF702
:10ACE000B7F9024602986B464FF0FF311960022116
:10ACF0000023FAF70BFCFFE704B080BD82B041F2FD
:10AD00000000C0F2002000900098006844F24371F7
:10AD1000C4F64E1188420CD1FFE70098406845F216
:10AD20005301C4F64901884203D1FFE70120019095
:10AD300002E000200190FFE7019802B07047000098
:10AD400080B584B04AF62910C0F202206946086036
:10AD50004DF2C210C0F202204FF4A0410122029233
:10AD600000230393FAF766FB03990246029847F61D
:10AD7000B403C2F200031A600322F9F7C3FB039B7A
:10AD800046F68801C2F20001086046F68C00C2F265
:10AD9000000069464860052008604AF6D160C0F2AC
:10ADA00002204DF2D211C0F202218022FAF7D6F829
:10ADB00004B080BD80B582B046F68000C2F20000CB
:10ADC000019001884DF2AD10C0F20220F4F754F961
:10ADD0000198008818B1FFE700F052F800E0FFE7A3
:10ADE00002B080BD80B582B08DF8070000200090D1
:10ADF00045F28250C2F2000000789DF807108842A8
:10AE000013D0FFE746F68001C2F2000108889DF8E2
:10AE1000073001229A40104308809DF8070045F250
:10AE20008251C2F200010870FFE747F6B800C2F293
:10AE30000000007808B1FFE71FE047F6B801C2F252
:10AE4000000101200870FEF7B7FB46F68800C2F249
:10AE5000000000686946F9F70BFD009860B1FFE754
:10AE60004EF60451CEF200014FF080500860BFF35F
:10AE70004F8FBFF36F8FFFE7FFE702B080BD000089
:10AE800080B582B046F69000C2F20000007808B1AA
:10AE9000FFE71AE047F6B400C2F200000068019034
:10AEA000FAF7DCF8024601986B460021196047F674
:10AEB000D403C2F200030621FAF728FB46F69001FC
:10AEC000C2F2000101200870FFE702B080BD00005F
:10AED00080B582B00190FFE746F68800C2F200001C
:10AEE00000684FF0FF31F9F729FF00900098012822
:10AEF00001D0FFE7F0E74DF2A010C0F20220F4F716
:10AF0000BBF801200021F3F7A3FFFFF7B9FFFEF71D
:10AF100027FBE1E780B582B001900120FFF78CFAB2
:10AF200002B080BD84B08DF80E008DF80D109DF834
:10AF30000D000146029120B1FFE7029801281CD0C4
:10AF40002FE09DF80E0001460191012808D0FFE78F
:10AF50000198022808D0FFE70198032808D00BE0E9
:10AF600005208DF80F0020E006208DF80F001CE072
:10AF700007208DF80F0018E013E09DF80E00014641
:10AF80000091012804D0FFE70098022804D007E0D0
:10AF900003208DF80F0008E002208DF80F0004E078
:10AFA000FFE700208DF80F00FFE79DF80F0004B0C9
:10AFB0007047000088B006908DF817100698C117EA
:10AFC00000EB5170C0100490069800F0070180203B
:10AFD000C8400390002002909DF8170001380190AE
:10AFE0009DF817004CF6B032C0F20222132110FB7C
:10AFF0000120009000980499405C0399084204D114
:10B00000FFE74FF0FF30079020E0FFE701980028AE
:10B0100019D4FFE701984CF6B032C0F20222132196
:10B0200000FB0120009000980499405C03990842BD
:10B0300004D0FFE7029801300290FFE7FFE7019894
:10B0400001380190E2E702980790FFE7079808B0FF
:10B050007047000080B582B001904DF29300C0F2BD
:10B060000220F4F709F800200090FFE70098052877
:10B070000EDCFFE701980099415C4DF29F00C0F2A1
:10B080000220F3F7F9FFFFE7009801300090EDE7A9
:10B090004CF64870C0F20220F3F7EEFF02B080BD1C
:10B0A00080B582B0019001980530FFF7D3FF02B060
:10B0B00080BD000010B584B04DF28300C0F20220C4
:10B0C000A821F3F7D9FF45F2D840C2F2000090F86A
:10B0D0009900F0B9FFE745F2D84CC2F2000C9CF899
:10B0E0009B109CF89C209CF89D309CF89E009CF83E
:10B0F0009FE09CF8A040EC46CCF80840CCF804E077
:10B10000CCF800004DF2A500C0F20220F3F7B4FF26
:10B1100034E045F2D840C2F2000090F899000128CE
:10B120001ED1FFE745F2D84CC2F2000C9CF8241067
:10B130009CF825209CF826309CF827009CF828E0F5
:10B140009CF82940EC46CCF80840CCF804E0CCF858
:10B1500000004DF2E100C0F20220F3F78DFF0CE099
:10B1600045F2D840C2F2000090F899104DF26B0001
:10B17000C0F20220F3F780FFFFE7FFE704B010BD45
:10B1800080B586B005900491ADF80E200598029028
:10B19000912808D0FFE7029892284DD0FFE7029847
:10B1A000932834D049E0F3F71DFE07207821F3F708
:10B1B0004FFE45F2D840C2F2000090F8990048B91D
:10B1C000FFE7FEF767FC4DF21D00C0F20220F3F727
:10B1D00053FF18E045F2D840C2F2000090F8990001
:10B1E00001280FD1FFE74CF69632C0F2022201216E
:10B1F0000846DBF75BFB4DF23300C0F20220F3F7A9
:10B200003BFFFFE7FFE70320FFF7ECFD16E047F207
:10B21000F850C2F20000019001784DF25400C0F2E3
:10B220000220F3F729FF01980078FF2803D0FFE7F9
:10B23000FFF752FAFFE701E000E0FFE706B080BD4C
:10B2400080B584B003900291019203980299019A0B
:10B2500043F69B33984704B080BD000080B596B09C
:10B2600015904CF6E061C0F2022102A8019048223C
:10B27000FCF7FAFE40F2C97080470199159800F07A
:10B28000EDF8149040F60D008047149816B080BD7C
:10B2900080B58AB0099008910792069303208DF833
:10B2A000040000218DF8051001208DF806008DF8AE
:10B2B00007108DF808008DF809008DF80A008DF848
:10B2C0000B108DF80C101C218DF80D108DF80E0050
:10B2D00008980490079805900998069A01A9FEF726
:10B2E000F3F80AB080BD000080B582B04FF40810BA
:10B2F000FDF7A2FD09201621FDF7BEFC08200090F5
:10B300000021FDF7B9FC009901200190FDF78AFCAE
:10B3100000980199FDF7F6FB42F20000C4F201002B
:10B3200043F20061C0F26E114FF4E1321023FFF7D7
:10B33000AFFFFEF799F902B080BD000080B58CB078
:10B340000020029047F2FC50C2F200000068006842
:10B3500045F2D841C2F20001096888421ED1FFE7D8
:10B3600047F2FC50C2F200000068D0F8A40045F299
:10B37000D841C2F20001D1F8A41088420ED1FFE7F3
:10B3800047F2FC50C2F200000068406845F2D84124
:10B39000C2F200014968884240D0FFE7F3F780FE1F
:10B3A0000B900B9845F2D841C2F20001019181F84F
:10B3B00098000B9881F829000B98000A0B900B98C5
:10B3C00081F828000B98000A0B900B9881F8270051
:10B3D0000B98000A0B900B9881F82600712081F8D9
:10B3E0002500FB2081F824000B9A4DF29311C0F246
:10B3F000022103A8009000F031FF00990198393034
:10B400000E22FCF743FE009901980E300F22FCF744
:10B410003DFE00F015F8012002900EE047F2FC50CE
:10B42000C2F20000016845F2D840C2F20000A82232
:10B43000FCF71AFE02200290FFE702980CB080BDD4
:10B4400080B547F2FC50C2F20000006845F2D841D6
:10B45000C2F20001A822FFF7F3FE80BD01F1010155
:10B460000847000083B002908DF807108DF8062081
:10B470009DF806100120884000900298006800990D
:10B4800088439DF807109DF80620914008430299D3
:10B49000086003B07047000085B0049003918DF8F8
:10B4A0000B208DF80A309DF80B10012088400138E0
:10B4B000019001989DF80A108840C04300900498BC
:10B4C0000068009908400399019A11409DF80A20EC
:10B4D000914008430499086005B0704784B0039018
:10B4E00002918DF807208DF806309DF80710012095
:10B4F000884001389DF80610884000900398006845
:10B500000099884302999DF80620914008430399C9
:10B51000086004B07047000080B58EB045F2D84096
:10B52000C2F2000000F1240100200D90DBF796F834
:10B530000D986A469062506201210C911162D061AF
:10B540009161642353611061D06090605160072164
:10B55000116013214FF448731A46DBF7E5F90D9893
:10B560004CF68A32C0F202220B21DBF793F90C99D8
:10B570000D984CF62872C0F20222DBF79DFA0EB04D
:10B5800080BD000080B582B0092041F29411F3F72C
:10B590005FFC0E204FF42F71F3F75AFC002001904E
:10B5A0000A21E0F7C9FB019869460860012046219D
:10B5B00005220223FDF726FE01980321FDF75CFE1C
:10B5C00002B080BD80B586B0059004914DF2450073
:10B5D000C0F20220F3F750FD4AF68D00C0F20220BF
:10B5E000694608604DF26900C0F202204FF4A05194
:10B5F000012200230393F9F71DFF47F6B001C2F2C1
:10B600000001086049F6CD10C0F2022049F62D2154
:10B61000C0F20221D9F7A8FB47F6C000C2F2000031
:10B620004BF6BD71C0F2022102914160DDF782FE4E
:10B630000298D9F743FC47F27860C2F200004FF459
:10B64000FA71FEF78DF900F0D3FBFEF717F80398B7
:10B6500006B080BD85B08DF80F008DF80E109DF8F6
:10B660000F002A2804DBFFE74FF0FF3004903EE094
:10B670009DF80F004CF6B032C0F20222132110FBED
:10B6800001200290002001909DF80E0001380090EA
:10B6900002989DF80E10CA08805C01F00702802114
:10B6A000D140084204D1FFE74FF0FF3004901EE084
:10B6B000FFE70098002817D4FFE702980099CA17FF
:10B6C00001EB5272D210805C01F007028021D14060
:10B6D000084204D0FFE7019801300190FFE7FFE73F
:10B6E000009801380090E4E701980490FFE704987F
:10B6F00005B0704780B5912000221146D9F7ECFEC5
:10B7000080BD000080B584B084460698ADF80CC0BA
:10B71000ADF80A10ADF808200193ADF80200BDF8AD
:10B720000A0047F26461C2F20001098888420FD121
:10B73000FFE7019840B1FFE70199FF200870BDF8CD
:10B740000200ADF80E0026E00120ADF80E0022E068
:10B75000BDF80A0047F26461C2F2000109880131B4
:10B76000884213D1FFE7019860B1FFE746F69C00DD
:10B77000C2F20000007801990870BDF80200ADF82F
:10B780000E0008E00120ADF80E0004E04FF6FF7057
:10B79000ADF80E00FFE7BDF90E0004B080BD00005B
:10B7A00080B584B084460798DDF818E0ADF80CC089
:10B7B000ADF80A10ADF80820ADF80630ADF8040079
:10B7C000BDF80A0047F26461C2F2000109888842AC
:10B7D0000CD1FFE70120FFF705FB0698BDF8041028
:10B7E000FEF72AFC0020ADF80E0028E0BDF80A00A4
:10B7F00047F26461C2F2000109880131884219D11F
:10B80000FFE706980088012809D1FFE746F69C016A
:10B81000C2F2000101200870FEF7DAF906E046F6F0
:10B820009C01C2F2000100200870FFE70020ADF883
:10B830000E0004E04FF6FF70ADF80E00FFE7BDF913
:10B840000E0004B080BD000080B588B08DF81F00E8
:10B85000ADF81C100692ADF8163006980078014637
:10B860000391A0284AD0FFE70398A22873D1FFE7ED
:10B870000698FFF7D7F8049004980A304DF2243167
:10B88000C0F202211022FCF714FCA0B9FFE70498D3
:10B89000811C47F20060C2F20000029016301822AC
:10B8A000FCF7E2FB0298018B4DF2D610C0F20220A9
:10B8B000F3F7E2FB21E004980A304DF21431C0F2B4
:10B8C00002211022FCF7F5FBA8B9FFE70498811CC0
:10B8D00047F20060C2F20000019040301822FCF7ED
:10B8E000C3FB0198B0F842104DF2A720C0F202202D
:10B8F000F3F7C2FB00E0FFE7FFE72DE00698FFF754
:10B90000A5F8807808B1FFE726E047F20060C2F2B0
:10B910000000008B4FF6FF7188420ED1FFE74DF219
:10B920006020C0F20220F3F7A7FB47F20060C2F2EA
:10B9300000000088DAF778FC0CE047F20062C2F2FF
:10B94000000232F8161B4BF68D10C0F20220DBF716
:10B9500058FCFFE700E0FFE708B080BD80B582B08B
:10B96000FF20ADF80600FFE7BDF80600FEF700FC7B
:10B97000ADF80400BDF8040018B9FFE7002002B0DC
:10B9800080BDBDF80400FEF7C5FBEDE780B588B0CB
:10B990008DF81F00ADF81C100692ADF81630069811
:10B9A000007801460391A02826D0FFE70398A42839
:10B9B00053D1FFE70698FFF72FF80490049804305E
:10B9C000FFF750F842F60211884214D1FFE70498BD
:10B9D000811C47F20060C2F2000002902E30122259
:10B9E000FCF742FB0298C18D4DF29720C0F2022075
:10B9F000F3F742FBFFE731E00698FFF727F880787E
:10BA000008B1FFE72AE047F20060C2F20000C08DF3
:10BA10004FF6FF7188421FD0FFE747F20060C2F285
:10BA2000000001900288038B58304BF68D41C0F224
:10BA30000221DBF762FD01980188C28D45F27C404E
:10BA4000C2F200006B4618604AF28D60C0F202201C
:10BA50000223DCF7C7F8FFE700E0FFE708B080BD8E
:10BA600080B582B001900198B0F8010047F2006102
:10BA7000C2F2000108800198B0F801104BF639506D
:10BA8000C0F202204DF23432C0F20222DBF75DFC3C
:10BA900002B080BD81B000900098B0F8010047F27C
:10BAA0006861C2F20001088001B0704780B582B0C1
:10BAB000019047F26861C2F200014FF6FF70088002
:10BAC00047F20061C2F20001088046F69C01C2F212
:10BAD000000100200870FEF785F802B080BD00006C
:10BAE00080B584B00020ADF80C00019047F268608A
:10BAF000C2F20000008803A9DBF792FCBDF80C003D
:10BB00000338ADF80C00FFE7BDF80C00FEF730FB82
:10BB1000ADF80A00BDF80A0020B9FFE700208DF853
:10BB20000F0044E0FEF756FB019047F26860C2F256
:10BB30000000008847F20061C2F20001098BBDF8E5
:10BB40000A20019BDCF7FBF800900098E0B9FFE7C2
:10BB5000BDF80A2046F68400C2F2000001681144D4
:10BB600001600168BDF80A204DF2E910C0F2022020
:10BB7000F3F782FA0198BDF80A10FEF7CFFEBDF880
:10BB80000A00FEF7C7FA11E000994DF21520C0F245
:10BB90000220F3F771FA47F26860C2F200000088F1
:10BBA000D8F755FC01208DF80F0000E0ACE79DF8B8
:10BBB0000F0004B080BD000080B584B00020ADF857
:10BBC0000C00019047F26860C2F200000088D9F7CB
:10BBD0004DF8ADF80C00BDF80C000338ADF80C00C2
:10BBE000FFE7BDF80C00FEF7C3FAADF80A00BDF898
:10BBF0000A0020B9FFE700208DF80F0042E047F26D
:10BC00006860C2F200000088D9F722F858B9FFE74F
:10BC100047F26860C2F200000088D9F755F90120A8
:10BC20008DF80F002EE0FEF7D5FA019047F268601C
:10BC3000C2F20000008847F26461C2F20001098884
:10BC4000019ABDF80A30D9F7ADF800900098B8B95C
:10BC5000FFE7BDF80A2047F6C800C2F200000168FD
:10BC6000114401600168BDF80A204DF2FF10C0F2D6
:10BC70000220F3F701FABDF80A00FEF74BFA00E0E4
:10BC8000AFE7AEE79DF80F0004B080BD80B586B089
:10BC90008DF81700ADF814100492ADF80E3004982A
:10BCA0000078A72812D1FFE70498BDF80E100DF117
:10BCB0000602FEF7BDFE02900120FFF793F80298FE
:10BCC0000230BDF80610FEF7B7F9FFE706B080BDF9
:10BCD00080B582B08DF8070047F6B901C2F20001C5
:10BCE000012008709DF807000146009168B1FFE748
:10BCF000009801280ED0FFE7009803280FD1FFE736
:10BD0000FFF72CFE8DF806000EE0FFF7E9FE8DF838
:10BD1000060009E0FFF750FF8DF8060004E0FFF78A
:10BD20001DFE8DF80600FFE747F6B901C2F20001DB
:10BD30000020087002B080BD80B586B08DF8170075
:10BD4000ADF814100492ADF80E3004980078014656
:10BD50000291A0281BD0FFE70298A12845D1FFE758
:10BD60000498FEF779FE811C47F20060C2F20000E1
:10BD7000019002301422FCF777F9019841888288FB
:10BD80004DF2B520C0F20220F3F776F92EE00498C8
:10BD9000FEF75CFE807808B1FFE727E047F200601D
:10BDA000C2F2000040884FF6FF7188420ED0FFE7D4
:10BDB00047F20060C2F200000188428883884BF697
:10BDC0004900C0F20220DBF78CFA0DE04DF27F2033
:10BDD000C0F20220F3F750F947F20060C2F200000F
:10BDE0000088DAF721FAFFE700E0FFE706B080BD40
:10BDF00080B584B04DF23430C0F20220FDF77AFDF8
:10BE00004DF22430C0F202204FF48B7100910023D8
:10BE100001931A46FDF712FD0099019B47F26462F7
:10BE2000C2F20002029210804DF21430C0F20220E1
:10BE30001A46FDF703FD45F28451C2F20001039159
:10BE400008804DF20430C0F2022047F26662C2F26E
:10BE5000000202210123FDF7F1FC029903980988F1
:10BE600002884DF22D20C0F20220F3F705F904B04C
:10BE700080BD000080B584B003900291ADF806202B
:10BE800003980090C12804D0FFE70098C22801D091
:10BE900029E029E046F69C00C2F20000007820B1BB
:10BEA000FFE70120FFF714FF1CE047F20060C2F239
:10BEB000000000884FF6FF7188420ED0FFE747F27E
:10BEC0000060C2F20000008B4FF6FF71884204D080
:10BED000FFE70020FFF7FCFE03E00320FFF7F8FE7A
:10BEE000FFE7FFE700E0FFE704B080BD80B584B066
:10BEF00046F69400C2F20000006801281AD0FFE75D
:10BF000047F6D000C2F2000000680290F9F7A0F8EE
:10BF1000024602986B464FF0FF31196001210391F0
:10BF20000023F9F7F3FA039846F69401C2F20001F0
:10BF30000860FFE704B080BD40F26011C4F2100158
:10BF4000C820C4F6422008607047000080B584B065
:10BF500003900291ADF80620039890280BD3FFE7D9
:10BF60000398942807D8FFE703980299BDF80620A4
:10BF7000FFF706F920E00398A0280BD3FFE703980A
:10BF8000A22807D8FFE703980299BDF80620FDF71D
:10BF900035FA10E00398C0280BD3FFE70398C428B4
:10BFA00007D8FFE703980299BDF80620FFF762FF64
:10BFB00000E0FFE7FFE7FFE704B080BD80B58AB08F
:10BFC0008DF82700ADF824100892ADF81E300898BF
:10BFD000FEF7C8FD8DF81D009DF82700042801D04C
:10BFE000FFE7F4E09DF81D0001460291052800F0EE
:10BFF000A180FFE702983E283BD0FFE70298602827
:10C000000FD0FFE70298782800F0D180FFE7029870
:10C01000B72800F0C880FFE70298FF2800F0CB8027
:10C02000D4E00898FEF752FB022801D0FFE7CEE0EB
:10C030000C2040F2EE21C0F2E241F2F709FFFFF7D7
:10C040006BFA45F2D840C2F200002430DAF7AAFDBC
:10C050004CF6A433C0F20223012000210222DAF7B9
:10C06000D7FC4BF2F560C0F20220C821F3F778F854
:10C07000ADE00898FEF770FD0146019103284CD011
:10C08000FFE701980A2853D1FFE70898033005908D
:10C090000598007818B1FFE7FDF7FCFC49E04DF288
:10C0A0000200C0F20220F2F7E7FF0598FEF7F8FF62
:10C0B0000598B0F80100DBF715FA0598B0F8010013
:10C0C000DAF740FAF2F7C2FE0598C078012815D1D8
:10C0D000FFE70598B0F801000090FDF73BFC014632
:10C0E0000098D8F7FFFE0598B0F801000A210F224A
:10C0F000DFF738FE0598FEF78BFD03E00598FEF7A5
:10C100005BFDFFE70598FFF7C5FC0599B1F8010055
:10C11000B1F81710FEF732FD0BE0089803300490D9
:10C120000499B1F80100B1F80310FEF727FD00E013
:10C13000FFE74CE00898023003904DF20E00C0F289
:10C140000220F2F799FF0398B0F8010047F2F65188
:10C15000C2F200010988884204D1FFE70398FEF784
:10C1600049FD1CE00398B0F8010045F28051C2F28D
:10C1700000010988884204D1FFE70398FEF754FDC7
:10C180000CE047F2F651C2F200014FF6FF70088052
:10C1900045F28051C2F200010880FFE7FFE70398F3
:10C1A000FFF784FC13E00120FFF792FD0FE0002071
:10C1B000FFF78EFD0BE00898FEF7DAFC0690069A72
:10C1C000106851681289FFF7C1FE00E0FFE70AB06E
:10C1D00080BD000080B588B0069005910492069855
:10C1E00020F0FF0000F580700390FFE7049850B343
:10C1F000FFE703980699401A029002980499884232
:10C2000003D3FFE704980290FFE706980599029A86
:10C2100043F6FF4398470190019818B1FFE7019852
:10C22000079013E002990698084406900299059831
:10C230000844059002990498401A0490039800F568
:10C2400080700390D2E700200790FFE7079808B0BE
:10C2500080BD47F2092CC2F2000C60470FB4084BB6
:10C2600010B504A902AA039800F0DEF8044602A95A
:10C27000002000F070FC204610BC5DF814FB0000AC
:10C2800057CB020202E008C8121F08C1002AFAD1E7
:10C2900070477047002001E001C1121F002AFBD146
:10C2A000704700002DE9FF5F82B00021DDE9043016
:10C2B000020DDDF840B0034318D044F61050A2F24E
:10C2C000FF3242431514119801281FD0A5EB0B0033
:10C2D000401C5FEA000A4FF000064E4FDFF838912D
:10C2E000B046504615D5CAF1000413E01198012458
:10C2F0004AA3012801D16FEA0B010298119AC0E903
:10C300000031C0E9024206B0BDE8F09FCBF1000069
:10C31000DFE704460021404A491842EB0450CDE9CA
:10C32000001012E0E00707D032463B46404649463F
:10C33000FCF7A7F88046894632463B461046194628
:10C34000FCF79FF806460F466410002CEAD1DDE9A1
:10C350000401DDE90023BAF1000F06DAFCF791F8D9
:10C3600042464B46FCF78DF805E0FBF756FF424688
:10C370004B46FBF752FF04460E460022284BFCF7C3
:10C380000BF903D84FF0FF30014607E00022254BA0
:10C3900020463146FBF79AFEFCF7E5F8102409E049
:10C3A000002C0ADB0A220023FBF7BCFF039B303280
:10C3B0001A55641E50EA0102F2D1641C039AC4F1BA
:10C3C00011031444119A012A03D0012208430DD10C
:10C3D0000AE0084304D000204FF0110B119072E7DF
:10C3E000A3EB0B056D1E0DE05B4504DD4FF0000275
:10C3F00005F1010504E003DA4FF00002A5F10105A3
:10C40000002AECD002981199C0E90231C0E9004538
:10C4100079E70000000014400000F03F3000000009
:10C420000000F0430000E03F2DE9FF4F95B09B4630
:10C430008946064600250FE2252877D100242746A5
:10C44000F84A0121059400E0044316F8013F203B1F
:10C4500001FA03F01042F7D130782A2811D06FF09A
:10C460002F033078A0F13002092A16D8059A44F03B
:10C47000020402EB820203EB42021044761C059098
:10C48000EFE759F8042B0592002A03DA504244F4EE
:10C490000054059044F00204761C30782E2816D102
:10C4A00016F8010F44F004042A280DD06FF02F0273
:10C4B0003078A0F13003092B09D807EB870302EB92
:10C4C0004303C718761CF3E759F8047B761C3078D1
:10C4D0006C280FD006DC4C2817D068280DD06A28AD
:10C4E00014D104E0742810D07A280FD10DE044F460
:10C4F00000140AE044F4801401E044F4401472781B
:10C50000824202D104F58014761C761C30786628AD
:10C510000BD013DC582877D009DC002875D04528CB
:10C52000F6D04628F4D047281AD19DE118E06328B8
:10C5300035D0642879D0652812D195E1702873D060
:10C5400008DC6728F1D069286FD06E280DD06F28DD
:10C5500006D1B5E073282CD0752875D0782874D012
:10C560005A46179990476D1C75E1C4F30250022892
:10C5700009D003280DD0D9F8001004280DD00D6083
:10C5800009F1040967E1D9F80010EA17C1E900527E
:10C59000F6E7D9F800100D80F2E70D70F0E719F812
:10C5A000041B8DF8001000208DF80100EA460120E0
:10C5B00003E059F804AB4FF0FF3061074FF0000182
:10C5C00002D40DE008F101018846B9420FDA804536
:10C5D000F8DB1AF808100029F4D108E008F101018D
:10C5E00088468142FADB1AF808100029F6D105982E
:10C5F0005B46A0EB080721463846179A00F094FAEC
:10C60000284400EB080507E04DE029E10DE01AF8A9
:10C61000010B5A4617999047B8F10108F7D25B46CB
:10C6200021463846179A13E142E00A220092C4F3E9
:10C6300002524FF0000A022A08D059F804CB032A0C
:10C640004FEAEC710AD00DE029E02AE009F1070178
:10C6500021F00702F2E802C1914609E00FFA8CFCD2
:10C660004FEAEC71042A03D14FFA8CFC4FEAEC71CB
:10C67000002907DA0A460021DCF1000C61EB020117
:10C680002D2202E0220504D52B228DF80420012260
:10C6900003E0E20701D02022F7E7904659E00A21A3
:10C6A00002E010220DE010214FF0000A00910BE093
:10C6B00010224FF0000A44F004040827009203E01F
:10C6C00008224FF0000A0092C4F30252022A05D059
:10C6D00059F804CB0021032A08D009E009F1070129
:10C6E00021F00702F2E802C1914605E01FFA8CFC36
:10C6F000042A01D10CF0FF0C4FF00008220728D5C6
:10C70000702806D0009B83F0100353EA0A0305D07B
:10C710000EE040228DF80420012208E05CEA0102CC
:10C7200006D030228DF804208DF8050002229046B4
:10C73000009B83F0080353EA0A030AD15CEA010272
:10C7400001D1620705D530228DF804204FF0010891
:10C750007F1E582804D034A003900EA802900DE04C
:10C7600036A0F9E753466046009AFBF7DBFD8446A6
:10C770000398825C0298401E029002705CEA0100FD
:10C78000F0D1029806A9081A00F1200A600702D524
:10C7900024F4803400E00127574502DDA7EB0A00AE
:10C7A00000E0002000EB0A01009005984144401A87
:10C7B0000590E00306D45B462146179A059800F0E1
:10C7C000B3F90544002706E001A85A46C05D179951
:10C7D00090476D1C7F1C4745F6DBE0030CD55B469C
:10C7E0002146179A059800F09FF9054404E030208F
:10C7F0005A46179990476D1C0099481E00900029D1
:10C80000F5DC08E0029802995A460078491C02912A
:10C81000179990476D1CBAF10001AAF1010AF1DCE9
:10C8200065E10000092801003031323334353637F4
:10C83000383961626364656600000000303132336C
:10C84000343536373839414243444546000000000C
:10C8500000F058F90544761C307800287FF4ECADE0
:10C8600019B02846BDE8F08F620700D4062709F109
:10C87000070222F0070CFCE80223E14603F000481F
:10C880005FEA080C02D00FF2702C0DE05FEA045C46
:10C8900002D50FF2682C07E05FEAC47C02D00FF2E9
:10C8A000602C01E0AFF2700C4FF0FF3823F0004332
:10C8B000CDF850C065280CD006DC452809D04628A4
:10C8C0001DD047283DD13DE0662818D067287ED18D
:10C8D00038E00021112F01DB112000E0781CCDE9A8
:10C8E000000106A90EA8FFF7DDFCDDE90F010E9A95
:10C8F00003910021009207F1010A04914DE04FF0ED
:10C9000000400097CDE9011006A90EA8FFF7CAFC68
:10C91000DDE90F0203920E9B11990022DDF80CA0B5
:10C920000093049211B9791C00EB010AB7EB0A00DD
:10C9300004D4C0F1FF3007F1010A0490AAEB07000C
:10C94000019044E0012F00DA01270021112F01DDC1
:10C95000112000E03846CDE9000106A90EA8FFF736
:10C96000A1FCDDE90F010E9A0391002104910092D0
:10C97000BA4621070CD40399514500DA8A46BAF128
:10C98000010F05DD009AAAF10101515C302908D0A0
:10C99000B84202DA10F1040F06DA0121CDE90110E4
:10C9A00015E0AAF10101E9E7002805DC049901443A
:10C9B0000491AAEB000102E0411C514500DD8A46CA
:10C9C0000499401A401C01904FF00040029020074B
:10C9D00004D40198504501DBCDF8048000208DF887
:10C9E0004F0002980DF14F07B0F1004F25D02B20DA
:10C9F0000E9002984FF0020800280CDA4042029094
:10CA00002D200E9007E00A210298FBF775FC3031CB
:10CA1000029007F8011DB8F10001A8F10108F2DC4D
:10CA200002980028EFD1791E0E980870307800F037
:10CA3000200040F0450007F8020D12A8C01B00F1CD
:10CA400007081498007800B1012000EB0A01019852
:10CA500001EBE07105984144401A401E0590E00347
:10CA600006D45B462146179A059800F05DF8054408
:10CA70001498007818B15A46179990476D1CE00336
:10CA800024D55B462146179A059800F04DF80544D9
:10CA90001CE00498002807DBDDE90301884203DD80
:10CAA0000098405C179901E0179930205A4690474A
:10CAB000049805F10105401C04900198401E019066
:10CAC00004D12E205A46179990476D1CBAF10001E7
:10CAD000AAF1010ADDDC05E017F8010B5A461799A7
:10CAE00090476D1CB8F10001A8F10108F4DC5B4629
:10CAF0002146179A0598ABE62D0000002B00000098
:10CB0000200000002DE9F041044600251E4617468E
:10CB1000880404D405E039462020B0476D1C641E0B
:10CB2000F9D52846BDE8F0812DE9F04104460025FD
:10CB30001E469046C80301D5302700E02027880410
:10CB400004D505E041463846B0476D1C641EF9D552
:10CB50002846BDE8F0810A68531C0B6010707047CE
:10CB60002B434F4E4E4543540D0A002B444953432B
:10CB70004F4E4E4543540D0A002B4F4B0D0A002BD0
:10CB8000504F5745524F4E0D0A000201060709410A
:10CB9000545F494E470000000000000041542B0044
:10CBA000385400200100C80096000000000000007A
:10CBB000FFFFFFFAAAAA48C000020FFFFFFF000014
:10CBC0000387E0FFFFFFF5555524A000010FFFFF8D
:10CBD000FE800003A7E0FFFFFFFAAAA890900000E4
:10CBE0008FFFFFFE40000397E0FFFFFFF55556481B
:10CBF0008800004FFFFFFE200003C7E0FFFFFFFAA1
:10CC0000AAA9268400002FFFFFFE10000387E0FF83
:10CC1000FFFFF55554928200001FFFFFFE0800033E
:10CC20008FE0FFFFFFFAAAAA4A8100020FFFFFFE72
:10CC300004000387E0FFFFFFF55555268080010FB4
:10CC4000FFFFFE020003A7E0FFFFFFFAAAA8928001
:10CC500040008FFFFFFE01000397E0FFFFFFF55547
:10CC6000564A8020004FFFFFFE008003C7E0FFFF11
:10CC7000FFFAAAA9268010002FFFFFFE00400387BD
:10CC8000E0FFFFFFF55554918008001FFFFFFE00F5
:10CC900020038FE0FFFFFFFAAAAA498004000FFFDC
:10CCA000FFFE00100387E0FFFFFFF55555258002CA
:10CCB000000FFFFFFE00080387E0FFFFFFFAAAA8AE
:10CCC000918001000FFFFFFE00040387E0FFFFFFDC
:10CCD000F55556498000800FFFFFFE00021387E0E4
:10CCE000FFFFFFFAAAA9258000400FFFFFFE000109
:10CCF0000B87E0FFFFFFF55554918000240FFFFFE5
:10CD0000FE00008787E0C80000000000000000006F
:10CD1000010000000000000000D000000000000042
:10CD2000000000020000000000000000C40000003D
:10CD3000000000000000008000000000000000FF74
:10CD4000FFFFFAAAAA488000100FFFFFFE00004371
:10CD500087E0FFFFFFF55555248000080FFFFFFE19
:10CD600000002387E0C00000000000004000000039
:10CD70000000010000000000C000000000000020D2
:10CD80000000000000008000000000C00000000063
:10CD90000000100000000000004000000000C20081
:10CDA0000000000000000000004000000000000043
:10CDB00000C1000000000000000000002000000092
:10CDC00000000000C0800000000000000000001013
:10CDD00000000000000000C000000000000008008B
:10CDE00000000000002000000000C0000000000063
:10CDF00000040000000000001000000000FFFFFF22
:10CE0000FAAAA8908200000FFFFFFE08000387E047
:10CE1000C00000000000000100000000000004004D
:10CE2000000000C0000000000000008000000000C2
:10CE3000000200000000FFFFFFF555564B80400048
:10CE40000FFFFFFE01000387E0FFFFFFFAAAA927FB
:10CE50008020000FFFFFFE00800387E0C00000007D
:10CE6000000000001000000000000040000000C0B2
:10CE7000000000000000000800000000000020008A
:10CE80000000C000000000000000040000000000DE
:10CE90000010000000C000000000000000020000C0
:10CEA0000000000008000000C000000000000000BA
:10CEB0000100000000000004000000C000000000AD
:10CEC00000000000800000000000020000000100DF
:10CED00060006000320032000000900164006400D5
:10CEE00080B582B001901421C4F2150108680222B5
:10CEF00062F3524008600421C4F21501086804225C
:10CF000062F3102008600198000248300021C4F24A
:10CF10001501086040F66D3080471020C4F21500FE
:10CF2000006802B080BD0000006D61696E2025645C
:10CF30000D0A005B776B5D3A206770696F3A307855
:10CF400025303878253038780D0A0048415244465B
:10CF500041554C543A0A5043203A20307825303815
:10CF6000580A4C52203A203078253038580A50530D
:10CF7000523A203078253038580A5230203A203042
:10CF800078253038580A5231203A20307825303808
:10CF9000580A5232203A203078253038580A503317
:10CFA000203A203078253038580A5231323A203031
:10CFB00078253038580A005B4F4F4D5D20402025C2
:10CFC000640A005B415353455254494F4E5D204023
:10CFD0002025733A25640A005B62745D3A20696E0D
:10CFE000743A25642063653A25640D0A005B627417
:10CFF0005D3A20696E6974696174696E6725640DB4
:10D000000A005B62745D3A20636F6E0D0A005B621A
:10D01000745D3A20646973636F6E0D0A005B62741D
:10D020005D3A20737461727420636F6E6E65637411
:10D030000D0A005B62745D3A207374617274206142
:10D0400064760D0A0073657475702070726F66697E
:10D050006C650A00696E6974696174652074696D34
:10D06000656F75742025780A0061005B696E666FD4
:10D070005D3A2064617461206572726F723A256452
:10D080000D0A005B696E666F5D3A206C656E256403
:10D090000D0A005B6170705D3A206164647200206B
:10D0A00025303278005B696E666F5D3A2069276DC6
:10D0B000206D61737465722C2070656572206164E7
:10D0C00064723A253032785F253032785F2530320D
:10D0D000785F253032785F253032785F25303278BE
:10D0E000005B696E666F5D3A2069276D20736C6125
:10D0F00076652C206D7920616464723A253032782F
:10D100005F253032785F253032785F253032785FA6
:10D11000253032785F25303278005B636F6D5F6257
:10D1200075665D3A2025642025640D0A005B636FF7
:10D130006D5D3A206461746120706173730D0A0043
:10D140005B626C655F6275665D3A205B25645D209D
:10D150005B25645D205B25645D205B25645D005B71
:10D16000636F6D5F6275665D3A205B25645D205B71
:10D1700025645D205B25645D205B25645D006200A5
:10D180006D61696E5F636D645F646174615F74613A
:10D19000736B004C56532D4C7573682530337500F6
:10D1A0005B6C705D3A20657869740D0A005B6C7089
:10D1B0005D3A20776F726B696E6720307825780D45
:10D1C0000A00656E746572206C6F7720706F7765EA
:10D1D00072006B65790077726974652068616E64AE
:10D1E0006C653A2025640D0A005B7470745D3A200A
:10D1F0006D73745F73642025642025640D0A005BE1
:10D200007470745D3A20736C765F736420256420BB
:10D2100025640D0A005B7470745D3A206D73745F51
:10D2200073642073746F702025640D0A005B73654E
:10D2300072766963655D3A207468726F75676870AD
:10D2400075742077723A25642C20696F3A25640D35
:10D250000A005B7470745D3A20636D706C0D0A0097
:10D260006368617261637465726973746963206E67
:10D270006F7420666F756E642C206469736300732D
:10D28000657276696365206E6F7420666F756E6473
:10D290002C2064697363006F757470757420646505
:10D2A00073633A20256400696F2068616E646C6561
:10D2B0003A20256400736572766963652068616E43
:10D2C000646C653A202564202564005B41545D3A16
:10D2D00020736C65657020737461746520307825E7
:10D2E000780D0A002B4C414444523D2530327825BC
:10D2F0003032782530327825303278253032782532
:10D30000303278000000FFE3000010008000008051
:10D310005F9B34FB0000FFE20000100080000080F3
:10D320005F9B34FB0000FFE10000100080000080E4
:10D330005F9B34FB0000FFE00000100080000080D5
:10D340005F9B34FB94D3020238540020500100004C
:10D35000E885020264D4020200700020F405000097
:10D3600084C2020258DA0202F47500207C00000038
:10D3700084C2020260D40202885500201813000003
:10D3800094C20202D4DA0202707600206C0200001D
:10D3900094C2020275434F4E417B0400899D0202F4
:10D3A000524F4C456C0400D59E02024C41444452FD
:10D3B0006C0500F99B0202534C4545504805007D21
:10D3C0009F0202044201550170002055C5B50202BA
:10D3D00055ED730020556D7400205551A70202D5FC
:10D3E00031A70202051DA9A702024603025AA5A8F9
:10D3F0000813EFCD9A781803493AC20100F1F228D8
:10D400000707074202EB0201060303F1FF0F094978
:10D410006507FFAC0633F40100291AF40102010686
:10D420000809574D3235304C4311077941DC240E41
:10D43000E5A9E093F3A3B50100406E001F05FFAC22
:10D440000634122F06CDA3010100CDA33AE6A7A50D
:10D4500000013B03025AA5FFFF0F00FFFF00000081
:10D460000000000080B582B001900091FFE741F21A
:10D470000000C4F2010000F0D0FA012801D1FFE75A
:10D48000F5E70198017841F20000C4F2010000F0D4
:10D49000C9FA002002B080BD80B582B00190009131
:10D4A00001A80021FFF7DEFF019802B080BD00BF98
:10D4B00081B08DF80300FFE741F21800C4F20100CB
:10D4C00000684009C00708B1FFE7F5E79DF80300D1
:10D4D00041F20001C4F20101086001B0704700BFD1
:10D4E00084B002900298002282606420C4F200009E
:10D4F000006802994A6008606020C4F20000006879
:10D50000000C01900299086849680843002854D12A
:10D51000FFE70198002850D1FFE740F24010C4F225
:10D52000100000680190019800F00300014600918E
:10D5300003283DD80099DFE801F00206120C002014
:10D540008DF80F0069E00299886840F0010088605A
:10D550002FE00299886840F001008860FFE7019899
:10D5600080080190019800F00100029900224A60B1
:10D570000860019800F00603029908684A6840EACA
:10D5800003104A600860019800F0380302990868A7
:10D590004A6840EA83404A600860019800F06003EE
:10D5A00002990A68486840EA53000A60486000E04F
:10D5B000FFE701208DF80F002FE0019800F03F03F6
:10D5C00002990A68486818430A6048609DF8040098
:10D5D0004006002806D5FFE70299886840F004005D
:10D5E0008860FFE79DF804000006002806D5FFE7E5
:10D5F0000299886840F001008860FFE79DF8050007
:10D60000C00730B1FFE70299886840F002008860E7
:10D61000FFE701208DF80F00FFE79DF80F0004B031
:10D62000704700BF80B540F2A810C4F2100001217D
:10D63000102200F001F880BD83B002908DF8071031
:10D640008DF806209DF80610012088400090029871
:10D650000068009988439DF807109DF806209140C6
:10D6600008430299086003B0704700BF80B586B0D8
:10D670000C20C4F2000002900121049111220192B9
:10D68000FFF7DAFF04991420C4F20000039004228B
:10D69000FFF7D2FF0298049A1146FFF7CDFF019AD7
:10D6A00003980499FFF7C8FF029804990622FFF730
:10D6B000C3FF029804991522FFF7BEFF039804994F
:10D6C00012220592FFF7B8FF029804991622FFF77D
:10D6D000B3FF03980499059AFFF7AEFF43F2006089
:10D6E000C0F26E104FF4612100F002F806B080BD68
:10D6F00080B588B00790069103208DF804000022C1
:10D700008DF8052001208DF806008DF807208DF892
:10D7100008008DF809008DF80A008DF80B208DF8AF
:10D720000C208DF80D008DF80E00079804900698D7
:10D73000059041F20000C4F2010001A900F002F8D6
:10D7400008B080BD80B584B0039002910192039926
:10D75000002008630399486403998863039948602B
:10D7600003994862039988620399C8620398029AF0
:10D77000D168126900F032F8029890F800C0417840
:10D780008378C278802000EA411040EA4C1040EAD9
:10D79000031040EAC20001F0030140EA410003998E
:10D7A000C8620298B0F80900000400BA03994863FF
:10D7B0000198039988630299087991F805C08B79DB
:10D7C000CA79400240EA0C20184440EAC230097A83
:10D7D00040EA81300399086304B080BD86B00590AB
:10D7E000049103920498C0000399B0FBF1F00290F9
:10D7F0000298C009019001990298A0EBC110029013
:10D800000298013040080090019805994862BDF8DF
:10D81000060018B9FFE7019810B9FFE7FFE7FEE738
:10D8200001984FF6FF71884204D1FFE70599002067
:10D83000886207E001990298401A029000980599C1
:10D840008862FFE70598C06A0599C86206B070470C
:10D8500080B58AB009900891002007900690059045
:10D86000049004A8FFF73CFE8DF80F00FFF7FEFEC2
:10D870000998007808B9FFE7FFE79DF80F00012835
:10D8800021D1FFE704980599084390B1FFE7059877
:10D890000290049801900299019A4CF63370C0F2FC
:10D8A000022000F0C4F8002000F0C6F800F0C9F82B
:10D8B00008E09DF818008007002801D5FFE700E088
:10D8C000FFE7FFE700E0FFE701200AB080BD00BFEF
:10D8D00080B584B00390029100F0B8F80120019067
:10D8E00000F008F8019800F061F8FFF79BFE01983E
:10D8F00004B080BD80B586B08DF817009DF8170084
:10D9000048B3FFE740F2A810C4F210000E21012234
:10D9100000F06AF8FFE70A200490FFE70498411E30
:10D92000049110B1FFE700BFF8E7FFE740F2A8104D
:10D93000C4F210000F21012200F056F8FFE70A2080
:10D940000390FFE70398411E039110B1FFE700BF6A
:10D95000F8E7FFE728E040F2A810C4F210000F211A
:10D96000002200F041F8FFE70A200290FFE702984A
:10D97000411E029110B1FFE700BFF8E7FFE740F258
:10D98000A810C4F210000E21002200F02DF8FFE7CD
:10D990000A200190FFE70198411E019110B1FFE7B5
:10D9A00000BFF8E7FFE7FFE706B080BD80B582B0B3
:10D9B0008DF807009DF8072042F21000C4F2100015
:10D9C000072100F011F8FFE740F20010C4F2100048
:10D9D0000068C0F3C0409DF80710884201D0FFE7FF
:10D9E000F2E702B080BD00BF83B002908DF807104F
:10D9F0008DF806209DF807100120884000900298BD
:10DA00000068009988439DF806109DF80720914012
:10DA100008430299086003B0704749F2AD4CC0F268
:10DA2000022C604749F2E93CC0F2022C60474FF2F9
:10DA3000790CC0F2012C60474AF6E55CC0F2022C7A
:10DA400060474AF2250CC0F2022C604749F2D95CCB
:10DA5000C0F2022C604700000100FFFFFF00000041
:10DA600000000402FFFF00000000000000000000B2
:10DA700000000000000000000000000000000000A6
:10DA80000000000000000000000000000000000096
:10DA90000000000000000000000000000000000086
:10DAA0000000000000000000000000000000000076
:10DAB0000000000000000000000000000000000066
:10DAC0000000000000000000FFFF9600FFFF0000C4
:04DAD0000000000052
:04000005020280096A
:00000001FF
