:020000040202F6
:10800000000000001D800202DFF80CD000F01AF81A
:10801000004800472D800202E45E002002B5EFF325
:10802000088181F30988054800470000044880471B
:10803000EFF3098181F3088802BD00004580020248
:1080400069950202064C074D06E0E06840F0010326
:1080500094E8070098471034AC42F6D3FFF7D8FFF6
:1080600028D0020258D0020240EA01039B0703D045
:1080700009E008C9121F08C0042AFAD203E011F867
:10808000013B00F8013B521EF9D2704710B504467F
:1080900004E00B7800F8013B03B1491C521EF8D2F2
:1080A000204610BD421C10F8011B0029FBD1801A8C
:1080B000704730B504460020034600E05B1C934245
:1080C00003D2E05CCD5C401BF8D030BD2DE9FE4F03
:1080D000804681EA0300C00F0C46009021F0004169
:1080E00023F00045B8EB0200A94105D240462146E5
:1080F00090461C460B46024623F00040104347D0F2
:10810000270DC7F30A00C3F30A510290401A0190E9
:1081100040286BDAC3F3130040F4801B00989246AA
:1081200020B10023D2EB030A63EB0B0B01985946F5
:10813000C0F14002504600F026F906460D46504672
:108140005946019A00F02EF910EB08006141002415
:1081500087EA115284EAE7731A4340D0009A62B367
:10816000019A012A4FEA075215DC001B61EB02015C
:108170004FF0004202EA0752CDE90042001C41F5EF
:10818000801132462B4600F02EF903B0BDE8F08F87
:1081900040462146F9E7001B61EB0201001C41F556
:1081A000801300185B412018A2F5001747EB03016C
:1081B00040EAD570B6196D4111E06D084FEA3606F8
:1081C00045EAC0754FEA0752001B61EB0201001C33
:1081D00041F5801149084FEA3000001951413246FB
:1081E0002B4603B0BDE8F04F00F0EEB80098012236
:1081F00040000023D0EB020263EBE07300982146BD
:108200004FEAE074B8EB000061EB0401E9E783F0AA
:1082100000435BE781F0004158E72DE9F04D81EA2A
:10822000030404F0004B21F0004514464FF0000A0F
:1082300023F0004150EA050220D054EA01021DD08B
:10824000C5F30A570246C5F31303C1F31300C1F384
:108250000A5640F4801543F48013A7EB0608101B60
:10826000D64608F2FD3873EB050002D308F1010889
:1082700001E092185B41B8F1000F03DA00200146DB
:10828000BDE8F08D00204FF48011064684460EE0D4
:10829000171B73EB050705D3121B63EB050306439E
:1082A0004CEA010C49084FEA300092185B4150EA51
:1082B0000107EDD152EA030012D082EA040083EAFA
:1082C0000501084305D0101BAB4106D20122002353
:1082D00006E000224FF0004302E06FF0010253106D
:1082E0001AEB06004CEB085110EB0A0041EB0B01B6
:1082F000BDE8F04D00F068B830B50B4601460020EF
:108300002022012409E021FA02F59D4205D303FA57
:1083100002F5491B04FA02F52844151EA2F10102D8
:10832000F1DC30BD2DE9F05F0546002092469B460A
:1083300088460646814640241BE02846414647467B
:10834000224600F041F953465A46C01A914110D3D3
:1083500011461846224600F016F82D1A67EB010860
:108360004F4622460120002100F00DF817EB0009CE
:108370004E41201EA4F10104DFDC484631462A4666
:108380004346BDE8F09F202A04DB203A00FA02F1C0
:10839000002070479140C2F1200320FA03F31943F3
:1083A00090407047202A06DBCB17203A41FA02F0B2
:1083B00043EAE07306E041FA02F3D040C2F1200242
:1083C000914008431946704710B5141E73F100041C
:1083D00008DA401C41F1000192185B411A4301D1B7
:1083E00020F0010010BD2DE9F04D92469B4611B1E1
:1083F000B1FA81F202E0B0FA80F220329046FFF743
:10840000C2FF04460F4640EA0A0041EA0B01534608
:108410005A46084313D0114653EA010019D0C8F157
:108420004002504600F0D0F805460E4650465946E8
:108430004246FFF7A8FF084305D0012004E020468C
:108440003946BDE8F08D0020054346EAE0762C432E
:1084500037430A986305E40AA0EB08000022FD0AEE
:1084600044EA47540A3002D500200146E9E70105F5
:1084700010196941DDE9084500196941BDE8F04D71
:10848000A2E72DE9FE4F81EA030404F0004421F045
:10849000004100944FF0000B23F0004350EA010428
:1084A0005ED052EA03045BD0C3F30A54C1F30A5509
:1084B0002C44A4F2F3340194A0FB0254C1F3130141
:1084C00041F48011C3F3130343F4801301FB02440E
:1084D00000FB034E840A970A44EA815447EA835713
:1084E000A4FB076802958D0A05FB07854FEA932CCC
:1084F00004FB0C542705029D4FEA065847EA16373D
:10850000B5EB08056EEB070C870E920E47EA811754
:1085100042EA8312A7FB0201B6EB0B0164EB0004F5
:108520002B0D43EA0C335E1844EB1C50DA465146DF
:10853000E7FB0201C5F313044FEA0B3343EA14537C
:108540004FEA0432019C43EA0603A4F10C040294AE
:10855000009CCDE900B4FFF746FF03B0BDE8F08F03
:1085600000200146F9E7C1F30A52C1F3130140F2BA
:10857000FF3341F480119A4202DA0020014670472D
:1085800040F233439A42A2F2334202DC524200F0FC
:108590001BB8FFF7F8BE000030B5041E71F10004EF
:1085A00004DB4FF00044404264EB0101141E73F100
:1085B000000405DB1C464FF00043524263EB04030A
:1085C000994208BF904230BD202A04DB203A21FAAC
:1085D00002F00021704721FA02F3D040C2F12002DC
:1085E000914008431946704730B58C1810F8012B9C
:1085F00012F00F0301D110F8013B120906D110F857
:10860000012B03E010F8015B01F8015B5B1EF9D15F
:1086100001E001F8013B521EFBD1A142E6D300204C
:1086200030BD000080B588B08DF81F008DF81E1099
:108630008DF81D209DF81F1045F20000C4F20100C6
:108640001429C4BF46F20000C4F2010006909DF850
:108650001F00152805DBFFE79DF81F001538019066
:1086600003E09DF81F000190FFE7019805909DF839
:108670001E009DF81D1002F09BFB8DF813009DF865
:10868000130040B9FFE7069850309DF814100022FF
:1086900000F092F929E00598C11700EB5170C01065
:1086A0000390059800F007008000029002990720CF
:1086B00000FA01F20698039900EB8101486D90439E
:1086C00048659DF81300029900FA01F20698039993
:1086D00000EB8101486D10434865069850309DF8C5
:1086E0001410012200F068F9FFE708B080BD000017
:1086F00080B582B08DF803008DF802108DF801204E
:108700008DF800309DF80300122814DBFFE79DF878
:108710000300152805DBFFE79DF803001A280ADB94
:10872000FFE79DF803001D2846DBFFE79DF80300E7
:10873000252841DCFFE79DF803001F280BDCFFE73D
:108740009DF803109DF8022040F22810C4F210009A
:1087500000F032F90CE09DF8030020389DF802206B
:10876000C1B240F22C10C4F2100000F025F9FFE76E
:108770009DF803001F280EDCFFE79DF803109DF80D
:108780000100B0FA80F0420940F22010C4F210005B
:1087900000F012F90FE09DF8030020389DF8011059
:1087A000B1FA81F14A09C1B240F22410C4F21000BA
:1087B00000F002F9FFE703E04FF0FF3001907DE0A9
:1087C0009DF80300012805DBFFE79DF8030005285D
:1087D00014DBFFE79DF80300072805DBFFE79DF8A2
:1087E000030012280ADBFFE79DF803001D2862DB67
:1087F000FFE79DF8030023285DDCFFE79DF80300F9
:108800001F280ADCFFE79DF803109DF80220602076
:10881000C4F2100000F0D0F80BE09DF803002038FF
:108820009DF80220C1B26420C4F2100000F0C4F828
:10883000FFE79DF8020018B9FFE7002001903DE036
:108840009DF80000B0B3FFE79DF803001F2816DC79
:10885000FFE79DF803106820C4F21000012200F029
:10886000ABF89DF803109DF800000138B0FA80F0D5
:1088700042097020C4F2100000F09EF819E09DF843
:1088800003002038C1B26C20C4F21000012200F0B5
:1088900093F89DF8030020389DF800100139B1FAD3
:1088A00081F14A09C1B27420C4F2100000F084F8CA
:1088B000FFE7FFE7FFE700200190FFE7019802B024
:1088C00080BD000080B582B08DF807009DF80720BC
:1088D00042F21000C4F21000072100F06DF8FFE72B
:1088E00040F20010C4F210000068C0F3C0409DF8D0
:1088F0000710884201D0FFE7F2E702B080BD000018
:1089000080B586B08DF817009DF8170048B3FFE7D3
:1089100040F2A810C4F210000E21012200F04CF821
:10892000FFE70A200490FFE70498411E049110B16C
:10893000FFE700BFF8E7FFE740F2A810C4F210001D
:108940000F21012200F038F8FFE70A200390FFE72B
:108950000398411E039110B1FFE700BFF8E7FFE75E
:1089600028E040F2A810C4F210000F21002200F00D
:1089700023F8FFE70A200290FFE70298411E0291C8
:1089800010B1FFE700BFF8E7FFE740F2A810C4F21C
:1089900010000E21002200F00FF8FFE70A200190DE
:1089A000FFE70198411E019110B1FFE700BFF8E712
:1089B000FFE7FFE706B080BD83B002908DF8071097
:1089C0008DF806209DF8071001208840009002983D
:1089D0000068009988439DF806109DF80720914093
:1089E00008430299086003B07047000080B586B064
:1089F0008DF817008DF816109DF8171045F200003D
:108A0000C4F201001429C4BF46F20000C4F2010000
:108A100004909DF81700152805DBFFE79DF8170067
:108A20001538029003E09DF817000290FFE70298C6
:108A300003909DF81600032817D0FFE7049828300C
:108A40009DF80C109DF81620002A18BF0122FFF790
:108A5000B3FF049834309DF80C109DF81620B2FA3C
:108A600082F25209FFF7A8FF0FE0049828309DF822
:108A70000C1000220192FFF79FFF019A04983430F6
:108A80009DF80C10FFF798FFFFE706B080BD0000CF
:108A900084B08DF80F008DF80E109DF80F1045F280
:108AA0000000C4F201001429C4BF46F20000C4F261
:108AB000010002909DF80F00152805DBFFE79DF8E7
:108AC0000F001538009003E09DF80F000090FFE7BD
:108AD000009801909DF80E0048B1FFE70199012030
:108AE00000FA01F20299086B1043086308E001994B
:108AF000012000FA01F20299C86A1043C862FFE738
:108B000004B0704786B08DF817008DF816109DF8E8
:108B100017000490049900201F29C8BF012003906A
:108B2000049800F01F01012088400290039946F24A
:108B30008000C4F2000000EB81000190039946F22E
:108B40008800C4F2000000EB810000909DF8160040
:108B500030B9FFE7029A019908689043086016E06F
:108B60009DF81600012806D1FFE7029A00990868CF
:108B70001043086005E0029A009908689043086075
:108B8000FFE7029A0199086810430860FFE7002098
:108B900006B0704780B586B0DDF820C08DF81300B0
:108BA0000391029201939DF813007F2812D1FFE7F1
:108BB000029946F24000C4F2000000EB81009DF8EB
:108BC00004209DF820304FF0FF3102F09DFB002083
:108BD000059024E003989DF8131002F031F90090FD
:108BE0000098B0F1FF3F03DCFFE70098059016E026
:108BF000029946F24000C4F2000000EB81000099A7
:108C00009DF804209DF8203002F07EFB9DF81300B3
:108C10009DF80C1000F030F800200590FFE7059853
:108C200006B080BD80B584B08DF80F008DF80E10B1
:108C30009DF80F000146029120B1FFE7029801283C
:108C40000BD015E09DF80E006A460F2111606621D9
:108C500003220523FFF79EFF0BE09DF80E006A46F6
:108C600000211160682104220523FFF793FF00E033
:108C7000FFE704B080BD000080B584B08DF80B0024
:108C80008DF80A109DF80B009DF80A1002F01AFCEE
:108C900001900198B0F1FF3F03DCFFE701980390DA
:108CA000BAE09DF80B00112812DCFFE79DF80B20BD
:108CB00046F20000C4F20000104320F003000199C6
:108CC00002F00302C2EBC203072202F01DFBA0E088
:108CD0009DF80B00142810DCFFE701999DF80B208C
:108CE0006FF0150000EB4200C3B246F21000C4F270
:108CF0000000022202F008FB8AE09DF80B00152814
:108D00000AD1FFE7019946F21000C4F200000722E1
:108D1000142302F0F9FA7AE09DF80B0016280AD124
:108D2000FFE7019946F21400C4F200000722002375
:108D300002F0EAFA6AE09DF80B001E2810DCFFE75B
:108D400001999DF80B206FF0260000EB4200C3B2A2
:108D500046F21400C4F20000022202F0D5FA54E0F8
:108D60009DF80B001F280AD1FFE7019946F2140075
:108D7000C4F200000722172302F0C6FA44E09DF86F
:108D80000B0020280AD1FFE7019946F21400C4F233
:108D9000000002221E2302F0B7FA34E09DF80B0017
:108DA00021280AD1FFE7019946F21800C4F2000019
:108DB0000222002302F0A8FA24E09DF80B002328E9
:108DC0000FDCFFE701999DF80B00C0EBC000EC3809
:108DD000C3B246F21800C4F20000072202F094FA6F
:108DE0000FE001999DF80B206FF0370000EB420077
:108DF000C3B246F21800C4F20000022202F084FA64
:108E0000FFE7FFE7FFE7FFE7FFE7FFE7FFE7FFE732
:108E1000FFE700200390FFE7039804B080BD000047
:108E200080B582B08DF807009DF80700012100F0A1
:108E300025F802B080BD000080B582B0019000200E
:108E40008DF80300FFE79DF80300182813DCFFE707
:108E500001989DF80310C840C00728B1FFE79DF8AE
:108E60000300FFF7DDFFFFE7FFE79DF80300013098
:108E70008DF80300E7E702B080BD000080B586B042
:108E80008DF817008DF816109DF817000146049113
:108E9000182800F2B3810499DFE811F019002A00C4
:108EA0003B004C005D006E007F009000A100B2000E
:108EB000CA00E300F4000D011E012F014001510121
:108EC00062016B0174017D0186019701A7019DF884
:108ED00016100C20C4F20000152202F0FBF99DF8D8
:108EE00016101420C4F20000122202F0F3F986E1F9
:108EF0009DF816100C20C4F20000162202F0EAF9C8
:108F00009DF816101420C4F20000122202F0E2F9BB
:108F100075E19DF816100C20C4F20000022202F048
:108F2000D9F99DF816101420C4F20000002202F0B6
:108F3000D1F964E19DF816100C20C4F20000032260
:108F400002F0C8F99DF816101420C4F200000122A6
:108F500002F0C0F953E19DF816100C20C4F2000095
:108F6000042202F0B7F99DF816101420C4F2000094
:108F7000022202F0AFF942E19DF816100C20C4F273
:108F80000000012202F0A6F99DF816101420C4F288
:108F90000000112202F09EF931E19DF816100C201C
:108FA000C4F20000052202F095F99DF81610142075
:108FB000C4F200000A2202F08DF920E19DF816109B
:108FC0000C20C4F20000082202F084F99DF816106B
:108FD0001420C4F20000092202F07CF90FE19DF890
:108FE00016100C20C4F20000092202F073F99DF85B
:108FF00016105420C4F200000C2202F06BF9FEE0BF
:109000009DF816100C20C4F200000A2202F062F94A
:109010009DF816101420C4F200000390132202F0F1
:1090200059F903989DF81610142202F053F9E6E05E
:109030009DF816100C20C4F200000B22019202F0E1
:1090400049F9019A9DF816101420C4F2000002900C
:1090500002F040F902989DF81610102202F03AF939
:10906000CDE09DF816100C20C4F200000C2202F096
:1090700031F99DF816100820C4F20000002202F019
:1090800029F9BCE09DF816100820C4F200000C225B
:1090900002F020F99DF816100C20C4F200000D22F9
:1090A00002F018F99DF816101420C4F200000622F0
:1090B00002F010F9A3E09DF816100C20C4F2000095
:1090C0000E2202F007F99DF816101420C4F20000D9
:1090D000072202F0FFF892E09DF816100C20C4F26F
:1090E00000000F2202F0F6F89DF816101420C4F2CA
:1090F00000000C2202F0EEF881E09DF816100C2022
:10910000C4F20000102202F0E5F89DF816101420B9
:10911000C4F20000082202F0DDF870E09DF816109D
:109120000C20C4F20000112202F0D4F89DF81610B1
:109130001420C4F20000042202F0CCF85FE09DF895
:1091400016100C20C4F20000122202F0C3F89DF8A1
:1091500016101420C4F20000052202F0BBF84EE005
:109160009DF816100C20C4F20000132202F0B2F891
:1091700045E09DF816100C20C4F20000142202F005
:10918000A9F83CE09DF816100C20C4F20000002263
:1091900002F0A0F833E09DF816100C20C4F2000095
:1091A000062202F097F82AE09DF816100C20C4F26F
:1091B0000000172202F08EF89DF816101420C4F259
:1091C00000000E2202F086F819E09DF816108020AB
:1091D000C4F200000090052202F07CF800989DF88F
:1091E0001610072202F076F809E09DF816100C2000
:1091F000C4F20000192202F06DF800E0FFE706B0AB
:1092000080BD000080B582B0844604988DF807C008
:109210008DF80610ADF80420ADF802308DF801008D
:109220009DF8070040009DF8061040EA411242F008
:109230000500BDF8041042F205031A430029C8BF17
:10924000104640EA8130BDF8021040F48022002927
:10925000C8BF104640EAC1409DF8011040EA0170C5
:109260000021CEF68021084342F21401C4F210011D
:10927000086002B080BD000080B584B08DF80F009A
:109280008DF80E109DF80F0098B1FFE742F20C0028
:10929000C4F210000022114602F01CF89DF80E10D6
:1092A00040F27C10C4F2100005220C2302F04EF8AC
:1092B00010E042F20C00C4F2100000900021029174
:1092C0000122019202F006F800980199029A02F038
:1092D00001F8FFE704B080BD80B584B001F0C4FAA6
:1092E0000190019818B9FFE70120039056E001981A
:1092F000017842F20800C4F210000722042302F0B1
:1093000025F800200290FFE702980F2819D8FFE700
:109310000198029900EB4100808840F2A641884202
:109320000ADBFFE7029942F20000C4F210000422B7
:109330001C2302F00BF804E0FFE7029801300290D2
:10934000E2E70298102803D3FFE70220039025E00C
:1093500001200290FFE702980F2815D8FFE7019837
:10936000029900EB4100808C40F29D41884206DB6F
:10937000FFE702980138C0B200F014F804E0FFE7FC
:10938000029801300290E6E70298102803D3FFE725
:109390000320039002E000200390FFE7039804B04D
:1093A00080BD000080B582B08DF807009DF80700F1
:1093B00000F00F0142F20000C4F210000422012369
:1093C00001F0C4FF02B080BD41F21801C4F20001F7
:1093D00045F6A520086041F21401C4F200014CF6E4
:1093E000FE2008607047000082B001908DF80310E5
:1093F0009DF803000199086002B0704783B00290A5
:109400000191ADF802200298A12801D1FFE700E008
:10941000FFE703B07047000086B005900491039207
:109420000498C0000399B0FBF1F002900298C009C3
:10943000019001990298A0EBC110029002980130AE
:1094400040080090019805994862BDF8060018B9D7
:10945000FFE7019810B9FFE7FFE7FEE701984FF635
:10946000FF71884204D1FFE705990020886207E078
:1094700001990298401A0290009805998862FFE7C6
:109480000598C06A0599C86206B0704781B000901F
:1094900000988069C0F3001001B0704781B000905F
:1094A00000988069C0F3C01001B0704781B000908F
:1094B00000988069C0F3401001B0704781B00090FF
:1094C0000098C06B01B0704780B584B003900291E2
:1094D0000192039900200863039948640399886303
:1094E0000399486003994862039988620399C862A6
:1094F0000398029AD1681269FFF78EFF029890F8DC
:1095000000C041788378C278802000EA411040EAA8
:109510004C1040EA031040EAC20001F0030140EAA7
:1095200041000399C8620298B0F80900000400BA2B
:10953000039948630198039988630299087991F81F
:1095400005C08B79CA79400240EA0C20184440EAF1
:10955000C230097A40EA81300399086304B080BDC3
:1095600080B502F091FB80BD80B582B001F01EFE97
:109570000190042000210091F5F76AFC06204FF4C9
:10958000FA71F5F765FC02F018FDFFF7A5FE45F24C
:109590007040C2F20000F5F7B7FD02F09BFB01F04E
:1095A00015FB01994CF69140C0F20220F5F764FDDD
:1095B000009802B080BD000080B582B02020FFF787
:1095C0003BFC01F0C9FD00200190FFF799F90198DB
:1095D000FFF778F902B080BD80B586B023200190F6
:1095E00000210491FFF748FB019801210391FFF747
:1095F00089FA04990198FFF7F9F901980399049AF7
:10960000FFF710F80198039B049A1946FFF770F8CA
:10961000049908200290FFF72FFB03990298FFF7A7
:1096200071FA04990298FFF7E1F902980399049AF4
:10963000FEF7F8FF0298039B049A1946FFF758F8C3
:10964000039909200590FFF7D1F903990598FFF7D1
:109650001FFA05980499FFF755FA04990598FFF742
:109660000BFB06B080BD000080B54AF25D21C0F260
:1096700002210D200022F5F74DFD80BD80B5FFF7DA
:109680009BFF00F0A9FD01210846F5F7E1FB01F081
:10969000B1FE01F04BFC00F071FC80BD80B588B0DC
:1096A0000790ADF81A100592ADF81230BDF812000F
:1096B00016300390BDF80C0000F02EF908B9FFE752
:1096C0004FE0BDF81A0040F40070ADF81A0003989E
:1096D00045F2E851C2F2000101910B6845F2F052E7
:1096E000C2F200020292B2F800C023F80C00108807
:1096F00002301080BDF81A000B68B2F800C023F8E1
:109700000C0010880230108045F2EE53C2F20003C4
:109710001888D1F800C0B2F800E02CF80E001088CC
:109720000230108018880130188007980968128864
:109730001144F6F701FD019802990A8810320A8057
:109740000068098808440599BDF81220FEF78CFCD2
:109750000299BDF8122008881044088000F022F910
:10976000FFE708B080BD000080B588B0ADF81C00F0
:10977000ADF81A100592ADF81230BDF8120008309D
:109780000390BDF80C0000F0C7F828B9FFE74FF6CA
:10979000FF70ADF81E004DE0039A45F2E850C2F2AA
:1097A0000000036845F2F051C2F200010191B1F8E6
:1097B00000C023F80C200A8802320A80BDF81A2063
:1097C0000368B1F800C023F80C200A8802320A802E
:1097D00045F2EE53C2F2000302931A88D0F800C09B
:1097E000B1F800E02CF80E200A8802320A801A88AC
:1097F00001321A80BDF81C200368B1F800C023F8BC
:109800000C200A8802320A800068098808440599F9
:10981000BDF81220FEF728FC0199BDF81220088837
:109820001044088000F0BEF8029800880138ADF8B6
:109830001E00FFE7BDF81E0008B080BD80B58CB0EB
:109840000B90ADF82A100992ADF822300020ADF847
:109850000C00ADF80A009DF82A008DF80F0045F2C3
:10986000EE50C2F20000019000880130ADF8100007
:109870000B980DF10F0100910331F6F75DFC009A92
:1098800042F6030002211323FFF76EFF01980088C0
:10989000ADF80C000B98BDF82A10099ABDF82230DB
:1098A000FFF7FCFEBDF82A0010F0300F1ED0FFE7D6
:1098B0004FF48570ADF80A00BDF82A004005002875
:1098C00007D5FFE7BDF80A0040F48060ADF80A0054
:1098D000FFE70020ADF80F00BDF80A1042F60210B5
:1098E0000DF10F020223FFF73FFFFFE7BDF80C0069
:1098F0000CB080BD80B586B00590059801A9009197
:10990000F6F71AFC009A4FF4205002211023FFF7BB
:109910002BFF06B080BD000081B0ADF80200BDF89D
:1099200002000230ADF8020045F2F050C2F2000031
:109930000088BDF80210084445F2EC51C2F2000163
:109940000988884203DCFFE7012001B07047FFE788
:10995000FEE7000045F2E850C2F2000000687047E0
:1099600080B582B00190ADF80210019845F2E8513F
:10997000C2F200010860BDF8020045F2EC51C2F2EB
:109980000001088045F2F051C2F200010020088079
:1099900045F2EE51C2F200010120088000F002F809
:1099A00002B080BD45F2E852C2F20002136845F2EF
:1099B000F051C2F20001B1F800C0002003F80C0021
:1099C00012680988114448707047000080B586B05D
:1099D00084460898ADF814C0ADF81210ADF8102008
:1099E0000393ADF80A00BDF81400BDF81210BDF8DD
:1099F0001020039BBDF80AC0EE46CEF800C001F06F
:109A0000B9FDADF80800BDF90800013028B1FFE745
:109A1000BDF80800ADF8160003E00020ADF8160010
:109A2000FFE7BDF8160006B080BD000010B586B097
:109A300084460998DDF820E0ADF812C0ADF81010AA
:109A4000ADF80E20ADF80C30ADF80A00BDF81200EC
:109A5000BDF81010BDF80E20BDF80C30DDF820C0A8
:109A6000BDF80A40EE46CEF80440CEF800C001F042
:109A7000CFFDADF80800BDF90800013020B1FFE7C7
:109A8000BDF90800059002E000200590FFE7059869
:109A900006B010BD80B582B045F6BC60C2F20000D1
:109AA000007870B1FFE700230093184619461A4664
:109AB000DCF7A2FF009845F6BC61C2F20001087015
:109AC000FFE7DCF78DFB45F2C840C2F200009B3097
:109AD000019045F27050C2F2000000884FF6FF710D
:109AE00088420CD0FFE745F27050C2F200000088B7
:109AF000DCF79AFB01980121DCF74AFB04E00198AE
:109B00000121DCF745FBFFE7002000F0E9FF02B090
:109B100080BD000080B588B00690ADF816100492A4
:109B2000039300200290FFE70298022814DCFFE76D
:109B30000698029A805C4CF60411C0F20221895CFE
:109B4000884201D1FFE703E06FF0040007903CE09A
:109B5000029801300290E7E76FF0050000900020C6
:109B60000190FFE7019845F26841C2F200010968DF
:109B7000884227DAFFE70698029908444CF6041158
:109B8000C0F202214968019A01EB02118A7AFEF7BC
:109B900090FA90B9FFE74CF60410C0F2022040683A
:109BA000019900EB0110D0F80CC00698BDF8161012
:109BB000049A039BE047009004E0FFE7019801301E
:109BC0000190CFE700980790FFE7079808B080BDA5
:109BD00080B54CF6C800C0F202200B2100F0A0FBBB
:109BE00080BD000080B54CF6D300C0F202200E21EB
:109BF00000F096FB80BD0000B0B590B00E90ADF8BF
:109C000036100C920B930E9808300A90BDF836006F
:109C1000132829D8FFE745F2C840C2F20000069099
:109C2000243001F05DF9DDF818C00C989CF8242070
:109C30009CF825309CF826109CF827E09CF82840DA
:109C40009CF82950EC46CCF80C50CCF80840CCF8E5
:109C500004E0CCF800104CF6C771C0F2022102F00B
:109C6000B1F900200F908CE000200990FFE70998DF
:109C70000B2863DCFFE70A980999405C30280DDB6C
:109C8000FFE70A980999405C392807DCFFE70A9842
:109C90000999405C30388DF823002BE00A98099927
:109CA000405C61280DDBFFE70A980999405C662853
:109CB00007DCFFE70A980999405C57388DF82300C4
:109CC00017E00A980999405C41280DDBFFE70A98E4
:109CD0000999405C462807DCFFE70A980999405C2F
:109CE00037388DF8230003E06FF006000F9048E04E
:109CF000FFE7FFE7099800EBD07121F00101401A5E
:109D000058B9FFE79DF823000001099901EBD171D3
:109D10004A100DF11D0188540BE09DF8233009987D
:109D200000EBD07042100DF11D01885C184388547F
:109D3000FFE7FFE709980130099098E745F2C8412D
:109D4000C2F20001BDF821000885DDF81D0048625F
:109D5000012081F8990001F0ABFA0DF11D0001F02E
:109D6000BFF8A120002205921146DBF7B5FB0C9845
:109D70004CF6E101C0F2022102F024F905980F909F
:109D8000FFE70F9810B0B0BD80B58AB00890ADF86D
:109D90001E1006920593089807300490BDF81E0027
:109DA000122804D8FFE76FF0060009908EE000202B
:109DB0000390FFE703980B2863DCFFE704980399FF
:109DC000405C30280DDBFFE704980399405C39289C
:109DD00007DCFFE704980399405C30388DF80B00EE
:109DE0002BE004980399405C61280DDBFFE70498A1
:109DF0000399405C662807DCFFE704980399405C00
:109E000057388DF80B0017E004980399405C4128FF
:109E10000DDBFFE704980399405C462807DCFFE769
:109E200004980399405C37388DF80B0003E06FF01D
:109E3000060009904AE0FFE7FFE7039800EBD071C6
:109E400021F00101401A58B9FFE79DF80B0000010D
:109E5000039901EBD1714A100DF1050188540BE013
:109E60009DF80B30039800EBD07042100DF1050106
:109E7000885C18438854FFE7FFE70398013003909C
:109E800098E745F2C841C2F20001BDF80900A1F807
:109E90009F00DDF80500C1F89B000020009081F8CC
:109EA000990001F005FA0DF1050001F019F8009A8A
:109EB00092201146DBF710FB06984CF6E101C0F248
:109EC000022102F07FF800980990FFE709980AB094
:109ED00080BD000080B588B00690ADF816100492E1
:109EE000039306980730029001208DF80700BDF813
:109EF00016009DF807100731884204D2FFE76FF083
:109F00000600079037E00298007830280FD1FFE76D
:109F100045F2C841C2F20001012081F8990001F028
:109F2000C7F9A12000221146DBF7D6FA19E0029802
:109F30000078312810D1FFE745F2C841C2F2000194
:109F40000020009081F8990001F0B2F9009A922067
:109F50001146DBF7C1FA03E06FF0060007900AE054
:109F6000FFE704984CF6E101C0F2022102F02AF862
:109F700000200790FFE7079808B080BD80B54CF639
:109F8000E700C0F202200B2100F0CAF980BD0000FA
:109F900080B584B00390029145F2E870C2F20000EF
:109FA00000696FF08051884211D3FFE745F2E870F5
:109FB000C2F2000081680069884208D1FFE745F2DB
:109FC000E871C2F20001002008618860FFE745F2F5
:109FD000E870C2F20000C06802990844B0F5487FFA
:109FE0000CDCFFE745F2E870C2F20000C1680844EB
:109FF00014300399029AFEF737F818E045F2E8703A
:10A00000C2F20000C168C1F548710191C168143005
:10A01000009008440399019AFEF726F800980399E6
:10A02000019B1944029AD21AFEF71EF8FFE7029A22
:10A0300045F2E870C2F20000C1681144C160029AA2
:10A04000016911440161C068B0F5487F09DBFFE791
:10A0500045F2E871C2F20001C868A0F54870C86016
:10A06000FFE700F0C7FC04B080BD000081B0ADF890
:10A070000200BDF8022045F66830C2F200004168D7
:10A0800011444160BDF8022081681144816040683C
:10A09000B0F5487F09DBFFE745F66831C2F2000101
:10A0A0004868A0F548704860FFE701B070470000BD
:10A0B00083B0019045F66830C2F200008168006903
:10A0C000401A0090009818B9FFE7002002901EE0A7
:10A0D00000980199884203DDFFE701980090FFE7AF
:10A0E00045F66830C2F20000406800990844B0F5B7
:10A0F000487F09DDFFE745F66830C2F2000040689E
:10A10000C0F548700090FFE700980290FFE70298C2
:10A1100003B0704745F66830C2F200004168084459
:10A120001430704780B545F2E870C2F200008168D3
:10A130000069884201D0FFE726E042F20000C4F245
:10A140000100FFF7A3F9012809D1FFE745F66830C0
:10A15000C2F2000081680069884201D0FFE713E085
:10A16000FFE742F20000C4F20100FFF797F901286F
:10A1700001D0FFE7F5E745F6AA61C2F200010888C1
:10A1800000F002000880FFE780BD000080B582B0CB
:10A1900045F66830C2F2000041688368C268006911
:10A1A000EC46CCF800004CF69F60C0F20220F4F7B9
:10A1B00063FF45F2E870C2F2000041688368C2683C
:10A1C0000069EC46CCF800004CF68060C0F202203A
:10A1D000F4F752FF02B080BD80B586B04AF6A150B8
:10A1E000C0F20220694608604CF6C060C0F202204E
:10A1F00033210122039200230593FBF71BF90599F4
:10A200000246039845F6CC63C2F200031A600322AB
:10A210000492FAF777F9059B0146049845F6D46253
:10A22000C2F20002116069464B6008604AF2D560D4
:10A23000C0F202204CF6BE61C0F202219622FAF76B
:10A240008DFE059845F66831C2F20001086045F2BE
:10A25000E871C2F20001086006B080BD80B582B02E
:10A260000190FFE742F20000C4F20100FFF726F977
:10A270000090009808B9FFE710E0009842F244010E
:10A28000C4F2010108609DF80000C006002804D552
:10A29000FFE7002000F070F8FFE7E3E7002002B0DE
:10A2A00080BD000080B582B0FFE745F2E871C2F2E0
:10A2B00000018868096988422FD2FFE7FFE742F270
:10A2C0000000C4F20100FFF7F1F8012801D1FFE717
:10A2D000F5E745F2E870C2F20000019041680844D9
:10A2E000017D42F20000C4F20100FFF77DF8019801
:10A2F0004168013141608168013181604068B0F599
:10A30000487F09DBFFE745F2E871C2F200014868C7
:10A31000A0F548704860FFE7C7E702B080BD0000C5
:10A3200080B584B003900291039808B9FFE721E05B
:10A3300000200190FFE701980299884219DAFFE7AF
:10A34000FFE742F20000C4F20100FFF7AFF8012876
:10A3500001D1FFE7F5E703980199415C42F2000063
:10A36000C4F20100FFF740F8FFE7019801300190C7
:10A37000E1E7FFE704B080BD80B582B08DF807004B
:10A3800000208DF80600FFE742F20000C4F2010051
:10A39000FFF77CF801280FD0FFE742F20000C4F27B
:10A3A000010000688DF805009DF8050000F0B8F880
:10A3B00001208DF80600E7E79DF80700012812D17B
:10A3C000FFE745F62430C2F200000068B0F5FA6FEE
:10A3D00008D8FFE745F62431C2F2000108680130D1
:10A3E0000860FFE706E045F62431C2F200010020D4
:10A3F0000860FFE79DF80600D0B1FFE79DF8070071
:10A4000018B9FFE700F0E0FA11E045F26C40C2F243
:10A410000000007818B9FFE700F0D6FA06E045F62C
:10A420002031C2F2000101200870FFE7FFE71CE0C5
:10A4300045F62030C2F200000078A8B1FFE745F6EB
:10A440002430C2F200000068142803D3FFE700F0B4
:10A45000A5FA02E000F0B8FAFFE745F62031C2F2B3
:10A46000000100200870FFE7FFE79DF8070045F2B4
:10A470006C41C2F20001087002B080BD80B586B0A8
:10A4800045F66831C2F200018A680869801A0590B1
:10A490004020ADF81200CB6801F114000022C25434
:10A4A00049680844BDF8141045F62832C2F200028B
:10A4B0000DF11203FFF72EFB0190019818BBFFE787
:10A4C00045F62830C2F20000FDF7ECFD0390BDF820
:10A4D00012000399884204DDFFE70398ADF81200EB
:10A4E000FFE7BDF8121045F62830C2F20000FFF772
:10A4F00017FF45F66831C2F200010020C86008610C
:10A50000486088600AE04CF66D60C0F20220F4F703
:10A51000B3FDFFF73BFE00F057FAFFE706B080BD42
:10A5200081B08DF8030045F66830C2F20000006982
:10A530006FF08051884211D3FFE745F66830C2F2D0
:10A54000000081680069884208D1FFE745F668315C
:10A55000C2F20001002008618860FFE79DF8031047
:10A5600045F66830C2F20000C26802441175C16845
:10A570000131C160016901310161C068B0F5487FF6
:10A5800009DBFFE745F66831C2F20001C868A0F5B3
:10A590004870C860FFE701B07047000080B584B024
:10A5A0008DF80F00ADF80C100292ADF8063002984D
:10A5B0000078A02810D1FFE7029800F0CFF980784A
:10A5C00008B1FFE708E04CF64E70C0F20220F4F745
:10A5D00053FDFFF7FDFAFFE704B080BD81B00090A6
:10A5E0000098807801B0704780B545F27450C2F28F
:10A5F00000000078FF2821D0FFE7DBF703FE45F6D7
:10A60000AC60C2F20000006801280FD1FFE745F6F8
:10A61000AC61C2F200010020086045F27451C2F240
:10A620000001FF200870FFF735FA06E045F6AC613F
:10A63000C2F2000101200860FFE7FFE780BD0000D3
:10A6400080B582B0019000910198016842684CF693
:10A650002B50C0F20220F4F70FFDFFE7FEE70000E9
:10A6600070B588B007900691DDF81CC0CDF814C015
:10A67000DCF81810DCF81420DCF81C30DCF80000E2
:10A68000DCF804E0DCF80840DCF80C50DCF8106082
:10A69000EC46CCF81060CCF80C50CCF80840CCF864
:10A6A00004E0CCF800004CF6B340C0F20220F4F70E
:10A6B000E3FCFFE7FEE7000080B582B00190009167
:10A6C00001994CF61F50C0F20220F4F7D5FCFFE7C9
:10A6D000FEE7000080B582B00190FFE745F6D46048
:10A6E000C2F2000000684FF0FF31FAF727FB00903C
:10A6F0000098012801D0FFE7F0E745F66830C2F284
:10A700000000006850B9FFE745F2E870C2F20000AF
:10A71000006818B9FFE7FFF705FDDFE745F6683089
:10A72000C2F200000078800700280BD5FFE7FFF792
:10A73000A5FE45F66831C2F20001086820F002006B
:10A740000860FFE745F66830C2F200000078400775
:10A7500000280ED5FFE7C22000221146DAF7BCFE22
:10A7600045F66831C2F20001086820F00400086074
:10A77000FFE745F2E870C2F2000000780007002809
:10A780000BD5FFE7FFF78EFD45F2E871C2F200013D
:10A79000086820F008000860FFE79FE780B582B0F6
:10A7A0000190932000221146DAF796FE02B080BD98
:10A7B00080B596B0159014911392FFE71398012875
:10A7C00031DBFFE700200290FFE713990020012909
:10A7D000019007DBFFE702990020102938BF012014
:10A7E0000190FFE70198C00788B1FFE7149800F0D7
:10A7F0006DFC029A03A941F82200029801300290F0
:10A80000139801381390149804301490DDE71598CC
:10A8100002998A0003A901F091FB0299159800EBB7
:10A8200081001590CAE716B080BD000083B0029089
:10A83000ADF8061003B0704780B582B00190FEF706
:10A84000C3FD00F0FDF902B080BD000080B582B00C
:10A8500001904FF0FF30009001986946042200F00B
:10A8600027FC02B080BD000080B582B000F00EF879
:10A8700030B9FFE741F27800C0F20020019002E019
:10A8800000200190FFE7019802B080BD80B584B040
:10A8900000F07AF918B1FFE70020039041E04FF48F
:10A8A000805000F013FC0290029844F24371C4F609
:10A8B0004E11884203D0FFE70120039031E041F2BE
:10A8C000040000F003FC0290029845F25301C4F624
:10A8D0004901884203D0FFE70220039021E041F2C2
:10A8E0000000C0F200200190FFF7B0FF01984FF484
:10A8F00080511E22FFF75CFF41F27800C0F2002079
:10A900004FF488512422FFF753FF41F20810C0F2A0
:10A9100000204FF400515022FFF74AFF002003901F
:10A92000FFE7039804B080BD81B00090009802302A
:10A9300001B0704781B000900098023001B07047BC
:10A9400083B00290ADF806100092BDF806000338FF
:10A95000009908800298013003B0704781B00090E0
:10A960000098023001B0704781B00090009802302A
:10A9700001B0704780B582B001900198F8F7A4FF4C
:10A9800030B1FFE701980021DAF7CEFB009002E03A
:10A9900000200090FFE7009802B080BD80B582B033
:10A9A00045F66831C2F20001086840F00200086014
:10A9B0000020019045F6D460C2F20000006801A9B1
:10A9C000F9F756FF02B080BD80B582B045F6683118
:10A9D000C2F20001086840F0040008600020019005
:10A9E00045F6D460C2F20000006801A9F9F740FF03
:10A9F00002B080BD80B582B045F2E871C2F20001BC
:10AA0000086840F0080008600020019045F6D46016
:10AA1000C2F20000006801A9F9F72AFF02B080BD68
:10AA200081B000900098807801B0704781B00090AC
:10AA30000098007801B0704781B000900098043011
:10AA400001B0704780B582B001900198B0F8010064
:10AA500045F27051C2F20001088045F6A060C2F2D2
:10AA6000000000686A464FF0FF31116003210023A7
:10AA70001A46FAF74BFD019800F028FF02B080BD9E
:10AA800080B582B0019045F27051C2F200014FF6DC
:10AA9000FF700880FEF7FEFF02B080BD81B000901D
:10AAA0000098B0F8010045F27251C2F2000108802E
:10AAB00001B0704780B582B0019045F27251C2F288
:10AAC00000014FF6FF70088000F05EFC4CF6FE02BD
:10AAD000C0F2022201210846DBF7E8FE02B080BD89
:10AAE00080B584B08DF80F009DF80F0045F27451C9
:10AAF000C2F2000108709DF80F00FF2801D1FFE7A6
:10AB000040E09DF80F104CF64050C0F20220F4F7E0
:10AB1000B3FA9DF80F00FE280ED1FFE74CF6364140
:10AB2000C0F2022168464160012202600023104603
:10AB30001146DBF7AFFB12E04CF63641C0F20221C2
:10AB4000684641600122026045F2C840C2F200003E
:10AB500000F19B0300201146DBF79CFBFFE745F665
:10AB6000A060C2F2000000680290FAF771FA024693
:10AB700002986B464FF0FF31196002210023FAF76B
:10AB8000C5FCFFE704B080BD82B041F20000C0F216
:10AB9000002000900098006844F24371C4F64E1102
:10ABA00088420CD1FFE70098406845F25301C4F693
:10ABB0004901884203D1FFE70120019002E0002013
:10ABC0000190FFE7019802B07047000080B584B0A3
:10ABD0004AF63900C0F20220694608604CF602705D
:10ABE000C0F202204FF4A0410122029200230393FD
:10ABF000FAF720FC03990246029845F6A463C2F2D4
:10AC000000031A600322F9F77DFC039B45F6C0613F
:10AC1000C2F20001086045F6C460C2F20000694655
:10AC20004860052008604AF65D50C0F202204CF6EC
:10AC30001271C0F202218022FAF790F904B080BDAF
:10AC400080B582B045F6AA60C2F20000019001888A
:10AC50004CF6ED60C0F20220F4F70EFA019800887D
:10AC600018B1FFE700F052F800E0FFE702B080BD46
:10AC700080B582B08DF807000020009045F2755035
:10AC8000C2F2000000789DF80710884213D0FFE759
:10AC900045F6AA61C2F2000108889DF8073001223A
:10ACA0009A40104308809DF8070045F27551C2F2A2
:10ACB00000010870FFE745F6A860C2F200000078C6
:10ACC00008B1FFE71FE045F6A861C2F200010120CC
:10ACD0000870FEF771FC45F6C060C2F20000006823
:10ACE0006946F9F7C5FD009860B1FFE74EF60451DB
:10ACF000CEF200014FF080500860BFF34F8FBFF3DA
:10AD00006F8FFFE7FFE702B080BD000080B582B023
:10AD100045F6C860C2F20000007808B1FFE71AE00B
:10AD200045F6A460C2F2000000680190FAF796F9B7
:10AD3000024601986B460021196045F6DC63C2F2B9
:10AD400000030621FAF7E2FB45F6C861C2F20001F2
:10AD500001200870FFE702B080BD000080B582B01E
:10AD60000190FFE745F6C060C2F2000000684FF0B6
:10AD7000FF31F9F7E3FF00900098012801D0FFE7C9
:10AD8000F0E74CF6E060C0F20220F4F775F901201C
:10AD90000021F4F75DF8FFF7B9FFFEF7E1FBE1E70B
:10ADA00080B582B001900120FFF7E6FA02B080BDC5
:10ADB00084B08DF80E008DF80D109DF80D00014641
:10ADC000029120B1FFE7029801281CD02FE09DF8E6
:10ADD0000E0001460191012808D0FFE701980228E2
:10ADE00008D0FFE70198032808D00BE005208DF874
:10ADF0000F0020E006208DF80F001CE007208DF8E2
:10AE00000F0018E013E09DF80E00014600910128A4
:10AE100004D0FFE70098022804D007E003208DF853
:10AE20000F0008E002208DF80F0004E0FFE700208B
:10AE30008DF80F00FFE79DF80F0004B07047000089
:10AE400088B006908DF817100698C11700EB517066
:10AE5000C0100490069800F007018020C8400390BD
:10AE6000002002909DF81700013801909DF817000E
:10AE70004CF61812C0F20222132110FB01200090A0
:10AE800000980499405C0399084204D1FFE74FF011
:10AE9000FF30079020E0FFE70198002819D4FFE772
:10AEA00001984CF61812C0F20222132100FB012077
:10AEB000009000980499405C0399084204D0FFE791
:10AEC000029801300290FFE7FFE7019801380190F6
:10AED000E2E702980790FFE7079808B07047000084
:10AEE00080B582B001904CF6E650C0F20220F4F733
:10AEF000C3F800200090FFE7009805280EDCFFE76C
:10AF000001980099415C4CF6F250C0F20220F4F72F
:10AF1000B3F8FFE7009801300090EDE74CF6B04041
:10AF2000C0F20220F4F7A8F802B080BD10B584B0DA
:10AF30004CF6D650C0F20220A821F4F79DF845F255
:10AF4000C840C2F2000090F89900F0B9FFE745F25E
:10AF5000C84CC2F2000C9CF89B109CF89C209CF8FA
:10AF60009D309CF89E009CF89FE09CF8A040EC4629
:10AF7000CCF80840CCF804E0CCF800004CF6F850CF
:10AF8000C0F20220F4F778F834E045F2C840C2F28B
:10AF9000000090F8990001281ED1FFE745F2C84C47
:10AFA000C2F2000C9CF824109CF825209CF8263056
:10AFB0009CF827009CF828E09CF82940EC46CCF847
:10AFC0000840CCF804E0CCF800004CF63460C0F245
:10AFD0000220F4F751F80CE045F2C840C2F200003C
:10AFE00090F899104CF6BE50C0F20220F4F744F8E5
:10AFF000FFE7FFE704B010BD80B586B0059004916F
:10B00000ADF80E2005980290912804D0FFE7029831
:10B01000932834D048E0F3F7E5FE07207821F3F7D2
:10B0200017FF45F2C840C2F2000090F8990048B9F5
:10B03000FFE7FEF72FFD4CF67050C0F20220F4F748
:10B040001BF818E045F2C840C2F2000090F89900E1
:10B0500001280FD1FFE74CF6FE02C0F202220121C7
:10B060000846DBF723FC4CF68650C0F20220F4F7CA
:10B0700003F8FFE7FFE70320FFF7FAFD15E045F2CD
:10B080007450C2F20000019001784CF6A750C0F253
:10B090000220F3F7F1FF01980078FF2803D0FFE7C3
:10B0A000FFF7A2FAFFE700E0FFE706B080BD00006F
:10B0B00080B584B003900291019203980299019A9D
:10B0C00043F69B33984704B080BD000080B596B02E
:10B0D00015904CF64841C0F2022102A80190482286
:10B0E000FCF7C2FF40F2C97080470199159800F043
:10B0F000EDF8149040F60D008047149816B080BD0E
:10B1000080B58AB0099008910792069303208DF8C4
:10B11000040000218DF8051001208DF806008DF83F
:10B1200007108DF808008DF809008DF80A008DF8D9
:10B130000B108DF80C101C218DF80D108DF80E00E1
:10B1400008980490079805900998069A01A9FEF7B7
:10B15000BBF90AB080BD000080B582B04FF4081082
:10B16000FDF76AFE09201621FDF786FD08200090F4
:10B170000021FDF781FD009901200190FDF752FDAE
:10B1800000980199FDF7BEFC42F20000C4F20100F4
:10B1900043F20061C0F26E114FF4E1321023FFF769
:10B1A000AFFFFEF761FA02B080BD000080B58CB041
:10B1B0000020029045F27850C2F20000006800685A
:10B1C00045F2C841C2F20001096888421ED1FFE77A
:10B1D00045F27850C2F200000068D0F8A40045F2B1
:10B1E000C841C2F20001D1F8A41088420ED1FFE795
:10B1F00045F27850C2F200000068406845F2C8414C
:10B20000C2F200014968884240D0FFE7F3F748FFE7
:10B210000B900B9845F2C841C2F20001019181F8F0
:10B2200098000B9881F829000B98000A0B900B9856
:10B2300081F828000B98000A0B900B9881F82700E2
:10B240000B98000A0B900B9881F82600712081F86A
:10B250002500FB2081F824000B9A4CF6D361C0F244
:10B26000022103A8009000F0ADFE0099019839304A
:10B270000E22FCF70BFF009901980E300F22FCF70D
:10B2800005FF00F015F8012002900EE045F278501D
:10B29000C2F20000016845F2C840C2F20000A822D4
:10B2A000FCF7E2FE02200290FFE702980CB080BD9E
:10B2B00080B545F27850C2F20000006845F2C841FE
:10B2C000C2F20001A822FFF7F3FE80BD01F10101E7
:10B2D0000847000083B002908DF807108DF8062013
:10B2E0009DF806100120884000900298006800999F
:10B2F00088439DF807109DF8062091400843029965
:10B30000086003B07047000085B0049003918DF889
:10B310000B208DF80A309DF80B1001208840013871
:10B32000019001989DF80A108840C043009004984D
:10B330000068009908400399019A11409DF80A207D
:10B34000914008430499086005B0704784B00390A9
:10B3500002918DF807208DF806309DF80710012026
:10B36000884001389DF806108840009003980068D6
:10B370000099884302999DF806209140084303995B
:10B38000086004B07047000080B58EB045F2C84038
:10B39000C2F2000000F1240100200D90DBF75EF9FD
:10B3A0000D986A469062506201210C911162D06141
:10B3B0009161642353611061D060906051600721F6
:10B3C000116013214FF448731A46DBF7ADFA0D985C
:10B3D0004CF6F202C0F202220B21DBF75BFA0C9969
:10B3E0000D984CF69042C0F20222DBF765FB0EB0DE
:10B3F00080BD000080B582B0092041F29411F3F7BE
:10B4000027FD0E204FF42F71F3F722FD002001904D
:10B410000A21E0F791FC0198694608600120462165
:10B4200005220223FDF7EEFE01980321FDF724FF1C
:10B4300002B080BD80B586B0059004914CF698505E
:10B44000C0F20220F3F718FE4AF29D70C0F202200B
:10B45000694608604CF6BC50C0F202204FF4A0517F
:10B46000012200230393F9F7E5FF45F6A061C2F23C
:10B470000001086049F6CD10C0F2022049F62D21E6
:10B48000C0F20221D9F770FC45F6B060C2F20000AC
:10B490004BF65951C0F2022102914160DDF74AFF9B
:10B4A0000298D9F70BFD45F2F250C2F200004FF4BA
:10B4B000FA71FEF755FA00F06BFBFEF7DFF8039820
:10B4C00006B080BD85B08DF80F008DF80E109DF888
:10B4D0000F002A2804DBFFE74FF0FF3004903EE026
:10B4E0009DF80F004CF61812C0F20222132110FB37
:10B4F00001200290002001909DF80E00013800907C
:10B5000002989DF80E10CA08805C01F007028021A5
:10B51000D140084204D1FFE74FF0FF3004901EE015
:10B52000FFE70098002817D4FFE702980099CA1790
:10B5300001EB5272D210805C01F007028021D140F1
:10B54000084204D0FFE7019801300190FFE7FFE7D0
:10B55000009801380090E4E701980490FFE7049810
:10B5600005B0704780B5912000221146D9F7B4FF8D
:10B5700080BD000080B584B084460698ADF80CC04C
:10B58000ADF80A10ADF808200193ADF80200BDF83F
:10B590000A0045F2E251C2F20001098888420FD147
:10B5A000FFE7019840B1FFE70199FF200870BDF85F
:10B5B0000200ADF80E0026E00120ADF80E0022E0FA
:10B5C000BDF80A0045F2E251C2F2000109880131DA
:10B5D000884213D1FFE7019860B1FFE745F6D860D4
:10B5E000C2F20000007801990870BDF80200ADF8C1
:10B5F0000E0008E00120ADF80E0004E04FF6FF70E9
:10B60000ADF80E00FFE7BDF90E0004B080BD0000EC
:10B6100080B584B084460798DDF818E0ADF80CC01A
:10B62000ADF80A10ADF80820ADF80630ADF804000A
:10B63000BDF80A0045F2E251C2F2000109888842D1
:10B640000CD1FFE70120FFF713FB0698BDF80410AB
:10B65000FEF79EFC0020ADF80E0026E0BDF80A00C3
:10B6600045F2E251C2F2000109880131884217D146
:10B67000FFE706980088012807D1FFE745F6D86163
:10B68000C2F200010120087006E045F6D861C2F25E
:10B69000000100200870FFE70020ADF80E0004E074
:10B6A0004FF6FF70ADF80E00FFE7BDF90E0004B0D5
:10B6B00080BD000080B588B08DF81F00ADF81C106B
:10B6C0000692ADF816300698007801460391A0283E
:10B6D0004AD0FFE70398A22873D1FFE70698FFF747
:10B6E00029F9049004980A304DF20701C0F20221B2
:10B6F0001022FCF7DEFCA0B9FFE70498811C45F29C
:10B700007C50C2F20000029016301822FCF7ACFC0C
:10B710000298018B4CF61670C0F20220F3F7ACFCD5
:10B7200021E004980A304CF6F771C0F20221102291
:10B73000FCF7BFFCA8B9FFE70498811C45F27C50D8
:10B74000C2F20000019040301822FCF78DFC0198F5
:10B75000B0F842104CF6A370C0F20220F3F78CFC54
:10B7600000E0FFE7FFE72DE00698FFF7F7F88078A5
:10B7700008B1FFE726E045F27C50C2F20000008BE2
:10B780004FF6FF7188420ED1FFE74CF65C70C0F2B5
:10B790000220F3F771FC45F27C50C2F200000088F1
:10B7A000DAF742FD0CE045F27C52C2F2000232F8B8
:10B7B000161B4BF2F970C0F20220DBF722FDFFE707
:10B7C00000E0FFE708B080BD80B582B0FF20ADF893
:10B7D0000600FFE7BDF80600FEF76AFCADF80400BE
:10B7E000BDF8040010B9FFE702B080BDBDF8040049
:10B7F000FEF73CFCEEE7000080B588B08DF81F0036
:10B80000ADF81C100692ADF8163006980078014687
:10B810000391A02826D0FFE70398A42853D1FFE77F
:10B820000698FFF781F8049004980430FFF7A2F817
:10B8300042F60211884214D1FFE70498811C45F2B8
:10B840007C50C2F2000002902E301222FCF70CFC59
:10B850000298C18D4CF69370C0F20220F3F70CFCF5
:10B86000FFE731E00698FFF779F8807808B1FFE745
:10B870002AE045F27C50C2F20000C08D4FF6FF7105
:10B8800088421FD0FFE745F27C50C2F200000190D1
:10B890000288038B58304BF69521C0F20221DBF76A
:10B8A0002CFE01980188C28D45F26E40C2F2000064
:10B8B0006B4618604AF29D50C0F202200223DCF76A
:10B8C00091F9FFE700E0FFE708B080BD80B582B0E6
:10B8D00001900198B0F8010045F27C51C2F20001DC
:10B8E00008800198B0F801104BF6D920C0F2022070
:10B8F0004DF21702C0F20222DBF727FD02B080BD35
:10B9000081B000900098B0F8010045F2E651C2F213
:10B910000001088001B0704780B582B0019045F207
:10B92000E651C2F200014FF6FF70088045F27C51EB
:10B93000C2F20001088045F6D861C2F20001002081
:10B940000870FEF74FF902B080BD000080B584B0EA
:10B950000020ADF80E00029045F2E650C2F2000061
:10B9600000880DF10E01DBF75BFDBDF80E0003381A
:10B97000ADF80E00FFE7BDF80E00FEF799FBADF83D
:10B980000C00BDF80C0008B9FFE731E0FEF7C2FB80
:10B99000029045F2E650C2F20000008845F27C5168
:10B9A000C2F20001098BBDF80C20029BDCF7C7F93D
:10B9B0000190019898B9FFE7BDF80C2045F6B861F1
:10B9C000C2F200010868104408600298BDF80C102B
:10B9D000FEF72CFFBDF80C00FEF748FB07E045F230
:10B9E000E650C2F200000088D8F731FD00E0C2E75F
:10B9F00004B080BD80B584B00020ADF80E00029088
:10BA000045F2E650C2F200000088D9F72FF9ADF8F0
:10BA10000E00BDF80E000338ADF80E00FFE7BDF8CC
:10BA20000E00FEF745FBADF80C00BDF80C0008B9A0
:10BA3000FFE72DE045F2E650C2F200000088D9F79A
:10BA400007F940B9FFE745F2E650C2F2000000886E
:10BA5000D9F73AFA1CE0FEF75DFB029045F2E6509A
:10BA6000C2F20000008845F2E251C2F200010988EA
:10BA7000029ABDF80C30D9F795F90190019828B9D0
:10BA8000FFE7BDF80C00FEF7F1FA00E0C7E7C6E7F4
:10BA900004B080BD80B586B08DF81700ADF81410E5
:10BAA0000492ADF80E3004980078A72812D1FFE771
:10BAB0000498BDF80E100DF10602FEF741FF02904A
:10BAC0000120FFF7D5F802980230BDF80610FEF706
:10BAD0005FFAFFE706B080BD80B586B08DF817002D
:10BAE000ADF814100492ADF80E30049800780146B9
:10BAF0000291A0281BD0FFE70298A12845D1FFE7BB
:10BB00000498FEF731FF811C45F27C50C2F2000020
:10BB1000019002301422FCF7A7FA0198418882882C
:10BB20004CF6B170C0F20220F3F7A6FA2EE00498AA
:10BB3000FEF714FF807808B1FFE727E045F27C505C
:10BB4000C2F2000040884FF6FF7188420ED0FFE736
:10BB500045F27C50C2F200000188428883884BF293
:10BB6000B560C0F20220DBF7BCFB0DE04CF67B7049
:10BB7000C0F20220F3F780FA45F27C50C2F20000D6
:10BB80000088DAF751FBFFE700E0FFE706B080BD71
:10BB900080B584B04DF21700C0F20220FDF7AAFE76
:10BBA0004DF20700C0F202204FF48B710091002388
:10BBB00001931A46FDF742FE0099019B45F2E252BD
:10BBC000C2F20002029210804CF6F770C0F202201E
:10BBD0001A46FDF733FE45F2E051C2F2000103912F
:10BBE00008804CF6E770C0F2022045F2E452C2F23F
:10BBF000000202210123FDF721FE02990398098822
:10BC000002884CF62970C0F20220F3F735FA04B02E
:10BC100080BD000080B584B003900291ADF806208D
:10BC200003980090C12804D0FFE70098C22801D0F3
:10BC300026E026E045F6D860C2F20000007818B190
:10BC4000FFE7FFF7D7FE1AE045F27C50C2F2000092
:10BC500000884FF6FF7188420DD0FFE745F27C5017
:10BC6000C2F20000008B4FF6FF71884203D0FFE75D
:10BC7000FFF76CFE02E0FFF7A7FDFFE7FFE700E03C
:10BC8000FFE704B080BD000080B584B045F6D06009
:10BC9000C2F20000006801281AD0FFE745F6CC6028
:10BCA000C2F2000000680290F9F7D2F90246029849
:10BCB0006B464FF0FF311960012103910023F9F722
:10BCC00025FC039845F6D061C2F200010860FFE749
:10BCD00004B080BD40F26011C4F21001C820C4F667
:10BCE000422008607047000080B584B00390029144
:10BCF000ADF80620039890280BD3FFE7039894280B
:10BD000007D8FFE703980299BDF80620FFF774F9FA
:10BD100020E00398A0280BD3FFE70398A22807D8B8
:10BD2000FFE703980299BDF80620FDF767FB10E0D6
:10BD30000398C0280BD3FFE70398C42807D8FFE770
:10BD400003980299BDF80620FFF764FF00E0FFE7C3
:10BD5000FFE7FFE704B080BD80B588B08DF81F0015
:10BD6000ADF81C100692ADF816300698FEF75EFE90
:10BD70008DF815009DF81F00042801D0FFE7DBE0D7
:10BD80009DF8150001460191052800F08A80FFE723
:10BD900001983E283BD0FFE7019860280FD0FFE7CD
:10BDA0000198782800F0B980FFE70198B72800F0E3
:10BDB000B180FFE70198FF2800F0B280BBE0069851
:10BDC000FEF70CFC022801D0FFE7B5E00C2040F2A2
:10BDD000EE21C0F2E241F3F73BF8FFF7D5FA45F266
:10BDE000C840C2F200002430DAF7DCFE4CF60C1337
:10BDF000C0F20223012000210222DAF709FE4BF2F1
:10BE00006550C0F20220C821F3F7AAF994E0069821
:10BE1000FEF706FE0A2842D1FFE70698033003909A
:10BE20000398007818B1FFE7FDF734FE38E04CF6D0
:10BE30005550C0F20220F3F71FF903980530FFF7C1
:10BE40004FF80398B0F80100DBF74CFB0398B0F80B
:10BE50000100DAF777FBF2F7F9FF0398C0780128C1
:10BE600015D1FFE70398B0F801000090FDF772FDCF
:10BE700001460098D9F736F80398B0F801000A2176
:10BE80000F22DFF76FFF0398FEF708FE03E0039829
:10BE9000FEF7D8FDFFE70398FFF732FD00E0FFE76C
:10BEA0004AE00698023002904CF66150C0F202203F
:10BEB000F3F7E2F80298B0F8010045F27051C2F2CF
:10BEC00000010988884204D1FFE70298FEF7D8FDF7
:10BED0001CE00298B0F8010045F27251C2F2000174
:10BEE0000988884204D1FFE70298FEF7E3FD0CE0E1
:10BEF00045F27051C2F200014FF6FF70088045F222
:10BF00007251C2F200010880FFE7FFE70298FFF7D5
:10BF100003FD11E0FFF76EFD0EE0FFF717FD0BE0EC
:10BF20000698FEF789FD0490049A106851681289FA
:10BF3000FFF7DAFE00E0FFE708B080BD80B588B00B
:10BF4000069005910492069820F0FF0000F580709D
:10BF50000390FFE7049850B3FFE703980699401A4F
:10BF6000029002980499884203D3FFE70498029054
:10BF7000FFE706980599029A43F6FF439847019018
:10BF8000019818B1FFE70198079013E0029906980D
:10BF9000084406900299059808440590029904986F
:10BFA000401A0490039800F580700390D2E70020B7
:10BFB0000790FFE7079808B080BD47F2092CC2F24E
:10BFC000000C60470FB4084B10B504A902AA0398EF
:10BFD00000F0DEF8044602A9002000F070FC2046C4
:10BFE00010BC5DF814FB0000BFC8020202E008C8E4
:10BFF000121F08C1002AFAD170477047002001E0E3
:10C0000001C1121F002AFBD1704700002DE9FF5F1C
:10C0100082B00021DDE90430020DDDF840B00343B9
:10C0200018D044F61050A2F2FF3242431514119872
:10C0300001281FD0A5EB0B00401C5FEA000A4FF05F
:10C0400000064E4FDFF83891B046504615D5CAF17C
:10C05000000413E0119801244AA3012801D16FEADA
:10C060000B010298119AC0E90031C0E9024206B002
:10C07000BDE8F09FCBF10000DFE704460021404A15
:10C08000491842EB0450CDE9001012E0E00707D058
:10C0900032463B4640464946FCF7F3F9804689461E
:10C0A00032463B4610461946FCF7EBF906460F466A
:10C0B0006410002CEAD1DDE90401DDE90023BAF1C6
:10C0C000000F06DAFCF7DDF942464B46FCF7D9F9DA
:10C0D00005E0FCF7A2F842464B46FCF79EF8044602
:10C0E0000E460022284BFCF757FA03D84FF0FF30DA
:10C0F000014607E00022254B20463146FBF7E6FFCC
:10C10000FCF731FA102409E0002C0ADB0A22002394
:10C11000FCF708F9039B30321A55641E50EA0102FD
:10C12000F2D1641C039AC4F111031444119A012A38
:10C1300003D0012208430DD10AE0084304D00020B7
:10C140004FF0110B119072E7A3EB0B056D1E0DE084
:10C150005B4504DD4FF0000205F1010504E003DA60
:10C160004FF00002A5F10105002AECD002981199C8
:10C17000C0E90231C0E9004579E700000000144041
:10C180000000F03F300000000000F0430000E03FFE
:10C190002DE9FF4F95B09B468946064600250FE2E4
:10C1A000252877D100242746F84A0121059400E08C
:10C1B000044316F8013F203B01FA03F01042F7D187
:10C1C00030782A2811D06FF02F033078A0F1300298
:10C1D000092A16D8059A44F0020402EB820203EB06
:10C1E00042021044761C0590EFE759F8042B0592A3
:10C1F000002A03DA504244F40054059044F002044B
:10C20000761C30782E2816D116F8010F44F004045D
:10C210002A280DD06FF02F023078A0F13003092BBF
:10C2200009D807EB870302EB4303C718761CF3E733
:10C2300059F8047B761C30786C280FD006DC4C282B
:10C2400017D068280DD06A2814D104E0742810D0C3
:10C250007A280FD10DE044F400140AE044F480146D
:10C2600001E044F440147278824202D104F5801453
:10C27000761C761C307866280BD013DC582877D0D3
:10C2800009DC002875D04528F6D04628F4D0472888
:10C290001AD19DE118E0632835D0642879D065284B
:10C2A00012D195E1702873D008DC6728F1D0692895
:10C2B0006FD06E280DD06F2806D1B5E073282CD032
:10C2C000752875D0782874D05A46179990476D1CF8
:10C2D00075E1C4F30250022809D003280DD0D9F823
:10C2E000001004280DD00D6009F1040967E1D9F8A8
:10C2F0000010EA17C1E90052F6E7D9F800100D80E6
:10C30000F2E70D70F0E719F8041B8DF8001000201B
:10C310008DF80100EA46012003E059F804AB4FF024
:10C32000FF3061074FF0000102D40DE008F1010178
:10C330008846B9420FDA8045F8DB1AF80810002960
:10C34000F4D108E008F1010188468142FADB1AF8CD
:10C3500008100029F6D105985B46A0EB0807214696
:10C360003846179A00F094FA284400EB080507E0D5
:10C370004DE029E10DE01AF8010B5A461799904754
:10C38000B8F10108F7D25B4621463846179A13E107
:10C3900042E00A220092C4F302524FF0000A022A3D
:10C3A00008D059F804CB032A4FEAEC710AD00DE00B
:10C3B00029E02AE009F1070121F00702F2E802C1B1
:10C3C000914609E00FFA8CFC4FEAEC71042A03D184
:10C3D0004FFA8CFC4FEAEC71002907DA0A4600217B
:10C3E000DCF1000C61EB02012D2202E0220504D5F4
:10C3F0002B228DF80420012203E0E20701D0202245
:10C40000F7E7904659E00A2102E010220DE01021E2
:10C410004FF0000A00910BE010224FF0000A44F0A8
:10C4200004040827009203E008224FF0000A00925B
:10C43000C4F30252022A05D059F804CB0021032A82
:10C4400008D009E009F1070121F00702F2E802C172
:10C45000914605E01FFA8CFC042A01D10CF0FF0C78
:10C460004FF00008220728D5702806D0009B83F0E3
:10C47000100353EA0A0305D00EE040228DF8042091
:10C48000012208E05CEA010206D030228DF8042087
:10C490008DF8050002229046009B83F0080353EAC2
:10C4A0000A030AD15CEA010201D1620705D53022F4
:10C4B0008DF804204FF001087F1E582804D034A0C6
:10C4C00003900EA802900DE036A0F9E753466046AF
:10C4D000009AFBF727FF84460398825C0298401E6F
:10C4E000029002705CEA0100F0D1029806A9081AD5
:10C4F00000F1200A600702D524F4803400E001270F
:10C50000574502DDA7EB0A0000E0002000EB0A011E
:10C51000009005984144401A0590E00306D45B461C
:10C520002146179A059800F0B3F90544002706E064
:10C5300001A85A46C05D179990476D1C7F1C47455E
:10C54000F6DBE0030CD55B462146179A059800F010
:10C550009FF9054404E030205A46179990476D1C16
:10C560000099481E00900029F5DC08E00298029925
:10C570005A460078491C0291179990476D1CBAF1F0
:10C580000001AAF1010AF1DC65E1000009280100BF
:10C590003031323334353637383961626364656639
:10C5A00000000000303132333435363738394142FB
:10C5B000434445460000000000F058F90544761C4D
:10C5C000307800287FF4ECAD19B02846BDE8F08F34
:10C5D000620700D4062709F1070222F0070CFCE8E5
:10C5E0000223E14603F000485FEA080C02D00FF294
:10C5F000702C0DE05FEA045C02D50FF2682C07E0B6
:10C600005FEAC47C02D00FF2602C01E0AFF2700C44
:10C610004FF0FF3823F00043CDF850C065280CD010
:10C6200006DC452809D046281DD047283DD13DE0ED
:10C63000662818D067287ED138E00021112F01DB51
:10C64000112000E0781CCDE9000106A90EA8FFF733
:10C65000DDFCDDE90F010E9A03910021009207F144
:10C66000010A04914DE04FF000400097CDE9011020
:10C6700006A90EA8FFF7CAFCDDE90F0203920E9B84
:10C6800011990022DDF80CA00093049211B9791CD5
:10C6900000EB010AB7EB0A0004D4C0F1FF3007F148
:10C6A000010A0490AAEB0700019044E0012F00DA90
:10C6B00001270021112F01DD112000E03846CDE9CE
:10C6C000000106A90EA8FFF7A1FCDDE90F010E9AF3
:10C6D0000391002104910092BA4621070CD40399DA
:10C6E000514500DA8A46BAF1010F05DD009AAAF138
:10C6F0000101515C302908D0B84202DA10F1040F70
:10C7000006DA0121CDE9011015E0AAF10101E9E7FE
:10C71000002805DC049901440491AAEB000102E021
:10C72000411C514500DD8A460499401A401C019085
:10C730004FF000400290200704D40198504501DBDF
:10C74000CDF8048000208DF84F0002980DF14F07BE
:10C75000B0F1004F25D02B200E9002984FF0020828
:10C7600000280CDA404202902D200E9007E00A21AA
:10C770000298FBF7C1FD3031029007F8011DB8F1B6
:10C780000001A8F10108F2DC02980028EFD1791E1F
:10C790000E980870307800F0200040F0450007F84F
:10C7A000020D12A8C01B00F107081498007800B110
:10C7B000012000EB0A01019801EBE071059841446A
:10C7C000401A401E0590E00306D45B462146179AA6
:10C7D000059800F05DF805441498007818B15A46A1
:10C7E000179990476D1CE00324D55B462146179AA4
:10C7F000059800F04DF805441CE00498002807DB7C
:10C80000DDE90301884203DD0098405C179901E0EF
:10C81000179930205A469047049805F10105401CAD
:10C8200004900198401E019004D12E205A46179979
:10C8300090476D1CBAF10001AAF1010ADDDC05E0A8
:10C8400017F8010B5A46179990476D1CB8F1000173
:10C85000A8F10108F4DC5B462146179A0598ABE67F
:10C860002D0000002B000000200000002DE9F04109
:10C87000044600251E461746880404D405E03946C0
:10C880002020B0476D1C641EF9D52846BDE8F08114
:10C890002DE9F041044600251E469046C80301D507
:10C8A000302700E02027880404D505E041463846BB
:10C8B000B0476D1C641EF9D52846BDE8F0810A68B2
:10C8C000531C0B60107070472B434F4E4E45435422
:10C8D0000D0A002B444953434F4E4E4543540D0A15
:10C8E000002B4F4B0D0A002B504F5745524F4E0D0A
:10C8F0000A00020106070941545F494E4700000043
:10C900000000000041542B00385400200100C800F2
:10C910009600000000000000FFFFFFFAAAAA48C02E
:10C9200000020FFFFFFF00000387E0FFFFFFF55548
:10C930005524A000010FFFFFFE800003A7E0FFFFCA
:10C94000FFFAAAA8909000008FFFFFFE4000039717
:10C95000E0FFFFFFF55556488800004FFFFFFE201F
:10C960000003C7E0FFFFFFFAAAA9268400002FFFFB
:10C97000FFFE10000387E0FFFFFFF5555492820091
:10C98000001FFFFFFE0800038FE0FFFFFFFAAAAAC7
:10C990004A8100020FFFFFFE04000387E0FFFFFF54
:10C9A000F55555268080010FFFFFFE020003A7E02A
:10C9B000FFFFFFFAAAA8928040008FFFFFFE010050
:10C9C0000397E0FFFFFFF555564A8020004FFFFF19
:10C9D000FE008003C7E0FFFFFFFAAAA9268010002F
:10C9E0002FFFFFFE00400387E0FFFFFFF555549146
:10C9F0008008001FFFFFFE0020038FE0FFFFFFFA0B
:10CA0000AAAA498004000FFFFFFE00100387E0FF81
:10CA1000FFFFF55555258002000FFFFFFE000803BC
:10CA200087E0FFFFFFFAAAA8918001000FFFFFFE39
:10CA300000040387E0FFFFFFF55556498000800F93
:10CA4000FFFFFE00021387E0FFFFFFFAAAA925807F
:10CA500000400FFFFFFE00010B87E0FFFFFFF555D1
:10CA600054918000240FFFFFFE00008787E0C8007C
:10CA700000000000000000000100000000000000B5
:10CA800000D00000000000000000000200000000D4
:10CA900000000000C4000000000000000000008052
:10CAA00000000000000000FFFFFFFAAAAA48800073
:10CAB000100FFFFFFE00004387E0FFFFFFF5555515
:10CAC000248000080FFFFFFE00002387E0C0000065
:10CAD0000000000040000000000001000000000015
:10CAE000C0000000000000200000000000008000E6
:10CAF000000000C000000000000010000000000066
:10CB0000004000000000C200000000000000000023
:10CB1000004000000000000000C100000000000014
:10CB2000000000002000000000000000C0800000A5
:10CB3000000000000000001000000000000000C025
:10CB400000000000000008000000000000200000BD
:10CB50000000C00000000000000400000000000011
:10CB60001000000000FFFFFFFAAAA8908200000F4B
:10CB7000FFFFFE08000387E0C00000000000000186
:10CB80000000000000000400000000C000000000E1
:10CB90000000008000000000000200000000FFFF15
:10CBA000FFF555564B8040000FFFFFFE0100038745
:10CBB000E0FFFFFFFAAAA9278020000FFFFFFE0079
:10CBC000800387E0C00000000000000010000000AB
:10CBD00000000040000000C000000000000000084D
:10CBE00000000000000020000000C0000000000065
:10CBF00000000400000000000010000000C0000061
:10CC0000000000000002000000000000080000001A
:10CC1000C00000000000000001000000000000044F
:10CC2000000000C0000000000000000080000000C4
:10CC30000000020000000100600060001800180001
:10CC4000000090016000600080B582B00190142166
:10CC5000C4F215010868022262F352400860042100
:10CC6000C4F215010868042262F3102008600198DC
:10CC7000000248300021C4F21501086040F66D3012
:10CC800080471020C4F21500006802B080BD00008B
:10CC9000006D61696E2025640D0A005B776B5D3A5B
:10CCA000206770696F3A30782530387825303878C9
:10CCB0000D0A00484152444641554C543A0A5043EB
:10CCC000203A203078253038580A4C52203A20300B
:10CCD00078253038580A5053523A20307825303869
:10CCE000580A5230203A203078253038580A5231CC
:10CCF000203A203078253038580A5232203A2030F5
:10CD000078253038580A5033203A2030782530388A
:10CD1000580A5231323A203078253038580A005BB0
:10CD20004F4F4D5D20402025640A005B4153534521
:10CD30005254494F4E5D20402025733A25640A0025
:10CD40005B62745D3A20696E6974696174696E67CB
:10CD500025640D0A005B62745D3A20636F6E0D0AF4
:10CD6000005B62745D3A20646973636F6E0D0A0044
:10CD70005B62745D3A20737461727420636F6E6ECF
:10CD80006563740D0A005B62745D3A2073746172AE
:10CD900074206164760D0A0073657475702070727A
:10CDA0006F66696C650A00696E69746961746520F3
:10CDB00074696D656F75742025780A0061005B6980
:10CDC0006E666F5D3A2064617461206572726F7285
:10CDD0003A25640D0A005B696E666F5D3A206C65EA
:10CDE0006E25640D0A005B6170705D3A20616464B9
:10CDF00072002025303278005B696E666F5D3A20E4
:10CE000069276D206D61737465722C207065657281
:10CE100020616464723A253032785F253032785F61
:10CE2000253032785F253032785F253032785F25C3
:10CE3000303278005B696E666F5D3A2069276D203D
:10CE4000736C6176652C206D7920616464723A257B
:10CE50003032785F253032785F253032785F253088
:10CE600032785F253032785F25303278005B636F2F
:10CE70006D5D3A206461746120706173730D0A0006
:10CE80005B626C655F6275665D3A205B25645D2060
:10CE90005B25645D205B25645D205B25645D005B34
:10CEA000636F6D5F6275665D3A205B25645D205B34
:10CEB00025645D205B25645D205B25645D00620068
:10CEC0006D61696E5F636D645F646174615F7461FD
:10CED000736B004C56532D4C7573682530337500B9
:10CEE0005B6C705D3A20657869740D0A005B6C704C
:10CEF0005D3A20776F726B696E6720307825780D08
:10CF00000A00656E746572206C6F7720706F7765AC
:10CF100072006B65790077726974652068616E6470
:10CF20006C653A2025640D0A005B7365727669634F
:10CF3000655D3A207468726F7567687075742077E4
:10CF4000723A25642C20696F3A25640D0A005B74DF
:10CF500070745D3A20636D706C0D0A0063686172D5
:10CF600061637465726973746963206E6F7420669F
:10CF70006F756E642C2064697363007365727669E3
:10CF80006365206E6F7420666F756E642C20646913
:10CF90007363006F757470757420646573633A20F1
:10CFA000256400696F2068616E646C653A202564B1
:10CFB00000736572766963652068616E646C653ABA
:10CFC000202564202564002B4C414444523D2530EB
:10CFD0003278253032782530327825303278253055
:10CFE000327825303278000000FFE3000010008026
:10CFF0000000805F9B34FB0000FFE2000010008017
:10D000000000805F9B34FB0000FFE1000010008007
:10D010000000805F9B34FB0000FFE00000100080F8
:10D020000000805F9B34FB0058D00202385400207F
:10D03000B0010000E885020228D102020070002041
:10D04000F4050000ECBF020228D10202E8550020DE
:10D05000FC080000FCBF020275434F4E417B0400F8
:10D06000899D0202524F4C456C0400D59E02024C31
:10D0700041444452480500F99B0202035901000152
:10D0800000017000205535B4020255ED73002055A3
:10D090006D7400205561A60202D541A60202051D4D
:10D0A000B9A602024603025AA5A80813EFCD9A7842
:10D0B0001803493AC20100F1F2280707074202EBC0
:10D0C0000201060303F1FF0F09496507FFAC0633B0
:10D0D000F40100291AF4010201060809574D3235FE
:10D0E000304C4311077941DC240EE5A9E093F3A30A
:10D0F000B50100406E001F05FFAC0634122F06CDAF
:10D10000A3010100CDA33AE6A7A500015B03025AE3
:10D11000A5FFFFFFFFFF0F05630402FFFF19FFFFDD
:10D12000FFFF9600FFFF000080B582B001900091E4
:10D13000FFE741F20000C4F2010000F0D0FA01283C
:10D1400001D1FFE7F5E70198017841F20000C4F250
:10D15000010000F0C9FA002002B080BD80B582B0A5
:10D160000190009101A80021FFF7DEFF019802B0B5
:10D1700080BD00BF81B08DF80300FFE741F21800C9
:10D18000C4F2010000684009C00708B1FFE7F5E7F5
:10D190009DF8030041F20001C4F20101086001B0F2
:10D1A000704700BF84B00290029800228260642021
:10D1B000C4F20000006802994A6008606020C4F26E
:10D1C00000000068000C0190029908684968084353
:10D1D000002854D1FFE70198002850D1FFE740F222
:10D1E0004010C4F2100000680190019800F00300A4
:10D1F0000146009103283DD80099DFE801F00206BE
:10D20000120C00208DF80F0069E00299886840F048
:10D21000010088602FE00299886840F00100886072
:10D22000FFE7019880080190019800F00100029941
:10D2300000224A600860019800F00603029908681D
:10D240004A6840EA03104A600860019800F0380319
:10D25000029908684A6840EA83404A600860019879
:10D2600000F0600302990A68486840EA53000A60C7
:10D27000486000E0FFE701208DF80F002FE00198E3
:10D2800000F03F0302990A68486818430A60486042
:10D290009DF804004006002806D5FFE7029988683B
:10D2A00040F004008860FFE79DF8040000060028B5
:10D2B00006D5FFE70299886840F001008860FFE723
:10D2C0009DF80500C00730B1FFE70299886840F07B
:10D2D00002008860FFE701208DF80F00FFE79DF84E
:10D2E0000F0004B0704700BF80B540F2A810C4F230
:10D2F00010000121102200F001F880BD83B00290DF
:10D300008DF807108DF806209DF806100120884042
:10D31000009002980068009988439DF807109DF8D6
:10D320000620914008430299086003B0704700BF8F
:10D3300080B586B00C20C4F2000002900121049157
:10D3400011220192FFF7DAFF04991420C4F20000C1
:10D3500003900422FFF7D2FF0298049A1146FFF7C8
:10D36000CDFF019A03980499FFF7C8FF029804992A
:10D370000622FFF7C3FF029804991522FFF7BEFFAC
:10D380000398049912220592FFF7B8FF02980499B6
:10D390001622FFF7B3FF03980499059AFFF7AEFF33
:10D3A00043F20060C0F26E104FF4612100F002F809
:10D3B00006B080BD80B588B00790069103208DF837
:10D3C000040000228DF8052001208DF806008DF85C
:10D3D00007208DF808008DF809008DF80A008DF8F7
:10D3E0000B208DF80C208DF80D008DF80E0007989D
:10D3F00004900698059041F20000C4F2010001A9D2
:10D4000000F002F808B080BD80B584B003900291AE
:10D410000192039900200863039948640399886383
:10D420000399486003994862039988620399C86226
:10D430000398029AD168126900F032F8029890F8C5
:10D4400000C041788378C278802000EA411040EA29
:10D450004C1040EA031040EAC20001F0030140EA28
:10D4600041000399C8620298B0F80900000400BAAC
:10D47000039948630198039988630299087991F8A0
:10D4800005C08B79CA79400240EA0C20184440EA72
:10D49000C230097A40EA81300399086304B080BD44
:10D4A00086B00590049103920498C0000399B0FBE4
:10D4B000F1F002900298C009019001990298A0EB46
:10D4C000C11002900298013040080090019805991F
:10D4D0004862BDF8060018B9FFE7019810B9FFE7E8
:10D4E000FFE7FEE701984FF6FF71884204D1FFE79E
:10D4F00005990020886207E001990298401A02907D
:10D50000009805998862FFE70598C06A0599C86286
:10D5100006B0704780B58AB0099008910020079046
:10D5200006900590049004A8FFF73CFE8DF80F00CC
:10D53000FFF7FEFE0998007808B9FFE7FFE79DF8BE
:10D540000F00012821D1FFE704980599084390B105
:10D55000FFE705980290049801900299019A4CF611
:10D560009B40C0F2022000F0C4F8002000F0C6F892
:10D5700000F0C9F808E09DF818008007002801D5E0
:10D58000FFE700E0FFE7FFE700E0FFE701200AB068
:10D5900080BD00BF80B584B00390029100F0B8F860
:10D5A0000120019000F008F8019800F061F8FFF701
:10D5B0009BFE019804B080BD80B586B08DF8170041
:10D5C0009DF8170048B3FFE740F2A810C4F210001E
:10D5D0000E21012200F06AF8FFE70A200490FFE71D
:10D5E0000498411E049110B1FFE700BFF8E7FFE780
:10D5F00040F2A810C4F210000F21012200F056F8EA
:10D60000FFE70A200390FFE70398411E039110B142
:10D61000FFE700BFF8E7FFE728E040F2A810C4F2F8
:10D6200010000F21002200F041F8FFE70A200290CD
:10D63000FFE70298411E029110B1FFE700BFF8E733
:10D64000FFE740F2A810C4F210000E21002200F003
:10D650002DF8FFE70A200190FFE70198411E019194
:10D6600010B1FFE700BFF8E7FFE7FFE706B080BDB6
:10D6700080B582B08DF807009DF8072042F21000B7
:10D68000C4F21000072100F011F8FFE740F200108B
:10D69000C4F210000068C0F3C0409DF80710884233
:10D6A00001D0FFE7F2E702B080BD00BF83B0029077
:10D6B0008DF807108DF806209DF80710012088408E
:10D6C000009002980068009988439DF806109DF824
:10D6D0000720914008430299086003B0704749F25F
:10D6E000AD4CC0F2022C604749F2E93CC0F2022C7A
:10D6F00060474FF2790CC0F2012C60474AF6714C3A
:10D70000C0F2022C604749F67D7CC0F2022C6047D3
:0CD7100049F2D95CC0F2022C6047000016
:04000005020280096A
:00000001FF
